{"contracts/Flowex.sol":{"Flowex":{"abi":[{"inputs":[{"internalType":"address","name":"_nftContractAddress","type":"address"},{"internalType":"address","name":"_qaAddress","type":"address"}],"stateMutability":"nonpayable","type":"constructor"},{"anonymous":false,"inputs":[{"indexed":false,"internalType":"uint256","name":"amount","type":"uint256"},{"indexed":false,"internalType":"uint256","name":"timestamp","type":"uint256"},{"indexed":false,"internalType":"uint256","name":"latitude","type":"uint256"},{"indexed":false,"internalType":"uint256","name":"longitude","type":"uint256"}],"name":"AddSupply","type":"event"},{"anonymous":false,"inputs":[{"indexed":true,"internalType":"address","name":"previousOwner","type":"address"},{"indexed":true,"internalType":"address","name":"newOwner","type":"address"}],"name":"OwnershipTransferred","type":"event"},{"anonymous":false,"inputs":[{"indexed":false,"internalType":"uint256","name":"amount","type":"uint256"},{"indexed":false,"internalType":"uint256","name":"timestamp","type":"uint256"}],"name":"RemoveSupply","type":"event"},{"inputs":[{"internalType":"string","name":"companyName","type":"string"}],"name":"addCompany","outputs":[],"stateMutability":"nonpayable","type":"function"},{"inputs":[{"internalType":"string","name":"_companyName","type":"string"},{"internalType":"uint256","name":"_productID","type":"uint256"},{"internalType":"string","name":"_treeType","type":"string"},{"internalType":"string","name":"_location","type":"string"},{"internalType":"enum Flowex.WoodType","name":"_woodType","type":"uint8"},{"internalType":"string","name":"_colour","type":"string"},{"internalType":"bool","name":"_isRaw","type":"bool"},{"internalType":"uint256","name":"_pricePerUnit","type":"uint256"},{"internalType":"string","name":"_photo","type":"string"},{"internalType":"uint256","name":"_amount","type":"uint256"},{"internalType":"enum Flowex.Unit","name":"_unit","type":"uint8"}],"name":"addProduct","outputs":[],"stateMutability":"nonpayable","type":"function"},{"inputs":[{"internalType":"uint256","name":"amount","type":"uint256"},{"internalType":"uint256","name":"timestamp","type":"uint256"},{"internalType":"uint256","name":"latitude","type":"uint256"},{"internalType":"uint256","name":"longitude","type":"uint256"},{"internalType":"uint256","name":"productIndex","type":"uint256"},{"internalType":"uint256","name":"productID","type":"uint256"},{"internalType":"string","name":"companyName","type":"string"}],"name":"addSupply","outputs":[],"stateMutability":"nonpayable","type":"function"},{"inputs":[{"internalType":"bytes32","name":"_hashedMessage","type":"bytes32"},{"internalType":"uint8","name":"_v","type":"uint8"},{"internalType":"bytes32","name":"_r","type":"bytes32"},{"internalType":"bytes32","name":"_s","type":"bytes32"},{"internalType":"uint256","name":"productIndex","type":"uint256"},{"internalType":"uint256","name":"productID","type":"uint256"},{"internalType":"string","name":"companyName","type":"string"},{"internalType":"string","name":"baseURI","type":"string"}],"name":"approveProduct","outputs":[],"stateMutability":"nonpayable","type":"function"},{"inputs":[{"internalType":"string","name":"companyName","type":"string"},{"internalType":"uint256","name":"productIndex","type":"uint256"},{"internalType":"uint256","name":"productID","type":"uint256"}],"name":"chcekProductID","outputs":[],"stateMutability":"view","type":"function"},{"inputs":[{"internalType":"string","name":"companyName","type":"string"}],"name":"disapproveCompany","outputs":[],"stateMutability":"nonpayable","type":"function"},{"inputs":[{"internalType":"string","name":"companyName","type":"string"}],"name":"getAllProducts","outputs":[{"components":[{"internalType":"uint256","name":"productID","type":"uint256"},{"internalType":"string","name":"treeType","type":"string"},{"internalType":"string","name":"location","type":"string"},{"internalType":"enum Flowex.WoodType","name":"woodType","type":"uint8"},{"internalType":"string","name":"colour","type":"string"},{"internalType":"bool","name":"isRaw","type":"bool"},{"internalType":"uint256","name":"pricePerUnit","type":"uint256"},{"internalType":"string","name":"photo","type":"string"},{"internalType":"uint256","name":"amount","type":"uint256"},{"internalType":"enum Flowex.Unit","name":"unit","type":"uint8"},{"internalType":"bool","name":"approved","type":"bool"}],"internalType":"struct Flowex.Product[]","name":"","type":"tuple[]"}],"stateMutability":"view","type":"function"},{"inputs":[{"internalType":"address","name":"","type":"address"},{"internalType":"address","name":"","type":"address"},{"internalType":"uint256","name":"","type":"uint256"},{"internalType":"bytes","name":"","type":"bytes"}],"name":"onERC721Received","outputs":[{"internalType":"bytes4","name":"","type":"bytes4"}],"stateMutability":"pure","type":"function"},{"inputs":[],"name":"owner","outputs":[{"internalType":"address","name":"","type":"address"}],"stateMutability":"view","type":"function"},{"inputs":[{"internalType":"uint256","name":"productIndex","type":"uint256"},{"internalType":"uint256","name":"productID","type":"uint256"},{"internalType":"string","name":"companyName","type":"string"}],"name":"removeProduct","outputs":[],"stateMutability":"nonpayable","type":"function"},{"inputs":[{"internalType":"uint256","name":"amount","type":"uint256"},{"internalType":"uint256","name":"productIndex","type":"uint256"},{"internalType":"uint256","name":"productID","type":"uint256"},{"internalType":"string","name":"companyName","type":"string"}],"name":"removeSupply","outputs":[],"stateMutability":"nonpayable","type":"function"},{"inputs":[],"name":"renounceOwnership","outputs":[],"stateMutability":"nonpayable","type":"function"},{"inputs":[{"internalType":"address","name":"newOwner","type":"address"}],"name":"transferOwnership","outputs":[],"stateMutability":"nonpayable","type":"function"},{"inputs":[{"internalType":"uint256","name":"productId","type":"uint256"}],"name":"verifyProductCertificate","outputs":[{"internalType":"uint256","name":"","type":"uint256"}],"stateMutability":"view","type":"function"}],"evm":{"bytecode":{"linkReferences":{},"object":"60806040523480156200001157600080fd5b5060405162001aca38038062001aca8339810160408190526200003491620000de565b6200003f3362000071565b600380546001600160a01b039384166001600160a01b0319918216179091556002805492909316911617905562000116565b600080546001600160a01b038381166001600160a01b0319831681178455604051919092169283917f8be0079c531659141344cd1fd0a4f28419497f9722a3daafe3b4186f6b6457e09190a35050565b80516001600160a01b0381168114620000d957600080fd5b919050565b60008060408385031215620000f257600080fd5b620000fd83620000c1565b91506200010d60208401620000c1565b90509250929050565b6119a480620001266000396000f3fe608060405234801561001057600080fd5b50600436106100ea5760003560e01c8063715018a61161008c5780639addf188116100665780639addf188146101e35780639d53b949146101f6578063d6483d1714610224578063f2fde38b1461023757600080fd5b8063715018a6146101ad57806380349970146101b55780638da5cb5b146101c857600080fd5b80632da129c8116100c85780632da129c8146101545780633b219252146101675780635ff65d941461017a5780636f1773251461019a57600080fd5b80630f1f31ac146100ef578063150b7a02146101045780632c2e3e4614610141575b600080fd5b6101026100fd3660046110cd565b61024a565b005b610123610112366004611137565b630a85bd0160e11b95945050505050565b6040516001600160e01b031990911681526020015b60405180910390f35b61010261014f3660046111d2565b6102dc565b61010261016236600461122c565b6103c3565b6101026101753660046112a3565b6104bd565b61018d6101883660046112f3565b61053a565b60405161013891906113ba565b6101026101a8366004611512565b6108ad565b610102610aa5565b6101026101c336600461163a565b610ab9565b6000546040516001600160a01b039091168152602001610138565b6101026101f13660046112f3565b610cd4565b6102166102043660046116e7565b60009081526004602052604090205490565b604051908152602001610138565b6101026102323660046112f3565b610d73565b610102610245366004611700565b610e1a565b600060058460405161025c9190611722565b9081526020016040518091039020838154811061027b5761027b61173e565b90600052602060002090600a02016000015490508082146102d65760405162461bcd60e51b815260206004820152601060248201526f15dc9bdb99c81c1c9bd91d58dd08125160821b60448201526064015b60405180910390fd5b50505050565b6102e4610e93565b806006816040516102f59190611722565b9081526040519081900360200190205460ff166103245760405162461bcd60e51b81526004016102cd90611754565b61032f82858561024a565b846005836040516103409190611722565b9081526020016040518091039020858154811061035f5761035f61173e565b90600052602060002090600a0201600801600082825461037f919061179a565b9091555050604080518681524260208201527f06781dbf13cbe24b81cca7c592486459b9182c605dcb4edb27ef897a17884b6c910160405180910390a15050505050565b6103cb610e93565b806006816040516103dc9190611722565b9081526040519081900360200190205460ff1661040b5760405162461bcd60e51b81526004016102cd90611754565b61041682858561024a565b876005836040516104279190611722565b908152602001604051809103902085815481106104465761044661173e565b90600052602060002090600a0201600801600082825461046691906117b3565b90915550506040805189815260208101899052908101879052606081018690527f9e6a720bba6499deb617f3059c8641e9c3265aa4c094aabd1347b292671da0139060800160405180910390a15050505050505050565b6104c5610e93565b806006816040516104d69190611722565b9081526040519081900360200190205460ff166105055760405162461bcd60e51b81526004016102cd90611754565b61051082858561024a565b6005826040516105209190611722565b908152602001604051809103902060006102d69190610f3d565b606060058260405161054c9190611722565b9081526020016040518091039020805480602002602001604051908101604052809291908181526020016000905b828210156108a257838290600052602060002090600a020160405180610160016040529081600082015481526020016001820180546105b8906117c6565b80601f01602080910402602001604051908101604052809291908181526020018280546105e4906117c6565b80156106315780601f1061060657610100808354040283529160200191610631565b820191906000526020600020905b81548152906001019060200180831161061457829003601f168201915b5050505050815260200160028201805461064a906117c6565b80601f0160208091040260200160405190810160405280929190818152602001828054610676906117c6565b80156106c35780601f10610698576101008083540402835291602001916106c3565b820191906000526020600020905b8154815290600101906020018083116106a657829003601f168201915b5050509183525050600382015460209091019060ff1660028111156106ea576106ea611380565b60028111156106fb576106fb611380565b815260200160048201805461070f906117c6565b80601f016020809104026020016040519081016040528092919081815260200182805461073b906117c6565b80156107885780601f1061075d57610100808354040283529160200191610788565b820191906000526020600020905b81548152906001019060200180831161076b57829003601f168201915b5050509183525050600582015460ff1615156020820152600682015460408201526007820180546060909201916107be906117c6565b80601f01602080910402602001604051908101604052809291908181526020018280546107ea906117c6565b80156108375780601f1061080c57610100808354040283529160200191610837565b820191906000526020600020905b81548152906001019060200180831161081a57829003601f168201915b505050918352505060088201546020820152600982015460409091019060ff16600181111561086857610868611380565b600181111561087957610879611380565b815260099190910154610100900460ff161515602091820152908252600192909201910161057a565b505050509050919050565b6108b5610e93565b8a6006816040516108c69190611722565b9081526040519081900360200190205460ff166108f55760405162461bcd60e51b81526004016102cd90611754565b60058c6040516109059190611722565b90815260200160405180910390206040518061016001604052808d81526020018c81526020018b81526020018a600281111561094357610943611380565b8152602001898152602001881515815260200187815260200186815260200185815260200184600181111561097a5761097a611380565b815260006020918201819052835460018181018655948252908290208351600a909202019081559082015191929091908201906109b7908261184f565b50604082015160028201906109cc908261184f565b50606082015160038201805460ff191660018360028111156109f0576109f0611380565b021790555060808201516004820190610a09908261184f565b5060a082015160058201805460ff191691151591909117905560c0820151600682015560e08201516007820190610a40908261184f565b50610100820151600882015561012082015160098201805460ff191660018381811115610a6f57610a6f611380565b02179055506101409190910151600990910180549115156101000261ff0019909216919091179055505050505050505050505050565b610aad610e93565b610ab76000610eed565b565b610ac1610e93565b60006040518060400160405280601c81526020017f19457468657265756d205369676e6564204d6573736167653a0a33320000000081525090506000818a604051602001610b1092919061190f565b60408051601f198184030181528282528051602091820120600080855291840180845281905260ff8d1692840192909252606083018b9052608083018a90529092509060019060a0016020604051602081039080840390855afa158015610b7b573d6000803e3d6000fd5b5050604051601f1901516002549092506001600160a01b038084169116149050610bda5760405162461bcd60e51b815260206004820152601060248201526f4e6f74207369676e656420627920514160801b60448201526064016102cd565b610be585888861024a565b6001600586604051610bf79190611722565b90815260200160405180910390208881548110610c1657610c1661173e565b6000918252602082206009600a909202010180549215156101000261ff001990931692909217909155600354604051636902622f60e11b81526001600160a01b039091169063d204c45e90610c719030908990600401611931565b6020604051808303816000875af1158015610c90573d6000803e3d6000fd5b505050506040513d601f19601f82011682018060405250810190610cb49190611955565b600097885260046020526040909720969096555050505050505050505050565b80600681604051610ce59190611722565b9081526040519081900360200190205460ff16610d145760405162461bcd60e51b81526004016102cd90611754565b6000600683604051610d269190611722565b908152604051908190036020018120805492151560ff1990931692909217909155600590610d55908490611722565b90815260200160405180910390206000610d6f9190610f3d565b5050565b80600681604051610d849190611722565b9081526040519081900360200190205460ff1615610de45760405162461bcd60e51b815260206004820152601a60248201527f436f6d70616e7920616c7265616479207265676973746572656400000000000060448201526064016102cd565b6001600683604051610df69190611722565b908152604051908190036020019020805491151560ff199092169190911790555050565b610e22610e93565b6001600160a01b038116610e875760405162461bcd60e51b815260206004820152602660248201527f4f776e61626c653a206e6577206f776e657220697320746865207a65726f206160448201526564647265737360d01b60648201526084016102cd565b610e9081610eed565b50565b6000546001600160a01b03163314610ab75760405162461bcd60e51b815260206004820181905260248201527f4f776e61626c653a2063616c6c6572206973206e6f7420746865206f776e657260448201526064016102cd565b600080546001600160a01b038381166001600160a01b0319831681178455604051919092169283917f8be0079c531659141344cd1fd0a4f28419497f9722a3daafe3b4186f6b6457e09190a35050565b50805460008255600a0290600052602060002090810190610e9091905b80821115610fdc576000808255610f746001830182610fe0565b610f82600283016000610fe0565b60038201805460ff19169055610f9c600483016000610fe0565b60058201805460ff19169055600060068301819055610fbf906007840190610fe0565b506000600882015560098101805461ffff19169055600a01610f5a565b5090565b508054610fec906117c6565b6000825580601f10610ffc575050565b601f016020900490600052602060002090810190610e9091905b80821115610fdc5760008155600101611016565b634e487b7160e01b600052604160045260246000fd5b600082601f83011261105157600080fd5b813567ffffffffffffffff8082111561106c5761106c61102a565b604051601f8301601f19908116603f011681019082821181831017156110945761109461102a565b816040528381528660208588010111156110ad57600080fd5b836020870160208301376000602085830101528094505050505092915050565b6000806000606084860312156110e257600080fd5b833567ffffffffffffffff8111156110f957600080fd5b61110586828701611040565b9660208601359650604090950135949350505050565b80356001600160a01b038116811461113257600080fd5b919050565b60008060008060006080868803121561114f57600080fd5b6111588661111b565b94506111666020870161111b565b935060408601359250606086013567ffffffffffffffff8082111561118a57600080fd5b818801915088601f83011261119e57600080fd5b8135818111156111ad57600080fd5b8960208285010111156111bf57600080fd5b9699959850939650602001949392505050565b600080600080608085870312156111e857600080fd5b843593506020850135925060408501359150606085013567ffffffffffffffff81111561121457600080fd5b61122087828801611040565b91505092959194509250565b600080600080600080600060e0888a03121561124757600080fd5b873596506020880135955060408801359450606088013593506080880135925060a0880135915060c088013567ffffffffffffffff81111561128857600080fd5b6112948a828b01611040565b91505092959891949750929550565b6000806000606084860312156112b857600080fd5b8335925060208401359150604084013567ffffffffffffffff8111156112dd57600080fd5b6112e986828701611040565b9150509250925092565b60006020828403121561130557600080fd5b813567ffffffffffffffff81111561131c57600080fd5b61132884828501611040565b949350505050565b60005b8381101561134b578181015183820152602001611333565b50506000910152565b6000815180845261136c816020860160208601611330565b601f01601f19169290920160200192915050565b634e487b7160e01b600052602160045260246000fd5b600381106113a6576113a6611380565b9052565b600281106113a6576113a6611380565b60006020808301818452808551808352604092508286019150828160051b87010184880160005b838110156114d657603f1989840301855281516101608151855288820151818a87015261141082870182611354565b91505087820151858203898701526114288282611354565b91505060608083015161143d82880182611396565b5050608080830151868303828801526114568382611354565b9250505060a08083015161146d8288018215159052565b505060c0828101519086015260e080830151868303828801526114908382611354565b92505050610100808301518187015250610120808301516114b3828801826113aa565b5050610140918201511515949091019390935293860193908601906001016113e1565b509098975050505050505050565b80356003811061113257600080fd5b8035801515811461113257600080fd5b80356002811061113257600080fd5b60008060008060008060008060008060006101608c8e03121561153457600080fd5b67ffffffffffffffff808d35111561154b57600080fd5b6115588e8e358f01611040565b9b5060208d01359a508060408e0135111561157257600080fd5b6115828e60408f01358f01611040565b99508060608e0135111561159557600080fd5b6115a58e60608f01358f01611040565b98506115b360808e016114e4565b97508060a08e013511156115c657600080fd5b6115d68e60a08f01358f01611040565b96506115e460c08e016114f3565b955060e08d01359450806101008e013511156115ff57600080fd5b506116118d6101008e01358e01611040565b92506101208c013591506116286101408d01611503565b90509295989b509295989b9093969950565b600080600080600080600080610100898b03121561165757600080fd5b88359750602089013560ff8116811461166f57600080fd5b965060408901359550606089013594506080890135935060a0890135925060c089013567ffffffffffffffff808211156116a857600080fd5b6116b48c838d01611040565b935060e08b01359150808211156116ca57600080fd5b506116d78b828c01611040565b9150509295985092959890939650565b6000602082840312156116f957600080fd5b5035919050565b60006020828403121561171257600080fd5b61171b8261111b565b9392505050565b60008251611734818460208701611330565b9190910192915050565b634e487b7160e01b600052603260045260246000fd5b60208082526016908201527510dbdb5c185b9e481b9bdd081c9959da5cdd195c995960521b604082015260600190565b634e487b7160e01b600052601160045260246000fd5b818103818111156117ad576117ad611784565b92915050565b808201808211156117ad576117ad611784565b600181811c908216806117da57607f821691505b6020821081036117fa57634e487b7160e01b600052602260045260246000fd5b50919050565b601f82111561184a57600081815260208120601f850160051c810160208610156118275750805b601f850160051c820191505b8181101561184657828155600101611833565b5050505b505050565b815167ffffffffffffffff8111156118695761186961102a565b61187d8161187784546117c6565b84611800565b602080601f8311600181146118b2576000841561189a5750858301515b600019600386901b1c1916600185901b178555611846565b600085815260208120601f198616915b828110156118e1578886015182559484019460019091019084016118c2565b50858210156118ff5787850151600019600388901b60f8161c191681555b5050505050600190811b01905550565b60008351611921818460208801611330565b9190910191825250602001919050565b6001600160a01b038316815260406020820181905260009061132890830184611354565b60006020828403121561196757600080fd5b505191905056fea2646970667358221220e1c52170a3f3f64ea6f82243f0075366ba165e4bb23d61432e17f97dac478ca464736f6c63430008110033","opcodes":"PUSH1 0x80 PUSH1 0x40 MSTORE CALLVALUE DUP1 ISZERO PUSH3 0x11 JUMPI PUSH1 0x0 DUP1 REVERT JUMPDEST POP PUSH1 0x40 MLOAD PUSH3 0x1ACA CODESIZE SUB DUP1 PUSH3 0x1ACA DUP4 CODECOPY DUP2 ADD PUSH1 0x40 DUP2 SWAP1 MSTORE PUSH3 0x34 SWAP2 PUSH3 0xDE JUMP JUMPDEST PUSH3 0x3F CALLER PUSH3 0x71 JUMP JUMPDEST PUSH1 0x3 DUP1 SLOAD PUSH1 0x1 PUSH1 0x1 PUSH1 0xA0 SHL SUB SWAP4 DUP5 AND PUSH1 0x1 PUSH1 0x1 PUSH1 0xA0 SHL SUB NOT SWAP2 DUP3 AND OR SWAP1 SWAP2 SSTORE PUSH1 0x2 DUP1 SLOAD SWAP3 SWAP1 SWAP4 AND SWAP2 AND OR SWAP1 SSTORE PUSH3 0x116 JUMP JUMPDEST PUSH1 0x0 DUP1 SLOAD PUSH1 0x1 PUSH1 0x1 PUSH1 0xA0 SHL SUB DUP4 DUP2 AND PUSH1 0x1 PUSH1 0x1 PUSH1 0xA0 SHL SUB NOT DUP4 AND DUP2 OR DUP5 SSTORE PUSH1 0x40 MLOAD SWAP2 SWAP1 SWAP3 AND SWAP3 DUP4 SWAP2 PUSH32 0x8BE0079C531659141344CD1FD0A4F28419497F9722A3DAAFE3B4186F6B6457E0 SWAP2 SWAP1 LOG3 POP POP JUMP JUMPDEST DUP1 MLOAD PUSH1 0x1 PUSH1 0x1 PUSH1 0xA0 SHL SUB DUP2 AND DUP2 EQ PUSH3 0xD9 JUMPI PUSH1 0x0 DUP1 REVERT JUMPDEST SWAP2 SWAP1 POP JUMP JUMPDEST PUSH1 0x0 DUP1 PUSH1 0x40 DUP4 DUP6 SUB SLT ISZERO PUSH3 0xF2 JUMPI PUSH1 0x0 DUP1 REVERT JUMPDEST PUSH3 0xFD DUP4 PUSH3 0xC1 JUMP JUMPDEST SWAP2 POP PUSH3 0x10D PUSH1 0x20 DUP5 ADD PUSH3 0xC1 JUMP JUMPDEST SWAP1 POP SWAP3 POP SWAP3 SWAP1 POP JUMP JUMPDEST PUSH2 0x19A4 DUP1 PUSH3 0x126 PUSH1 0x0 CODECOPY PUSH1 0x0 RETURN INVALID PUSH1 0x80 PUSH1 0x40 MSTORE CALLVALUE DUP1 ISZERO PUSH2 0x10 JUMPI PUSH1 0x0 DUP1 REVERT JUMPDEST POP PUSH1 0x4 CALLDATASIZE LT PUSH2 0xEA JUMPI PUSH1 0x0 CALLDATALOAD PUSH1 0xE0 SHR DUP1 PUSH4 0x715018A6 GT PUSH2 0x8C JUMPI DUP1 PUSH4 0x9ADDF188 GT PUSH2 0x66 JUMPI DUP1 PUSH4 0x9ADDF188 EQ PUSH2 0x1E3 JUMPI DUP1 PUSH4 0x9D53B949 EQ PUSH2 0x1F6 JUMPI DUP1 PUSH4 0xD6483D17 EQ PUSH2 0x224 JUMPI DUP1 PUSH4 0xF2FDE38B EQ PUSH2 0x237 JUMPI PUSH1 0x0 DUP1 REVERT JUMPDEST DUP1 PUSH4 0x715018A6 EQ PUSH2 0x1AD JUMPI DUP1 PUSH4 0x80349970 EQ PUSH2 0x1B5 JUMPI DUP1 PUSH4 0x8DA5CB5B EQ PUSH2 0x1C8 JUMPI PUSH1 0x0 DUP1 REVERT JUMPDEST DUP1 PUSH4 0x2DA129C8 GT PUSH2 0xC8 JUMPI DUP1 PUSH4 0x2DA129C8 EQ PUSH2 0x154 JUMPI DUP1 PUSH4 0x3B219252 EQ PUSH2 0x167 JUMPI DUP1 PUSH4 0x5FF65D94 EQ PUSH2 0x17A JUMPI DUP1 PUSH4 0x6F177325 EQ PUSH2 0x19A JUMPI PUSH1 0x0 DUP1 REVERT JUMPDEST DUP1 PUSH4 0xF1F31AC EQ PUSH2 0xEF JUMPI DUP1 PUSH4 0x150B7A02 EQ PUSH2 0x104 JUMPI DUP1 PUSH4 0x2C2E3E46 EQ PUSH2 0x141 JUMPI JUMPDEST PUSH1 0x0 DUP1 REVERT JUMPDEST PUSH2 0x102 PUSH2 0xFD CALLDATASIZE PUSH1 0x4 PUSH2 0x10CD JUMP JUMPDEST PUSH2 0x24A JUMP JUMPDEST STOP JUMPDEST PUSH2 0x123 PUSH2 0x112 CALLDATASIZE PUSH1 0x4 PUSH2 0x1137 JUMP JUMPDEST PUSH4 0xA85BD01 PUSH1 0xE1 SHL SWAP6 SWAP5 POP POP POP POP POP JUMP JUMPDEST PUSH1 0x40 MLOAD PUSH1 0x1 PUSH1 0x1 PUSH1 0xE0 SHL SUB NOT SWAP1 SWAP2 AND DUP2 MSTORE PUSH1 0x20 ADD JUMPDEST PUSH1 0x40 MLOAD DUP1 SWAP2 SUB SWAP1 RETURN JUMPDEST PUSH2 0x102 PUSH2 0x14F CALLDATASIZE PUSH1 0x4 PUSH2 0x11D2 JUMP JUMPDEST PUSH2 0x2DC JUMP JUMPDEST PUSH2 0x102 PUSH2 0x162 CALLDATASIZE PUSH1 0x4 PUSH2 0x122C JUMP JUMPDEST PUSH2 0x3C3 JUMP JUMPDEST PUSH2 0x102 PUSH2 0x175 CALLDATASIZE PUSH1 0x4 PUSH2 0x12A3 JUMP JUMPDEST PUSH2 0x4BD JUMP JUMPDEST PUSH2 0x18D PUSH2 0x188 CALLDATASIZE PUSH1 0x4 PUSH2 0x12F3 JUMP JUMPDEST PUSH2 0x53A JUMP JUMPDEST PUSH1 0x40 MLOAD PUSH2 0x138 SWAP2 SWAP1 PUSH2 0x13BA JUMP JUMPDEST PUSH2 0x102 PUSH2 0x1A8 CALLDATASIZE PUSH1 0x4 PUSH2 0x1512 JUMP JUMPDEST PUSH2 0x8AD JUMP JUMPDEST PUSH2 0x102 PUSH2 0xAA5 JUMP JUMPDEST PUSH2 0x102 PUSH2 0x1C3 CALLDATASIZE PUSH1 0x4 PUSH2 0x163A JUMP JUMPDEST PUSH2 0xAB9 JUMP JUMPDEST PUSH1 0x0 SLOAD PUSH1 0x40 MLOAD PUSH1 0x1 PUSH1 0x1 PUSH1 0xA0 SHL SUB SWAP1 SWAP2 AND DUP2 MSTORE PUSH1 0x20 ADD PUSH2 0x138 JUMP JUMPDEST PUSH2 0x102 PUSH2 0x1F1 CALLDATASIZE PUSH1 0x4 PUSH2 0x12F3 JUMP JUMPDEST PUSH2 0xCD4 JUMP JUMPDEST PUSH2 0x216 PUSH2 0x204 CALLDATASIZE PUSH1 0x4 PUSH2 0x16E7 JUMP JUMPDEST PUSH1 0x0 SWAP1 DUP2 MSTORE PUSH1 0x4 PUSH1 0x20 MSTORE PUSH1 0x40 SWAP1 KECCAK256 SLOAD SWAP1 JUMP JUMPDEST PUSH1 0x40 MLOAD SWAP1 DUP2 MSTORE PUSH1 0x20 ADD PUSH2 0x138 JUMP JUMPDEST PUSH2 0x102 PUSH2 0x232 CALLDATASIZE PUSH1 0x4 PUSH2 0x12F3 JUMP JUMPDEST PUSH2 0xD73 JUMP JUMPDEST PUSH2 0x102 PUSH2 0x245 CALLDATASIZE PUSH1 0x4 PUSH2 0x1700 JUMP JUMPDEST PUSH2 0xE1A JUMP JUMPDEST PUSH1 0x0 PUSH1 0x5 DUP5 PUSH1 0x40 MLOAD PUSH2 0x25C SWAP2 SWAP1 PUSH2 0x1722 JUMP JUMPDEST SWAP1 DUP2 MSTORE PUSH1 0x20 ADD PUSH1 0x40 MLOAD DUP1 SWAP2 SUB SWAP1 KECCAK256 DUP4 DUP2 SLOAD DUP2 LT PUSH2 0x27B JUMPI PUSH2 0x27B PUSH2 0x173E JUMP JUMPDEST SWAP1 PUSH1 0x0 MSTORE PUSH1 0x20 PUSH1 0x0 KECCAK256 SWAP1 PUSH1 0xA MUL ADD PUSH1 0x0 ADD SLOAD SWAP1 POP DUP1 DUP3 EQ PUSH2 0x2D6 JUMPI PUSH1 0x40 MLOAD PUSH3 0x461BCD PUSH1 0xE5 SHL DUP2 MSTORE PUSH1 0x20 PUSH1 0x4 DUP3 ADD MSTORE PUSH1 0x10 PUSH1 0x24 DUP3 ADD MSTORE PUSH16 0x15DC9BDB99C81C1C9BD91D58DD081251 PUSH1 0x82 SHL PUSH1 0x44 DUP3 ADD MSTORE PUSH1 0x64 ADD JUMPDEST PUSH1 0x40 MLOAD DUP1 SWAP2 SUB SWAP1 REVERT JUMPDEST POP POP POP POP JUMP JUMPDEST PUSH2 0x2E4 PUSH2 0xE93 JUMP JUMPDEST DUP1 PUSH1 0x6 DUP2 PUSH1 0x40 MLOAD PUSH2 0x2F5 SWAP2 SWAP1 PUSH2 0x1722 JUMP JUMPDEST SWAP1 DUP2 MSTORE PUSH1 0x40 MLOAD SWAP1 DUP2 SWAP1 SUB PUSH1 0x20 ADD SWAP1 KECCAK256 SLOAD PUSH1 0xFF AND PUSH2 0x324 JUMPI PUSH1 0x40 MLOAD PUSH3 0x461BCD PUSH1 0xE5 SHL DUP2 MSTORE PUSH1 0x4 ADD PUSH2 0x2CD SWAP1 PUSH2 0x1754 JUMP JUMPDEST PUSH2 0x32F DUP3 DUP6 DUP6 PUSH2 0x24A JUMP JUMPDEST DUP5 PUSH1 0x5 DUP4 PUSH1 0x40 MLOAD PUSH2 0x340 SWAP2 SWAP1 PUSH2 0x1722 JUMP JUMPDEST SWAP1 DUP2 MSTORE PUSH1 0x20 ADD PUSH1 0x40 MLOAD DUP1 SWAP2 SUB SWAP1 KECCAK256 DUP6 DUP2 SLOAD DUP2 LT PUSH2 0x35F JUMPI PUSH2 0x35F PUSH2 0x173E JUMP JUMPDEST SWAP1 PUSH1 0x0 MSTORE PUSH1 0x20 PUSH1 0x0 KECCAK256 SWAP1 PUSH1 0xA MUL ADD PUSH1 0x8 ADD PUSH1 0x0 DUP3 DUP3 SLOAD PUSH2 0x37F SWAP2 SWAP1 PUSH2 0x179A JUMP JUMPDEST SWAP1 SWAP2 SSTORE POP POP PUSH1 0x40 DUP1 MLOAD DUP7 DUP2 MSTORE TIMESTAMP PUSH1 0x20 DUP3 ADD MSTORE PUSH32 0x6781DBF13CBE24B81CCA7C592486459B9182C605DCB4EDB27EF897A17884B6C SWAP2 ADD PUSH1 0x40 MLOAD DUP1 SWAP2 SUB SWAP1 LOG1 POP POP POP POP POP JUMP JUMPDEST PUSH2 0x3CB PUSH2 0xE93 JUMP JUMPDEST DUP1 PUSH1 0x6 DUP2 PUSH1 0x40 MLOAD PUSH2 0x3DC SWAP2 SWAP1 PUSH2 0x1722 JUMP JUMPDEST SWAP1 DUP2 MSTORE PUSH1 0x40 MLOAD SWAP1 DUP2 SWAP1 SUB PUSH1 0x20 ADD SWAP1 KECCAK256 SLOAD PUSH1 0xFF AND PUSH2 0x40B JUMPI PUSH1 0x40 MLOAD PUSH3 0x461BCD PUSH1 0xE5 SHL DUP2 MSTORE PUSH1 0x4 ADD PUSH2 0x2CD SWAP1 PUSH2 0x1754 JUMP JUMPDEST PUSH2 0x416 DUP3 DUP6 DUP6 PUSH2 0x24A JUMP JUMPDEST DUP8 PUSH1 0x5 DUP4 PUSH1 0x40 MLOAD PUSH2 0x427 SWAP2 SWAP1 PUSH2 0x1722 JUMP JUMPDEST SWAP1 DUP2 MSTORE PUSH1 0x20 ADD PUSH1 0x40 MLOAD DUP1 SWAP2 SUB SWAP1 KECCAK256 DUP6 DUP2 SLOAD DUP2 LT PUSH2 0x446 JUMPI PUSH2 0x446 PUSH2 0x173E JUMP JUMPDEST SWAP1 PUSH1 0x0 MSTORE PUSH1 0x20 PUSH1 0x0 KECCAK256 SWAP1 PUSH1 0xA MUL ADD PUSH1 0x8 ADD PUSH1 0x0 DUP3 DUP3 SLOAD PUSH2 0x466 SWAP2 SWAP1 PUSH2 0x17B3 JUMP JUMPDEST SWAP1 SWAP2 SSTORE POP POP PUSH1 0x40 DUP1 MLOAD DUP10 DUP2 MSTORE PUSH1 0x20 DUP2 ADD DUP10 SWAP1 MSTORE SWAP1 DUP2 ADD DUP8 SWAP1 MSTORE PUSH1 0x60 DUP2 ADD DUP7 SWAP1 MSTORE PUSH32 0x9E6A720BBA6499DEB617F3059C8641E9C3265AA4C094AABD1347B292671DA013 SWAP1 PUSH1 0x80 ADD PUSH1 0x40 MLOAD DUP1 SWAP2 SUB SWAP1 LOG1 POP POP POP POP POP POP POP POP JUMP JUMPDEST PUSH2 0x4C5 PUSH2 0xE93 JUMP JUMPDEST DUP1 PUSH1 0x6 DUP2 PUSH1 0x40 MLOAD PUSH2 0x4D6 SWAP2 SWAP1 PUSH2 0x1722 JUMP JUMPDEST SWAP1 DUP2 MSTORE PUSH1 0x40 MLOAD SWAP1 DUP2 SWAP1 SUB PUSH1 0x20 ADD SWAP1 KECCAK256 SLOAD PUSH1 0xFF AND PUSH2 0x505 JUMPI PUSH1 0x40 MLOAD PUSH3 0x461BCD PUSH1 0xE5 SHL DUP2 MSTORE PUSH1 0x4 ADD PUSH2 0x2CD SWAP1 PUSH2 0x1754 JUMP JUMPDEST PUSH2 0x510 DUP3 DUP6 DUP6 PUSH2 0x24A JUMP JUMPDEST PUSH1 0x5 DUP3 PUSH1 0x40 MLOAD PUSH2 0x520 SWAP2 SWAP1 PUSH2 0x1722 JUMP JUMPDEST SWAP1 DUP2 MSTORE PUSH1 0x20 ADD PUSH1 0x40 MLOAD DUP1 SWAP2 SUB SWAP1 KECCAK256 PUSH1 0x0 PUSH2 0x2D6 SWAP2 SWAP1 PUSH2 0xF3D JUMP JUMPDEST PUSH1 0x60 PUSH1 0x5 DUP3 PUSH1 0x40 MLOAD PUSH2 0x54C SWAP2 SWAP1 PUSH2 0x1722 JUMP JUMPDEST SWAP1 DUP2 MSTORE PUSH1 0x20 ADD PUSH1 0x40 MLOAD DUP1 SWAP2 SUB SWAP1 KECCAK256 DUP1 SLOAD DUP1 PUSH1 0x20 MUL PUSH1 0x20 ADD PUSH1 0x40 MLOAD SWAP1 DUP2 ADD PUSH1 0x40 MSTORE DUP1 SWAP3 SWAP2 SWAP1 DUP2 DUP2 MSTORE PUSH1 0x20 ADD PUSH1 0x0 SWAP1 JUMPDEST DUP3 DUP3 LT ISZERO PUSH2 0x8A2 JUMPI DUP4 DUP3 SWAP1 PUSH1 0x0 MSTORE PUSH1 0x20 PUSH1 0x0 KECCAK256 SWAP1 PUSH1 0xA MUL ADD PUSH1 0x40 MLOAD DUP1 PUSH2 0x160 ADD PUSH1 0x40 MSTORE SWAP1 DUP2 PUSH1 0x0 DUP3 ADD SLOAD DUP2 MSTORE PUSH1 0x20 ADD PUSH1 0x1 DUP3 ADD DUP1 SLOAD PUSH2 0x5B8 SWAP1 PUSH2 0x17C6 JUMP JUMPDEST DUP1 PUSH1 0x1F ADD PUSH1 0x20 DUP1 SWAP2 DIV MUL PUSH1 0x20 ADD PUSH1 0x40 MLOAD SWAP1 DUP2 ADD PUSH1 0x40 MSTORE DUP1 SWAP3 SWAP2 SWAP1 DUP2 DUP2 MSTORE PUSH1 0x20 ADD DUP3 DUP1 SLOAD PUSH2 0x5E4 SWAP1 PUSH2 0x17C6 JUMP JUMPDEST DUP1 ISZERO PUSH2 0x631 JUMPI DUP1 PUSH1 0x1F LT PUSH2 0x606 JUMPI PUSH2 0x100 DUP1 DUP4 SLOAD DIV MUL DUP4 MSTORE SWAP2 PUSH1 0x20 ADD SWAP2 PUSH2 0x631 JUMP JUMPDEST DUP3 ADD SWAP2 SWAP1 PUSH1 0x0 MSTORE PUSH1 0x20 PUSH1 0x0 KECCAK256 SWAP1 JUMPDEST DUP2 SLOAD DUP2 MSTORE SWAP1 PUSH1 0x1 ADD SWAP1 PUSH1 0x20 ADD DUP1 DUP4 GT PUSH2 0x614 JUMPI DUP3 SWAP1 SUB PUSH1 0x1F AND DUP3 ADD SWAP2 JUMPDEST POP POP POP POP POP DUP2 MSTORE PUSH1 0x20 ADD PUSH1 0x2 DUP3 ADD DUP1 SLOAD PUSH2 0x64A SWAP1 PUSH2 0x17C6 JUMP JUMPDEST DUP1 PUSH1 0x1F ADD PUSH1 0x20 DUP1 SWAP2 DIV MUL PUSH1 0x20 ADD PUSH1 0x40 MLOAD SWAP1 DUP2 ADD PUSH1 0x40 MSTORE DUP1 SWAP3 SWAP2 SWAP1 DUP2 DUP2 MSTORE PUSH1 0x20 ADD DUP3 DUP1 SLOAD PUSH2 0x676 SWAP1 PUSH2 0x17C6 JUMP JUMPDEST DUP1 ISZERO PUSH2 0x6C3 JUMPI DUP1 PUSH1 0x1F LT PUSH2 0x698 JUMPI PUSH2 0x100 DUP1 DUP4 SLOAD DIV MUL DUP4 MSTORE SWAP2 PUSH1 0x20 ADD SWAP2 PUSH2 0x6C3 JUMP JUMPDEST DUP3 ADD SWAP2 SWAP1 PUSH1 0x0 MSTORE PUSH1 0x20 PUSH1 0x0 KECCAK256 SWAP1 JUMPDEST DUP2 SLOAD DUP2 MSTORE SWAP1 PUSH1 0x1 ADD SWAP1 PUSH1 0x20 ADD DUP1 DUP4 GT PUSH2 0x6A6 JUMPI DUP3 SWAP1 SUB PUSH1 0x1F AND DUP3 ADD SWAP2 JUMPDEST POP POP POP SWAP2 DUP4 MSTORE POP POP PUSH1 0x3 DUP3 ADD SLOAD PUSH1 0x20 SWAP1 SWAP2 ADD SWAP1 PUSH1 0xFF AND PUSH1 0x2 DUP2 GT ISZERO PUSH2 0x6EA JUMPI PUSH2 0x6EA PUSH2 0x1380 JUMP JUMPDEST PUSH1 0x2 DUP2 GT ISZERO PUSH2 0x6FB JUMPI PUSH2 0x6FB PUSH2 0x1380 JUMP JUMPDEST DUP2 MSTORE PUSH1 0x20 ADD PUSH1 0x4 DUP3 ADD DUP1 SLOAD PUSH2 0x70F SWAP1 PUSH2 0x17C6 JUMP JUMPDEST DUP1 PUSH1 0x1F ADD PUSH1 0x20 DUP1 SWAP2 DIV MUL PUSH1 0x20 ADD PUSH1 0x40 MLOAD SWAP1 DUP2 ADD PUSH1 0x40 MSTORE DUP1 SWAP3 SWAP2 SWAP1 DUP2 DUP2 MSTORE PUSH1 0x20 ADD DUP3 DUP1 SLOAD PUSH2 0x73B SWAP1 PUSH2 0x17C6 JUMP JUMPDEST DUP1 ISZERO PUSH2 0x788 JUMPI DUP1 PUSH1 0x1F LT PUSH2 0x75D JUMPI PUSH2 0x100 DUP1 DUP4 SLOAD DIV MUL DUP4 MSTORE SWAP2 PUSH1 0x20 ADD SWAP2 PUSH2 0x788 JUMP JUMPDEST DUP3 ADD SWAP2 SWAP1 PUSH1 0x0 MSTORE PUSH1 0x20 PUSH1 0x0 KECCAK256 SWAP1 JUMPDEST DUP2 SLOAD DUP2 MSTORE SWAP1 PUSH1 0x1 ADD SWAP1 PUSH1 0x20 ADD DUP1 DUP4 GT PUSH2 0x76B JUMPI DUP3 SWAP1 SUB PUSH1 0x1F AND DUP3 ADD SWAP2 JUMPDEST POP POP POP SWAP2 DUP4 MSTORE POP POP PUSH1 0x5 DUP3 ADD SLOAD PUSH1 0xFF AND ISZERO ISZERO PUSH1 0x20 DUP3 ADD MSTORE PUSH1 0x6 DUP3 ADD SLOAD PUSH1 0x40 DUP3 ADD MSTORE PUSH1 0x7 DUP3 ADD DUP1 SLOAD PUSH1 0x60 SWAP1 SWAP3 ADD SWAP2 PUSH2 0x7BE SWAP1 PUSH2 0x17C6 JUMP JUMPDEST DUP1 PUSH1 0x1F ADD PUSH1 0x20 DUP1 SWAP2 DIV MUL PUSH1 0x20 ADD PUSH1 0x40 MLOAD SWAP1 DUP2 ADD PUSH1 0x40 MSTORE DUP1 SWAP3 SWAP2 SWAP1 DUP2 DUP2 MSTORE PUSH1 0x20 ADD DUP3 DUP1 SLOAD PUSH2 0x7EA SWAP1 PUSH2 0x17C6 JUMP JUMPDEST DUP1 ISZERO PUSH2 0x837 JUMPI DUP1 PUSH1 0x1F LT PUSH2 0x80C JUMPI PUSH2 0x100 DUP1 DUP4 SLOAD DIV MUL DUP4 MSTORE SWAP2 PUSH1 0x20 ADD SWAP2 PUSH2 0x837 JUMP JUMPDEST DUP3 ADD SWAP2 SWAP1 PUSH1 0x0 MSTORE PUSH1 0x20 PUSH1 0x0 KECCAK256 SWAP1 JUMPDEST DUP2 SLOAD DUP2 MSTORE SWAP1 PUSH1 0x1 ADD SWAP1 PUSH1 0x20 ADD DUP1 DUP4 GT PUSH2 0x81A JUMPI DUP3 SWAP1 SUB PUSH1 0x1F AND DUP3 ADD SWAP2 JUMPDEST POP POP POP SWAP2 DUP4 MSTORE POP POP PUSH1 0x8 DUP3 ADD SLOAD PUSH1 0x20 DUP3 ADD MSTORE PUSH1 0x9 DUP3 ADD SLOAD PUSH1 0x40 SWAP1 SWAP2 ADD SWAP1 PUSH1 0xFF AND PUSH1 0x1 DUP2 GT ISZERO PUSH2 0x868 JUMPI PUSH2 0x868 PUSH2 0x1380 JUMP JUMPDEST PUSH1 0x1 DUP2 GT ISZERO PUSH2 0x879 JUMPI PUSH2 0x879 PUSH2 0x1380 JUMP JUMPDEST DUP2 MSTORE PUSH1 0x9 SWAP2 SWAP1 SWAP2 ADD SLOAD PUSH2 0x100 SWAP1 DIV PUSH1 0xFF AND ISZERO ISZERO PUSH1 0x20 SWAP2 DUP3 ADD MSTORE SWAP1 DUP3 MSTORE PUSH1 0x1 SWAP3 SWAP1 SWAP3 ADD SWAP2 ADD PUSH2 0x57A JUMP JUMPDEST POP POP POP POP SWAP1 POP SWAP2 SWAP1 POP JUMP JUMPDEST PUSH2 0x8B5 PUSH2 0xE93 JUMP JUMPDEST DUP11 PUSH1 0x6 DUP2 PUSH1 0x40 MLOAD PUSH2 0x8C6 SWAP2 SWAP1 PUSH2 0x1722 JUMP JUMPDEST SWAP1 DUP2 MSTORE PUSH1 0x40 MLOAD SWAP1 DUP2 SWAP1 SUB PUSH1 0x20 ADD SWAP1 KECCAK256 SLOAD PUSH1 0xFF AND PUSH2 0x8F5 JUMPI PUSH1 0x40 MLOAD PUSH3 0x461BCD PUSH1 0xE5 SHL DUP2 MSTORE PUSH1 0x4 ADD PUSH2 0x2CD SWAP1 PUSH2 0x1754 JUMP JUMPDEST PUSH1 0x5 DUP13 PUSH1 0x40 MLOAD PUSH2 0x905 SWAP2 SWAP1 PUSH2 0x1722 JUMP JUMPDEST SWAP1 DUP2 MSTORE PUSH1 0x20 ADD PUSH1 0x40 MLOAD DUP1 SWAP2 SUB SWAP1 KECCAK256 PUSH1 0x40 MLOAD DUP1 PUSH2 0x160 ADD PUSH1 0x40 MSTORE DUP1 DUP14 DUP2 MSTORE PUSH1 0x20 ADD DUP13 DUP2 MSTORE PUSH1 0x20 ADD DUP12 DUP2 MSTORE PUSH1 0x20 ADD DUP11 PUSH1 0x2 DUP2 GT ISZERO PUSH2 0x943 JUMPI PUSH2 0x943 PUSH2 0x1380 JUMP JUMPDEST DUP2 MSTORE PUSH1 0x20 ADD DUP10 DUP2 MSTORE PUSH1 0x20 ADD DUP9 ISZERO ISZERO DUP2 MSTORE PUSH1 0x20 ADD DUP8 DUP2 MSTORE PUSH1 0x20 ADD DUP7 DUP2 MSTORE PUSH1 0x20 ADD DUP6 DUP2 MSTORE PUSH1 0x20 ADD DUP5 PUSH1 0x1 DUP2 GT ISZERO PUSH2 0x97A JUMPI PUSH2 0x97A PUSH2 0x1380 JUMP JUMPDEST DUP2 MSTORE PUSH1 0x0 PUSH1 0x20 SWAP2 DUP3 ADD DUP2 SWAP1 MSTORE DUP4 SLOAD PUSH1 0x1 DUP2 DUP2 ADD DUP7 SSTORE SWAP5 DUP3 MSTORE SWAP1 DUP3 SWAP1 KECCAK256 DUP4 MLOAD PUSH1 0xA SWAP1 SWAP3 MUL ADD SWAP1 DUP2 SSTORE SWAP1 DUP3 ADD MLOAD SWAP2 SWAP3 SWAP1 SWAP2 SWAP1 DUP3 ADD SWAP1 PUSH2 0x9B7 SWAP1 DUP3 PUSH2 0x184F JUMP JUMPDEST POP PUSH1 0x40 DUP3 ADD MLOAD PUSH1 0x2 DUP3 ADD SWAP1 PUSH2 0x9CC SWAP1 DUP3 PUSH2 0x184F JUMP JUMPDEST POP PUSH1 0x60 DUP3 ADD MLOAD PUSH1 0x3 DUP3 ADD DUP1 SLOAD PUSH1 0xFF NOT AND PUSH1 0x1 DUP4 PUSH1 0x2 DUP2 GT ISZERO PUSH2 0x9F0 JUMPI PUSH2 0x9F0 PUSH2 0x1380 JUMP JUMPDEST MUL OR SWAP1 SSTORE POP PUSH1 0x80 DUP3 ADD MLOAD PUSH1 0x4 DUP3 ADD SWAP1 PUSH2 0xA09 SWAP1 DUP3 PUSH2 0x184F JUMP JUMPDEST POP PUSH1 0xA0 DUP3 ADD MLOAD PUSH1 0x5 DUP3 ADD DUP1 SLOAD PUSH1 0xFF NOT AND SWAP2 ISZERO ISZERO SWAP2 SWAP1 SWAP2 OR SWAP1 SSTORE PUSH1 0xC0 DUP3 ADD MLOAD PUSH1 0x6 DUP3 ADD SSTORE PUSH1 0xE0 DUP3 ADD MLOAD PUSH1 0x7 DUP3 ADD SWAP1 PUSH2 0xA40 SWAP1 DUP3 PUSH2 0x184F JUMP JUMPDEST POP PUSH2 0x100 DUP3 ADD MLOAD PUSH1 0x8 DUP3 ADD SSTORE PUSH2 0x120 DUP3 ADD MLOAD PUSH1 0x9 DUP3 ADD DUP1 SLOAD PUSH1 0xFF NOT AND PUSH1 0x1 DUP4 DUP2 DUP2 GT ISZERO PUSH2 0xA6F JUMPI PUSH2 0xA6F PUSH2 0x1380 JUMP JUMPDEST MUL OR SWAP1 SSTORE POP PUSH2 0x140 SWAP2 SWAP1 SWAP2 ADD MLOAD PUSH1 0x9 SWAP1 SWAP2 ADD DUP1 SLOAD SWAP2 ISZERO ISZERO PUSH2 0x100 MUL PUSH2 0xFF00 NOT SWAP1 SWAP3 AND SWAP2 SWAP1 SWAP2 OR SWAP1 SSTORE POP POP POP POP POP POP POP POP POP POP POP POP JUMP JUMPDEST PUSH2 0xAAD PUSH2 0xE93 JUMP JUMPDEST PUSH2 0xAB7 PUSH1 0x0 PUSH2 0xEED JUMP JUMPDEST JUMP JUMPDEST PUSH2 0xAC1 PUSH2 0xE93 JUMP JUMPDEST PUSH1 0x0 PUSH1 0x40 MLOAD DUP1 PUSH1 0x40 ADD PUSH1 0x40 MSTORE DUP1 PUSH1 0x1C DUP2 MSTORE PUSH1 0x20 ADD PUSH32 0x19457468657265756D205369676E6564204D6573736167653A0A333200000000 DUP2 MSTORE POP SWAP1 POP PUSH1 0x0 DUP2 DUP11 PUSH1 0x40 MLOAD PUSH1 0x20 ADD PUSH2 0xB10 SWAP3 SWAP2 SWAP1 PUSH2 0x190F JUMP JUMPDEST PUSH1 0x40 DUP1 MLOAD PUSH1 0x1F NOT DUP2 DUP5 SUB ADD DUP2 MSTORE DUP3 DUP3 MSTORE DUP1 MLOAD PUSH1 0x20 SWAP2 DUP3 ADD KECCAK256 PUSH1 0x0 DUP1 DUP6 MSTORE SWAP2 DUP5 ADD DUP1 DUP5 MSTORE DUP2 SWAP1 MSTORE PUSH1 0xFF DUP14 AND SWAP3 DUP5 ADD SWAP3 SWAP1 SWAP3 MSTORE PUSH1 0x60 DUP4 ADD DUP12 SWAP1 MSTORE PUSH1 0x80 DUP4 ADD DUP11 SWAP1 MSTORE SWAP1 SWAP3 POP SWAP1 PUSH1 0x1 SWAP1 PUSH1 0xA0 ADD PUSH1 0x20 PUSH1 0x40 MLOAD PUSH1 0x20 DUP2 SUB SWAP1 DUP1 DUP5 SUB SWAP1 DUP6 GAS STATICCALL ISZERO DUP1 ISZERO PUSH2 0xB7B JUMPI RETURNDATASIZE PUSH1 0x0 DUP1 RETURNDATACOPY RETURNDATASIZE PUSH1 0x0 REVERT JUMPDEST POP POP PUSH1 0x40 MLOAD PUSH1 0x1F NOT ADD MLOAD PUSH1 0x2 SLOAD SWAP1 SWAP3 POP PUSH1 0x1 PUSH1 0x1 PUSH1 0xA0 SHL SUB DUP1 DUP5 AND SWAP2 AND EQ SWAP1 POP PUSH2 0xBDA JUMPI PUSH1 0x40 MLOAD PUSH3 0x461BCD PUSH1 0xE5 SHL DUP2 MSTORE PUSH1 0x20 PUSH1 0x4 DUP3 ADD MSTORE PUSH1 0x10 PUSH1 0x24 DUP3 ADD MSTORE PUSH16 0x4E6F74207369676E6564206279205141 PUSH1 0x80 SHL PUSH1 0x44 DUP3 ADD MSTORE PUSH1 0x64 ADD PUSH2 0x2CD JUMP JUMPDEST PUSH2 0xBE5 DUP6 DUP9 DUP9 PUSH2 0x24A JUMP JUMPDEST PUSH1 0x1 PUSH1 0x5 DUP7 PUSH1 0x40 MLOAD PUSH2 0xBF7 SWAP2 SWAP1 PUSH2 0x1722 JUMP JUMPDEST SWAP1 DUP2 MSTORE PUSH1 0x20 ADD PUSH1 0x40 MLOAD DUP1 SWAP2 SUB SWAP1 KECCAK256 DUP9 DUP2 SLOAD DUP2 LT PUSH2 0xC16 JUMPI PUSH2 0xC16 PUSH2 0x173E JUMP JUMPDEST PUSH1 0x0 SWAP2 DUP3 MSTORE PUSH1 0x20 DUP3 KECCAK256 PUSH1 0x9 PUSH1 0xA SWAP1 SWAP3 MUL ADD ADD DUP1 SLOAD SWAP3 ISZERO ISZERO PUSH2 0x100 MUL PUSH2 0xFF00 NOT SWAP1 SWAP4 AND SWAP3 SWAP1 SWAP3 OR SWAP1 SWAP2 SSTORE PUSH1 0x3 SLOAD PUSH1 0x40 MLOAD PUSH4 0x6902622F PUSH1 0xE1 SHL DUP2 MSTORE PUSH1 0x1 PUSH1 0x1 PUSH1 0xA0 SHL SUB SWAP1 SWAP2 AND SWAP1 PUSH4 0xD204C45E SWAP1 PUSH2 0xC71 SWAP1 ADDRESS SWAP1 DUP10 SWAP1 PUSH1 0x4 ADD PUSH2 0x1931 JUMP JUMPDEST PUSH1 0x20 PUSH1 0x40 MLOAD DUP1 DUP4 SUB DUP2 PUSH1 0x0 DUP8 GAS CALL ISZERO DUP1 ISZERO PUSH2 0xC90 JUMPI RETURNDATASIZE PUSH1 0x0 DUP1 RETURNDATACOPY RETURNDATASIZE PUSH1 0x0 REVERT JUMPDEST POP POP POP POP PUSH1 0x40 MLOAD RETURNDATASIZE PUSH1 0x1F NOT PUSH1 0x1F DUP3 ADD AND DUP3 ADD DUP1 PUSH1 0x40 MSTORE POP DUP2 ADD SWAP1 PUSH2 0xCB4 SWAP2 SWAP1 PUSH2 0x1955 JUMP JUMPDEST PUSH1 0x0 SWAP8 DUP9 MSTORE PUSH1 0x4 PUSH1 0x20 MSTORE PUSH1 0x40 SWAP1 SWAP8 KECCAK256 SWAP7 SWAP1 SWAP7 SSTORE POP POP POP POP POP POP POP POP POP POP POP JUMP JUMPDEST DUP1 PUSH1 0x6 DUP2 PUSH1 0x40 MLOAD PUSH2 0xCE5 SWAP2 SWAP1 PUSH2 0x1722 JUMP JUMPDEST SWAP1 DUP2 MSTORE PUSH1 0x40 MLOAD SWAP1 DUP2 SWAP1 SUB PUSH1 0x20 ADD SWAP1 KECCAK256 SLOAD PUSH1 0xFF AND PUSH2 0xD14 JUMPI PUSH1 0x40 MLOAD PUSH3 0x461BCD PUSH1 0xE5 SHL DUP2 MSTORE PUSH1 0x4 ADD PUSH2 0x2CD SWAP1 PUSH2 0x1754 JUMP JUMPDEST PUSH1 0x0 PUSH1 0x6 DUP4 PUSH1 0x40 MLOAD PUSH2 0xD26 SWAP2 SWAP1 PUSH2 0x1722 JUMP JUMPDEST SWAP1 DUP2 MSTORE PUSH1 0x40 MLOAD SWAP1 DUP2 SWAP1 SUB PUSH1 0x20 ADD DUP2 KECCAK256 DUP1 SLOAD SWAP3 ISZERO ISZERO PUSH1 0xFF NOT SWAP1 SWAP4 AND SWAP3 SWAP1 SWAP3 OR SWAP1 SWAP2 SSTORE PUSH1 0x5 SWAP1 PUSH2 0xD55 SWAP1 DUP5 SWAP1 PUSH2 0x1722 JUMP JUMPDEST SWAP1 DUP2 MSTORE PUSH1 0x20 ADD PUSH1 0x40 MLOAD DUP1 SWAP2 SUB SWAP1 KECCAK256 PUSH1 0x0 PUSH2 0xD6F SWAP2 SWAP1 PUSH2 0xF3D JUMP JUMPDEST POP POP JUMP JUMPDEST DUP1 PUSH1 0x6 DUP2 PUSH1 0x40 MLOAD PUSH2 0xD84 SWAP2 SWAP1 PUSH2 0x1722 JUMP JUMPDEST SWAP1 DUP2 MSTORE PUSH1 0x40 MLOAD SWAP1 DUP2 SWAP1 SUB PUSH1 0x20 ADD SWAP1 KECCAK256 SLOAD PUSH1 0xFF AND ISZERO PUSH2 0xDE4 JUMPI PUSH1 0x40 MLOAD PUSH3 0x461BCD PUSH1 0xE5 SHL DUP2 MSTORE PUSH1 0x20 PUSH1 0x4 DUP3 ADD MSTORE PUSH1 0x1A PUSH1 0x24 DUP3 ADD MSTORE PUSH32 0x436F6D70616E7920616C72656164792072656769737465726564000000000000 PUSH1 0x44 DUP3 ADD MSTORE PUSH1 0x64 ADD PUSH2 0x2CD JUMP JUMPDEST PUSH1 0x1 PUSH1 0x6 DUP4 PUSH1 0x40 MLOAD PUSH2 0xDF6 SWAP2 SWAP1 PUSH2 0x1722 JUMP JUMPDEST SWAP1 DUP2 MSTORE PUSH1 0x40 MLOAD SWAP1 DUP2 SWAP1 SUB PUSH1 0x20 ADD SWAP1 KECCAK256 DUP1 SLOAD SWAP2 ISZERO ISZERO PUSH1 0xFF NOT SWAP1 SWAP3 AND SWAP2 SWAP1 SWAP2 OR SWAP1 SSTORE POP POP JUMP JUMPDEST PUSH2 0xE22 PUSH2 0xE93 JUMP JUMPDEST PUSH1 0x1 PUSH1 0x1 PUSH1 0xA0 SHL SUB DUP2 AND PUSH2 0xE87 JUMPI PUSH1 0x40 MLOAD PUSH3 0x461BCD PUSH1 0xE5 SHL DUP2 MSTORE PUSH1 0x20 PUSH1 0x4 DUP3 ADD MSTORE PUSH1 0x26 PUSH1 0x24 DUP3 ADD MSTORE PUSH32 0x4F776E61626C653A206E6577206F776E657220697320746865207A65726F2061 PUSH1 0x44 DUP3 ADD MSTORE PUSH6 0x646472657373 PUSH1 0xD0 SHL PUSH1 0x64 DUP3 ADD MSTORE PUSH1 0x84 ADD PUSH2 0x2CD JUMP JUMPDEST PUSH2 0xE90 DUP2 PUSH2 0xEED JUMP JUMPDEST POP JUMP JUMPDEST PUSH1 0x0 SLOAD PUSH1 0x1 PUSH1 0x1 PUSH1 0xA0 SHL SUB AND CALLER EQ PUSH2 0xAB7 JUMPI PUSH1 0x40 MLOAD PUSH3 0x461BCD PUSH1 0xE5 SHL DUP2 MSTORE PUSH1 0x20 PUSH1 0x4 DUP3 ADD DUP2 SWAP1 MSTORE PUSH1 0x24 DUP3 ADD MSTORE PUSH32 0x4F776E61626C653A2063616C6C6572206973206E6F7420746865206F776E6572 PUSH1 0x44 DUP3 ADD MSTORE PUSH1 0x64 ADD PUSH2 0x2CD JUMP JUMPDEST PUSH1 0x0 DUP1 SLOAD PUSH1 0x1 PUSH1 0x1 PUSH1 0xA0 SHL SUB DUP4 DUP2 AND PUSH1 0x1 PUSH1 0x1 PUSH1 0xA0 SHL SUB NOT DUP4 AND DUP2 OR DUP5 SSTORE PUSH1 0x40 MLOAD SWAP2 SWAP1 SWAP3 AND SWAP3 DUP4 SWAP2 PUSH32 0x8BE0079C531659141344CD1FD0A4F28419497F9722A3DAAFE3B4186F6B6457E0 SWAP2 SWAP1 LOG3 POP POP JUMP JUMPDEST POP DUP1 SLOAD PUSH1 0x0 DUP3 SSTORE PUSH1 0xA MUL SWAP1 PUSH1 0x0 MSTORE PUSH1 0x20 PUSH1 0x0 KECCAK256 SWAP1 DUP2 ADD SWAP1 PUSH2 0xE90 SWAP2 SWAP1 JUMPDEST DUP1 DUP3 GT ISZERO PUSH2 0xFDC JUMPI PUSH1 0x0 DUP1 DUP3 SSTORE PUSH2 0xF74 PUSH1 0x1 DUP4 ADD DUP3 PUSH2 0xFE0 JUMP JUMPDEST PUSH2 0xF82 PUSH1 0x2 DUP4 ADD PUSH1 0x0 PUSH2 0xFE0 JUMP JUMPDEST PUSH1 0x3 DUP3 ADD DUP1 SLOAD PUSH1 0xFF NOT AND SWAP1 SSTORE PUSH2 0xF9C PUSH1 0x4 DUP4 ADD PUSH1 0x0 PUSH2 0xFE0 JUMP JUMPDEST PUSH1 0x5 DUP3 ADD DUP1 SLOAD PUSH1 0xFF NOT AND SWAP1 SSTORE PUSH1 0x0 PUSH1 0x6 DUP4 ADD DUP2 SWAP1 SSTORE PUSH2 0xFBF SWAP1 PUSH1 0x7 DUP5 ADD SWAP1 PUSH2 0xFE0 JUMP JUMPDEST POP PUSH1 0x0 PUSH1 0x8 DUP3 ADD SSTORE PUSH1 0x9 DUP2 ADD DUP1 SLOAD PUSH2 0xFFFF NOT AND SWAP1 SSTORE PUSH1 0xA ADD PUSH2 0xF5A JUMP JUMPDEST POP SWAP1 JUMP JUMPDEST POP DUP1 SLOAD PUSH2 0xFEC SWAP1 PUSH2 0x17C6 JUMP JUMPDEST PUSH1 0x0 DUP3 SSTORE DUP1 PUSH1 0x1F LT PUSH2 0xFFC JUMPI POP POP JUMP JUMPDEST PUSH1 0x1F ADD PUSH1 0x20 SWAP1 DIV SWAP1 PUSH1 0x0 MSTORE PUSH1 0x20 PUSH1 0x0 KECCAK256 SWAP1 DUP2 ADD SWAP1 PUSH2 0xE90 SWAP2 SWAP1 JUMPDEST DUP1 DUP3 GT ISZERO PUSH2 0xFDC JUMPI PUSH1 0x0 DUP2 SSTORE PUSH1 0x1 ADD PUSH2 0x1016 JUMP JUMPDEST PUSH4 0x4E487B71 PUSH1 0xE0 SHL PUSH1 0x0 MSTORE PUSH1 0x41 PUSH1 0x4 MSTORE PUSH1 0x24 PUSH1 0x0 REVERT JUMPDEST PUSH1 0x0 DUP3 PUSH1 0x1F DUP4 ADD SLT PUSH2 0x1051 JUMPI PUSH1 0x0 DUP1 REVERT JUMPDEST DUP2 CALLDATALOAD PUSH8 0xFFFFFFFFFFFFFFFF DUP1 DUP3 GT ISZERO PUSH2 0x106C JUMPI PUSH2 0x106C PUSH2 0x102A JUMP JUMPDEST PUSH1 0x40 MLOAD PUSH1 0x1F DUP4 ADD PUSH1 0x1F NOT SWAP1 DUP2 AND PUSH1 0x3F ADD AND DUP2 ADD SWAP1 DUP3 DUP3 GT DUP2 DUP4 LT OR ISZERO PUSH2 0x1094 JUMPI PUSH2 0x1094 PUSH2 0x102A JUMP JUMPDEST DUP2 PUSH1 0x40 MSTORE DUP4 DUP2 MSTORE DUP7 PUSH1 0x20 DUP6 DUP9 ADD ADD GT ISZERO PUSH2 0x10AD JUMPI PUSH1 0x0 DUP1 REVERT JUMPDEST DUP4 PUSH1 0x20 DUP8 ADD PUSH1 0x20 DUP4 ADD CALLDATACOPY PUSH1 0x0 PUSH1 0x20 DUP6 DUP4 ADD ADD MSTORE DUP1 SWAP5 POP POP POP POP POP SWAP3 SWAP2 POP POP JUMP JUMPDEST PUSH1 0x0 DUP1 PUSH1 0x0 PUSH1 0x60 DUP5 DUP7 SUB SLT ISZERO PUSH2 0x10E2 JUMPI PUSH1 0x0 DUP1 REVERT JUMPDEST DUP4 CALLDATALOAD PUSH8 0xFFFFFFFFFFFFFFFF DUP2 GT ISZERO PUSH2 0x10F9 JUMPI PUSH1 0x0 DUP1 REVERT JUMPDEST PUSH2 0x1105 DUP7 DUP3 DUP8 ADD PUSH2 0x1040 JUMP JUMPDEST SWAP7 PUSH1 0x20 DUP7 ADD CALLDATALOAD SWAP7 POP PUSH1 0x40 SWAP1 SWAP6 ADD CALLDATALOAD SWAP5 SWAP4 POP POP POP POP JUMP JUMPDEST DUP1 CALLDATALOAD PUSH1 0x1 PUSH1 0x1 PUSH1 0xA0 SHL SUB DUP2 AND DUP2 EQ PUSH2 0x1132 JUMPI PUSH1 0x0 DUP1 REVERT JUMPDEST SWAP2 SWAP1 POP JUMP JUMPDEST PUSH1 0x0 DUP1 PUSH1 0x0 DUP1 PUSH1 0x0 PUSH1 0x80 DUP7 DUP9 SUB SLT ISZERO PUSH2 0x114F JUMPI PUSH1 0x0 DUP1 REVERT JUMPDEST PUSH2 0x1158 DUP7 PUSH2 0x111B JUMP JUMPDEST SWAP5 POP PUSH2 0x1166 PUSH1 0x20 DUP8 ADD PUSH2 0x111B JUMP JUMPDEST SWAP4 POP PUSH1 0x40 DUP7 ADD CALLDATALOAD SWAP3 POP PUSH1 0x60 DUP7 ADD CALLDATALOAD PUSH8 0xFFFFFFFFFFFFFFFF DUP1 DUP3 GT ISZERO PUSH2 0x118A JUMPI PUSH1 0x0 DUP1 REVERT JUMPDEST DUP2 DUP9 ADD SWAP2 POP DUP9 PUSH1 0x1F DUP4 ADD SLT PUSH2 0x119E JUMPI PUSH1 0x0 DUP1 REVERT JUMPDEST DUP2 CALLDATALOAD DUP2 DUP2 GT ISZERO PUSH2 0x11AD JUMPI PUSH1 0x0 DUP1 REVERT JUMPDEST DUP10 PUSH1 0x20 DUP3 DUP6 ADD ADD GT ISZERO PUSH2 0x11BF JUMPI PUSH1 0x0 DUP1 REVERT JUMPDEST SWAP7 SWAP10 SWAP6 SWAP9 POP SWAP4 SWAP7 POP PUSH1 0x20 ADD SWAP5 SWAP4 SWAP3 POP POP POP JUMP JUMPDEST PUSH1 0x0 DUP1 PUSH1 0x0 DUP1 PUSH1 0x80 DUP6 DUP8 SUB SLT ISZERO PUSH2 0x11E8 JUMPI PUSH1 0x0 DUP1 REVERT JUMPDEST DUP5 CALLDATALOAD SWAP4 POP PUSH1 0x20 DUP6 ADD CALLDATALOAD SWAP3 POP PUSH1 0x40 DUP6 ADD CALLDATALOAD SWAP2 POP PUSH1 0x60 DUP6 ADD CALLDATALOAD PUSH8 0xFFFFFFFFFFFFFFFF DUP2 GT ISZERO PUSH2 0x1214 JUMPI PUSH1 0x0 DUP1 REVERT JUMPDEST PUSH2 0x1220 DUP8 DUP3 DUP9 ADD PUSH2 0x1040 JUMP JUMPDEST SWAP2 POP POP SWAP3 SWAP6 SWAP2 SWAP5 POP SWAP3 POP JUMP JUMPDEST PUSH1 0x0 DUP1 PUSH1 0x0 DUP1 PUSH1 0x0 DUP1 PUSH1 0x0 PUSH1 0xE0 DUP9 DUP11 SUB SLT ISZERO PUSH2 0x1247 JUMPI PUSH1 0x0 DUP1 REVERT JUMPDEST DUP8 CALLDATALOAD SWAP7 POP PUSH1 0x20 DUP9 ADD CALLDATALOAD SWAP6 POP PUSH1 0x40 DUP9 ADD CALLDATALOAD SWAP5 POP PUSH1 0x60 DUP9 ADD CALLDATALOAD SWAP4 POP PUSH1 0x80 DUP9 ADD CALLDATALOAD SWAP3 POP PUSH1 0xA0 DUP9 ADD CALLDATALOAD SWAP2 POP PUSH1 0xC0 DUP9 ADD CALLDATALOAD PUSH8 0xFFFFFFFFFFFFFFFF DUP2 GT ISZERO PUSH2 0x1288 JUMPI PUSH1 0x0 DUP1 REVERT JUMPDEST PUSH2 0x1294 DUP11 DUP3 DUP12 ADD PUSH2 0x1040 JUMP JUMPDEST SWAP2 POP POP SWAP3 SWAP6 SWAP9 SWAP2 SWAP5 SWAP8 POP SWAP3 SWAP6 POP JUMP JUMPDEST PUSH1 0x0 DUP1 PUSH1 0x0 PUSH1 0x60 DUP5 DUP7 SUB SLT ISZERO PUSH2 0x12B8 JUMPI PUSH1 0x0 DUP1 REVERT JUMPDEST DUP4 CALLDATALOAD SWAP3 POP PUSH1 0x20 DUP5 ADD CALLDATALOAD SWAP2 POP PUSH1 0x40 DUP5 ADD CALLDATALOAD PUSH8 0xFFFFFFFFFFFFFFFF DUP2 GT ISZERO PUSH2 0x12DD JUMPI PUSH1 0x0 DUP1 REVERT JUMPDEST PUSH2 0x12E9 DUP7 DUP3 DUP8 ADD PUSH2 0x1040 JUMP JUMPDEST SWAP2 POP POP SWAP3 POP SWAP3 POP SWAP3 JUMP JUMPDEST PUSH1 0x0 PUSH1 0x20 DUP3 DUP5 SUB SLT ISZERO PUSH2 0x1305 JUMPI PUSH1 0x0 DUP1 REVERT JUMPDEST DUP2 CALLDATALOAD PUSH8 0xFFFFFFFFFFFFFFFF DUP2 GT ISZERO PUSH2 0x131C JUMPI PUSH1 0x0 DUP1 REVERT JUMPDEST PUSH2 0x1328 DUP5 DUP3 DUP6 ADD PUSH2 0x1040 JUMP JUMPDEST SWAP5 SWAP4 POP POP POP POP JUMP JUMPDEST PUSH1 0x0 JUMPDEST DUP4 DUP2 LT ISZERO PUSH2 0x134B JUMPI DUP2 DUP2 ADD MLOAD DUP4 DUP3 ADD MSTORE PUSH1 0x20 ADD PUSH2 0x1333 JUMP JUMPDEST POP POP PUSH1 0x0 SWAP2 ADD MSTORE JUMP JUMPDEST PUSH1 0x0 DUP2 MLOAD DUP1 DUP5 MSTORE PUSH2 0x136C DUP2 PUSH1 0x20 DUP7 ADD PUSH1 0x20 DUP7 ADD PUSH2 0x1330 JUMP JUMPDEST PUSH1 0x1F ADD PUSH1 0x1F NOT AND SWAP3 SWAP1 SWAP3 ADD PUSH1 0x20 ADD SWAP3 SWAP2 POP POP JUMP JUMPDEST PUSH4 0x4E487B71 PUSH1 0xE0 SHL PUSH1 0x0 MSTORE PUSH1 0x21 PUSH1 0x4 MSTORE PUSH1 0x24 PUSH1 0x0 REVERT JUMPDEST PUSH1 0x3 DUP2 LT PUSH2 0x13A6 JUMPI PUSH2 0x13A6 PUSH2 0x1380 JUMP JUMPDEST SWAP1 MSTORE JUMP JUMPDEST PUSH1 0x2 DUP2 LT PUSH2 0x13A6 JUMPI PUSH2 0x13A6 PUSH2 0x1380 JUMP JUMPDEST PUSH1 0x0 PUSH1 0x20 DUP1 DUP4 ADD DUP2 DUP5 MSTORE DUP1 DUP6 MLOAD DUP1 DUP4 MSTORE PUSH1 0x40 SWAP3 POP DUP3 DUP7 ADD SWAP2 POP DUP3 DUP2 PUSH1 0x5 SHL DUP8 ADD ADD DUP5 DUP9 ADD PUSH1 0x0 JUMPDEST DUP4 DUP2 LT ISZERO PUSH2 0x14D6 JUMPI PUSH1 0x3F NOT DUP10 DUP5 SUB ADD DUP6 MSTORE DUP2 MLOAD PUSH2 0x160 DUP2 MLOAD DUP6 MSTORE DUP9 DUP3 ADD MLOAD DUP2 DUP11 DUP8 ADD MSTORE PUSH2 0x1410 DUP3 DUP8 ADD DUP3 PUSH2 0x1354 JUMP JUMPDEST SWAP2 POP POP DUP8 DUP3 ADD MLOAD DUP6 DUP3 SUB DUP10 DUP8 ADD MSTORE PUSH2 0x1428 DUP3 DUP3 PUSH2 0x1354 JUMP JUMPDEST SWAP2 POP POP PUSH1 0x60 DUP1 DUP4 ADD MLOAD PUSH2 0x143D DUP3 DUP9 ADD DUP3 PUSH2 0x1396 JUMP JUMPDEST POP POP PUSH1 0x80 DUP1 DUP4 ADD MLOAD DUP7 DUP4 SUB DUP3 DUP9 ADD MSTORE PUSH2 0x1456 DUP4 DUP3 PUSH2 0x1354 JUMP JUMPDEST SWAP3 POP POP POP PUSH1 0xA0 DUP1 DUP4 ADD MLOAD PUSH2 0x146D DUP3 DUP9 ADD DUP3 ISZERO ISZERO SWAP1 MSTORE JUMP JUMPDEST POP POP PUSH1 0xC0 DUP3 DUP2 ADD MLOAD SWAP1 DUP7 ADD MSTORE PUSH1 0xE0 DUP1 DUP4 ADD MLOAD DUP7 DUP4 SUB DUP3 DUP9 ADD MSTORE PUSH2 0x1490 DUP4 DUP3 PUSH2 0x1354 JUMP JUMPDEST SWAP3 POP POP POP PUSH2 0x100 DUP1 DUP4 ADD MLOAD DUP2 DUP8 ADD MSTORE POP PUSH2 0x120 DUP1 DUP4 ADD MLOAD PUSH2 0x14B3 DUP3 DUP9 ADD DUP3 PUSH2 0x13AA JUMP JUMPDEST POP POP PUSH2 0x140 SWAP2 DUP3 ADD MLOAD ISZERO ISZERO SWAP5 SWAP1 SWAP2 ADD SWAP4 SWAP1 SWAP4 MSTORE SWAP4 DUP7 ADD SWAP4 SWAP1 DUP7 ADD SWAP1 PUSH1 0x1 ADD PUSH2 0x13E1 JUMP JUMPDEST POP SWAP1 SWAP9 SWAP8 POP POP POP POP POP POP POP POP JUMP JUMPDEST DUP1 CALLDATALOAD PUSH1 0x3 DUP2 LT PUSH2 0x1132 JUMPI PUSH1 0x0 DUP1 REVERT JUMPDEST DUP1 CALLDATALOAD DUP1 ISZERO ISZERO DUP2 EQ PUSH2 0x1132 JUMPI PUSH1 0x0 DUP1 REVERT JUMPDEST DUP1 CALLDATALOAD PUSH1 0x2 DUP2 LT PUSH2 0x1132 JUMPI PUSH1 0x0 DUP1 REVERT JUMPDEST PUSH1 0x0 DUP1 PUSH1 0x0 DUP1 PUSH1 0x0 DUP1 PUSH1 0x0 DUP1 PUSH1 0x0 DUP1 PUSH1 0x0 PUSH2 0x160 DUP13 DUP15 SUB SLT ISZERO PUSH2 0x1534 JUMPI PUSH1 0x0 DUP1 REVERT JUMPDEST PUSH8 0xFFFFFFFFFFFFFFFF DUP1 DUP14 CALLDATALOAD GT ISZERO PUSH2 0x154B JUMPI PUSH1 0x0 DUP1 REVERT JUMPDEST PUSH2 0x1558 DUP15 DUP15 CALLDATALOAD DUP16 ADD PUSH2 0x1040 JUMP JUMPDEST SWAP12 POP PUSH1 0x20 DUP14 ADD CALLDATALOAD SWAP11 POP DUP1 PUSH1 0x40 DUP15 ADD CALLDATALOAD GT ISZERO PUSH2 0x1572 JUMPI PUSH1 0x0 DUP1 REVERT JUMPDEST PUSH2 0x1582 DUP15 PUSH1 0x40 DUP16 ADD CALLDATALOAD DUP16 ADD PUSH2 0x1040 JUMP JUMPDEST SWAP10 POP DUP1 PUSH1 0x60 DUP15 ADD CALLDATALOAD GT ISZERO PUSH2 0x1595 JUMPI PUSH1 0x0 DUP1 REVERT JUMPDEST PUSH2 0x15A5 DUP15 PUSH1 0x60 DUP16 ADD CALLDATALOAD DUP16 ADD PUSH2 0x1040 JUMP JUMPDEST SWAP9 POP PUSH2 0x15B3 PUSH1 0x80 DUP15 ADD PUSH2 0x14E4 JUMP JUMPDEST SWAP8 POP DUP1 PUSH1 0xA0 DUP15 ADD CALLDATALOAD GT ISZERO PUSH2 0x15C6 JUMPI PUSH1 0x0 DUP1 REVERT JUMPDEST PUSH2 0x15D6 DUP15 PUSH1 0xA0 DUP16 ADD CALLDATALOAD DUP16 ADD PUSH2 0x1040 JUMP JUMPDEST SWAP7 POP PUSH2 0x15E4 PUSH1 0xC0 DUP15 ADD PUSH2 0x14F3 JUMP JUMPDEST SWAP6 POP PUSH1 0xE0 DUP14 ADD CALLDATALOAD SWAP5 POP DUP1 PUSH2 0x100 DUP15 ADD CALLDATALOAD GT ISZERO PUSH2 0x15FF JUMPI PUSH1 0x0 DUP1 REVERT JUMPDEST POP PUSH2 0x1611 DUP14 PUSH2 0x100 DUP15 ADD CALLDATALOAD DUP15 ADD PUSH2 0x1040 JUMP JUMPDEST SWAP3 POP PUSH2 0x120 DUP13 ADD CALLDATALOAD SWAP2 POP PUSH2 0x1628 PUSH2 0x140 DUP14 ADD PUSH2 0x1503 JUMP JUMPDEST SWAP1 POP SWAP3 SWAP6 SWAP9 SWAP12 POP SWAP3 SWAP6 SWAP9 SWAP12 SWAP1 SWAP4 SWAP7 SWAP10 POP JUMP JUMPDEST PUSH1 0x0 DUP1 PUSH1 0x0 DUP1 PUSH1 0x0 DUP1 PUSH1 0x0 DUP1 PUSH2 0x100 DUP10 DUP12 SUB SLT ISZERO PUSH2 0x1657 JUMPI PUSH1 0x0 DUP1 REVERT JUMPDEST DUP9 CALLDATALOAD SWAP8 POP PUSH1 0x20 DUP10 ADD CALLDATALOAD PUSH1 0xFF DUP2 AND DUP2 EQ PUSH2 0x166F JUMPI PUSH1 0x0 DUP1 REVERT JUMPDEST SWAP7 POP PUSH1 0x40 DUP10 ADD CALLDATALOAD SWAP6 POP PUSH1 0x60 DUP10 ADD CALLDATALOAD SWAP5 POP PUSH1 0x80 DUP10 ADD CALLDATALOAD SWAP4 POP PUSH1 0xA0 DUP10 ADD CALLDATALOAD SWAP3 POP PUSH1 0xC0 DUP10 ADD CALLDATALOAD PUSH8 0xFFFFFFFFFFFFFFFF DUP1 DUP3 GT ISZERO PUSH2 0x16A8 JUMPI PUSH1 0x0 DUP1 REVERT JUMPDEST PUSH2 0x16B4 DUP13 DUP4 DUP14 ADD PUSH2 0x1040 JUMP JUMPDEST SWAP4 POP PUSH1 0xE0 DUP12 ADD CALLDATALOAD SWAP2 POP DUP1 DUP3 GT ISZERO PUSH2 0x16CA JUMPI PUSH1 0x0 DUP1 REVERT JUMPDEST POP PUSH2 0x16D7 DUP12 DUP3 DUP13 ADD PUSH2 0x1040 JUMP JUMPDEST SWAP2 POP POP SWAP3 SWAP6 SWAP9 POP SWAP3 SWAP6 SWAP9 SWAP1 SWAP4 SWAP7 POP JUMP JUMPDEST PUSH1 0x0 PUSH1 0x20 DUP3 DUP5 SUB SLT ISZERO PUSH2 0x16F9 JUMPI PUSH1 0x0 DUP1 REVERT JUMPDEST POP CALLDATALOAD SWAP2 SWAP1 POP JUMP JUMPDEST PUSH1 0x0 PUSH1 0x20 DUP3 DUP5 SUB SLT ISZERO PUSH2 0x1712 JUMPI PUSH1 0x0 DUP1 REVERT JUMPDEST PUSH2 0x171B DUP3 PUSH2 0x111B JUMP JUMPDEST SWAP4 SWAP3 POP POP POP JUMP JUMPDEST PUSH1 0x0 DUP3 MLOAD PUSH2 0x1734 DUP2 DUP5 PUSH1 0x20 DUP8 ADD PUSH2 0x1330 JUMP JUMPDEST SWAP2 SWAP1 SWAP2 ADD SWAP3 SWAP2 POP POP JUMP JUMPDEST PUSH4 0x4E487B71 PUSH1 0xE0 SHL PUSH1 0x0 MSTORE PUSH1 0x32 PUSH1 0x4 MSTORE PUSH1 0x24 PUSH1 0x0 REVERT JUMPDEST PUSH1 0x20 DUP1 DUP3 MSTORE PUSH1 0x16 SWAP1 DUP3 ADD MSTORE PUSH22 0x10DBDB5C185B9E481B9BDD081C9959DA5CDD195C9959 PUSH1 0x52 SHL PUSH1 0x40 DUP3 ADD MSTORE PUSH1 0x60 ADD SWAP1 JUMP JUMPDEST PUSH4 0x4E487B71 PUSH1 0xE0 SHL PUSH1 0x0 MSTORE PUSH1 0x11 PUSH1 0x4 MSTORE PUSH1 0x24 PUSH1 0x0 REVERT JUMPDEST DUP2 DUP2 SUB DUP2 DUP2 GT ISZERO PUSH2 0x17AD JUMPI PUSH2 0x17AD PUSH2 0x1784 JUMP JUMPDEST SWAP3 SWAP2 POP POP JUMP JUMPDEST DUP1 DUP3 ADD DUP1 DUP3 GT ISZERO PUSH2 0x17AD JUMPI PUSH2 0x17AD PUSH2 0x1784 JUMP JUMPDEST PUSH1 0x1 DUP2 DUP2 SHR SWAP1 DUP3 AND DUP1 PUSH2 0x17DA JUMPI PUSH1 0x7F DUP3 AND SWAP2 POP JUMPDEST PUSH1 0x20 DUP3 LT DUP2 SUB PUSH2 0x17FA JUMPI PUSH4 0x4E487B71 PUSH1 0xE0 SHL PUSH1 0x0 MSTORE PUSH1 0x22 PUSH1 0x4 MSTORE PUSH1 0x24 PUSH1 0x0 REVERT JUMPDEST POP SWAP2 SWAP1 POP JUMP JUMPDEST PUSH1 0x1F DUP3 GT ISZERO PUSH2 0x184A JUMPI PUSH1 0x0 DUP2 DUP2 MSTORE PUSH1 0x20 DUP2 KECCAK256 PUSH1 0x1F DUP6 ADD PUSH1 0x5 SHR DUP2 ADD PUSH1 0x20 DUP7 LT ISZERO PUSH2 0x1827 JUMPI POP DUP1 JUMPDEST PUSH1 0x1F DUP6 ADD PUSH1 0x5 SHR DUP3 ADD SWAP2 POP JUMPDEST DUP2 DUP2 LT ISZERO PUSH2 0x1846 JUMPI DUP3 DUP2 SSTORE PUSH1 0x1 ADD PUSH2 0x1833 JUMP JUMPDEST POP POP POP JUMPDEST POP POP POP JUMP JUMPDEST DUP2 MLOAD PUSH8 0xFFFFFFFFFFFFFFFF DUP2 GT ISZERO PUSH2 0x1869 JUMPI PUSH2 0x1869 PUSH2 0x102A JUMP JUMPDEST PUSH2 0x187D DUP2 PUSH2 0x1877 DUP5 SLOAD PUSH2 0x17C6 JUMP JUMPDEST DUP5 PUSH2 0x1800 JUMP JUMPDEST PUSH1 0x20 DUP1 PUSH1 0x1F DUP4 GT PUSH1 0x1 DUP2 EQ PUSH2 0x18B2 JUMPI PUSH1 0x0 DUP5 ISZERO PUSH2 0x189A JUMPI POP DUP6 DUP4 ADD MLOAD JUMPDEST PUSH1 0x0 NOT PUSH1 0x3 DUP7 SWAP1 SHL SHR NOT AND PUSH1 0x1 DUP6 SWAP1 SHL OR DUP6 SSTORE PUSH2 0x1846 JUMP JUMPDEST PUSH1 0x0 DUP6 DUP2 MSTORE PUSH1 0x20 DUP2 KECCAK256 PUSH1 0x1F NOT DUP7 AND SWAP2 JUMPDEST DUP3 DUP2 LT ISZERO PUSH2 0x18E1 JUMPI DUP9 DUP7 ADD MLOAD DUP3 SSTORE SWAP5 DUP5 ADD SWAP5 PUSH1 0x1 SWAP1 SWAP2 ADD SWAP1 DUP5 ADD PUSH2 0x18C2 JUMP JUMPDEST POP DUP6 DUP3 LT ISZERO PUSH2 0x18FF JUMPI DUP8 DUP6 ADD MLOAD PUSH1 0x0 NOT PUSH1 0x3 DUP9 SWAP1 SHL PUSH1 0xF8 AND SHR NOT AND DUP2 SSTORE JUMPDEST POP POP POP POP POP PUSH1 0x1 SWAP1 DUP2 SHL ADD SWAP1 SSTORE POP JUMP JUMPDEST PUSH1 0x0 DUP4 MLOAD PUSH2 0x1921 DUP2 DUP5 PUSH1 0x20 DUP9 ADD PUSH2 0x1330 JUMP JUMPDEST SWAP2 SWAP1 SWAP2 ADD SWAP2 DUP3 MSTORE POP PUSH1 0x20 ADD SWAP2 SWAP1 POP JUMP JUMPDEST PUSH1 0x1 PUSH1 0x1 PUSH1 0xA0 SHL SUB DUP4 AND DUP2 MSTORE PUSH1 0x40 PUSH1 0x20 DUP3 ADD DUP2 SWAP1 MSTORE PUSH1 0x0 SWAP1 PUSH2 0x1328 SWAP1 DUP4 ADD DUP5 PUSH2 0x1354 JUMP JUMPDEST PUSH1 0x0 PUSH1 0x20 DUP3 DUP5 SUB SLT ISZERO PUSH2 0x1967 JUMPI PUSH1 0x0 DUP1 REVERT JUMPDEST POP MLOAD SWAP2 SWAP1 POP JUMP INVALID LOG2 PUSH5 0x6970667358 0x22 SLT KECCAK256 0xE1 0xC5 0x21 PUSH17 0xA3F3F64EA6F82243F0075366BA165E4BB2 RETURNDATASIZE PUSH2 0x432E OR 0xF9 PUSH30 0xAC478CA464736F6C63430008110033000000000000000000000000000000 "},"methodIdentifiers":{"addCompany(string)":"d6483d17","addProduct(string,uint256,string,string,uint8,string,bool,uint256,string,uint256,uint8)":"6f177325","addSupply(uint256,uint256,uint256,uint256,uint256,uint256,string)":"2da129c8","approveProduct(bytes32,uint8,bytes32,bytes32,uint256,uint256,string,string)":"80349970","chcekProductID(string,uint256,uint256)":"0f1f31ac","disapproveCompany(string)":"9addf188","getAllProducts(string)":"5ff65d94","onERC721Received(address,address,uint256,bytes)":"150b7a02","owner()":"8da5cb5b","removeProduct(uint256,uint256,string)":"3b219252","removeSupply(uint256,uint256,uint256,string)":"2c2e3e46","renounceOwnership()":"715018a6","transferOwnership(address)":"f2fde38b","verifyProductCertificate(uint256)":"9d53b949"}}}}}