{"contracts/Flowex.sol":{"Flowex":{"abi":[{"inputs":[{"internalType":"address","name":"_nftContractAddress","type":"address"},{"internalType":"address","name":"_qaAddress","type":"address"}],"stateMutability":"nonpayable","type":"constructor"},{"anonymous":false,"inputs":[{"indexed":false,"internalType":"uint256","name":"amount","type":"uint256"},{"indexed":false,"internalType":"uint256","name":"timestamp","type":"uint256"},{"indexed":false,"internalType":"uint256","name":"latitude","type":"uint256"},{"indexed":false,"internalType":"uint256","name":"longitude","type":"uint256"}],"name":"AddSupply","type":"event"},{"anonymous":false,"inputs":[{"indexed":true,"internalType":"address","name":"previousOwner","type":"address"},{"indexed":true,"internalType":"address","name":"newOwner","type":"address"}],"name":"OwnershipTransferred","type":"event"},{"anonymous":false,"inputs":[{"indexed":false,"internalType":"uint256","name":"amount","type":"uint256"},{"indexed":false,"internalType":"uint256","name":"timestamp","type":"uint256"}],"name":"RemoveSupply","type":"event"},{"inputs":[{"internalType":"string","name":"companyName","type":"string"}],"name":"addCompany","outputs":[],"stateMutability":"nonpayable","type":"function"},{"inputs":[{"internalType":"string","name":"_companyName","type":"string"},{"internalType":"uint256","name":"_productID","type":"uint256"},{"internalType":"string","name":"_treeType","type":"string"},{"internalType":"string","name":"_location","type":"string"},{"internalType":"enum Flowex.WoodType","name":"_woodType","type":"uint8"},{"internalType":"string","name":"_colour","type":"string"},{"internalType":"bool","name":"_isRaw","type":"bool"},{"internalType":"uint256","name":"_pricePerUnit","type":"uint256"},{"internalType":"string","name":"_photo","type":"string"},{"internalType":"uint256","name":"_amount","type":"uint256"},{"internalType":"enum Flowex.Unit","name":"_unit","type":"uint8"}],"name":"addProdcut","outputs":[],"stateMutability":"nonpayable","type":"function"},{"inputs":[{"internalType":"uint256","name":"amount","type":"uint256"},{"internalType":"uint256","name":"timestamp","type":"uint256"},{"internalType":"uint256","name":"latitude","type":"uint256"},{"internalType":"uint256","name":"longitude","type":"uint256"},{"internalType":"uint256","name":"productIndex","type":"uint256"},{"internalType":"uint256","name":"productID","type":"uint256"},{"internalType":"string","name":"companyName","type":"string"}],"name":"addSupply","outputs":[],"stateMutability":"nonpayable","type":"function"},{"inputs":[{"internalType":"bytes32","name":"_hashedMessage","type":"bytes32"},{"internalType":"uint8","name":"_v","type":"uint8"},{"internalType":"bytes32","name":"_r","type":"bytes32"},{"internalType":"bytes32","name":"_s","type":"bytes32"},{"internalType":"uint256","name":"productIndex","type":"uint256"},{"internalType":"uint256","name":"productID","type":"uint256"},{"internalType":"string","name":"companyName","type":"string"},{"internalType":"string","name":"baseURI","type":"string"}],"name":"approveProduct","outputs":[],"stateMutability":"nonpayable","type":"function"},{"inputs":[{"internalType":"string","name":"companyName","type":"string"}],"name":"disapproveCompany","outputs":[],"stateMutability":"nonpayable","type":"function"},{"inputs":[{"internalType":"string","name":"companyName","type":"string"}],"name":"getAllProducts","outputs":[{"components":[{"internalType":"uint256","name":"productID","type":"uint256"},{"internalType":"string","name":"treeType","type":"string"},{"internalType":"string","name":"location","type":"string"},{"internalType":"enum Flowex.WoodType","name":"woodType","type":"uint8"},{"internalType":"string","name":"colour","type":"string"},{"internalType":"bool","name":"isRaw","type":"bool"},{"internalType":"uint256","name":"pricePerUnit","type":"uint256"},{"internalType":"string","name":"photo","type":"string"},{"internalType":"uint256","name":"amount","type":"uint256"},{"internalType":"enum Flowex.Unit","name":"unit","type":"uint8"},{"internalType":"bool","name":"approved","type":"bool"}],"internalType":"struct Flowex.Product[]","name":"","type":"tuple[]"}],"stateMutability":"view","type":"function"},{"inputs":[],"name":"owner","outputs":[{"internalType":"address","name":"","type":"address"}],"stateMutability":"view","type":"function"},{"inputs":[{"internalType":"uint256","name":"productIndex","type":"uint256"},{"internalType":"uint256","name":"productID","type":"uint256"},{"internalType":"string","name":"companyName","type":"string"}],"name":"removeProduct","outputs":[],"stateMutability":"nonpayable","type":"function"},{"inputs":[{"internalType":"uint256","name":"amount","type":"uint256"},{"internalType":"uint256","name":"productIndex","type":"uint256"},{"internalType":"uint256","name":"productID","type":"uint256"},{"internalType":"string","name":"companyName","type":"string"}],"name":"removeSupply","outputs":[],"stateMutability":"nonpayable","type":"function"},{"inputs":[],"name":"renounceOwnership","outputs":[],"stateMutability":"nonpayable","type":"function"},{"inputs":[{"internalType":"address","name":"newOwner","type":"address"}],"name":"transferOwnership","outputs":[],"stateMutability":"nonpayable","type":"function"},{"inputs":[{"internalType":"uint256","name":"productId","type":"uint256"}],"name":"verifyProductCertificate","outputs":[{"internalType":"uint256","name":"","type":"uint256"}],"stateMutability":"view","type":"function"}],"evm":{"bytecode":{"linkReferences":{},"object":"60806040523480156200001157600080fd5b50604051620019c5380380620019c5833981016040819052620000349162000144565b6200003f33620000d7565b600380546001600160a01b0319166001600160a01b0384169081179091556040805163eb83627360e01b8152905163eb8362739160048082019260009290919082900301818387803b1580156200009557600080fd5b505af1158015620000aa573d6000803e3d6000fd5b5050600280546001600160a01b0319166001600160a01b039490941693909317909255506200017c915050565b600080546001600160a01b038381166001600160a01b0319831681178455604051919092169283917f8be0079c531659141344cd1fd0a4f28419497f9722a3daafe3b4186f6b6457e09190a35050565b80516001600160a01b03811681146200013f57600080fd5b919050565b600080604083850312156200015857600080fd5b620001638362000127565b9150620001736020840162000127565b90509250929050565b611839806200018c6000396000f3fe608060405234801561001057600080fd5b50600436106100b45760003560e01c8063803499701161007157806380349970146101385780638da5cb5b1461014b5780639addf188146101665780639d53b94914610179578063d6483d17146101a7578063f2fde38b146101ba57600080fd5b80632c2e3e46146100b95780632da129c8146100ce5780633b219252146100e15780635ff65d94146100f45780636f67f1581461011d578063715018a614610130575b600080fd5b6100cc6100c7366004611054565b6101cd565b005b6100cc6100dc3660046110ae565b6102bd565b6100cc6100ef366004611125565b6103b7565b610107610102366004611175565b61043a565b604051610114919061123c565b60405180910390f35b6100cc61012b366004611399565b6107ad565b6100cc6109a5565b6100cc6101463660046114c1565b6109b9565b6000546040516001600160a01b039091168152602001610114565b6100cc610174366004611175565b610bd4565b61019961018736600461156e565b60009081526004602052604090205490565b604051908152602001610114565b6100cc6101b5366004611175565b610c73565b6100cc6101c8366004611587565b610d1a565b6101d5610d93565b806006816040516101e691906115b7565b9081526040519081900360200190205460ff1661021e5760405162461bcd60e51b8152600401610215906115d3565b60405180910390fd5b610229828585610ded565b8460058360405161023a91906115b7565b9081526020016040518091039020858154811061025957610259611603565b90600052602060002090600a02016008016000828254610279919061162f565b9091555050604080518681524260208201527f06781dbf13cbe24b81cca7c592486459b9182c605dcb4edb27ef897a17884b6c910160405180910390a15050505050565b6102c5610d93565b806006816040516102d691906115b7565b9081526040519081900360200190205460ff166103055760405162461bcd60e51b8152600401610215906115d3565b610310828585610ded565b8760058360405161032191906115b7565b9081526020016040518091039020858154811061034057610340611603565b90600052602060002090600a020160080160008282546103609190611648565b90915550506040805189815260208101899052908101879052606081018690527f9e6a720bba6499deb617f3059c8641e9c3265aa4c094aabd1347b292671da0139060800160405180910390a15050505050505050565b6103bf610d93565b806006816040516103d091906115b7565b9081526040519081900360200190205460ff166103ff5760405162461bcd60e51b8152600401610215906115d3565b61040a828585610ded565b60058260405161041a91906115b7565b908152602001604051809103902060006104349190610ec4565b50505050565b606060058260405161044c91906115b7565b9081526020016040518091039020805480602002602001604051908101604052809291908181526020016000905b828210156107a257838290600052602060002090600a020160405180610160016040529081600082015481526020016001820180546104b89061165b565b80601f01602080910402602001604051908101604052809291908181526020018280546104e49061165b565b80156105315780601f1061050657610100808354040283529160200191610531565b820191906000526020600020905b81548152906001019060200180831161051457829003601f168201915b5050505050815260200160028201805461054a9061165b565b80601f01602080910402602001604051908101604052809291908181526020018280546105769061165b565b80156105c35780601f10610598576101008083540402835291602001916105c3565b820191906000526020600020905b8154815290600101906020018083116105a657829003601f168201915b5050509183525050600382015460209091019060ff1660028111156105ea576105ea611202565b60028111156105fb576105fb611202565b815260200160048201805461060f9061165b565b80601f016020809104026020016040519081016040528092919081815260200182805461063b9061165b565b80156106885780601f1061065d57610100808354040283529160200191610688565b820191906000526020600020905b81548152906001019060200180831161066b57829003601f168201915b5050509183525050600582015460ff1615156020820152600682015460408201526007820180546060909201916106be9061165b565b80601f01602080910402602001604051908101604052809291908181526020018280546106ea9061165b565b80156107375780601f1061070c57610100808354040283529160200191610737565b820191906000526020600020905b81548152906001019060200180831161071a57829003601f168201915b505050918352505060088201546020820152600982015460409091019060ff16600181111561076857610768611202565b600181111561077957610779611202565b815260099190910154610100900460ff161515602091820152908252600192909201910161047a565b505050509050919050565b6107b5610d93565b8a6006816040516107c691906115b7565b9081526040519081900360200190205460ff166107f55760405162461bcd60e51b8152600401610215906115d3565b60058c60405161080591906115b7565b90815260200160405180910390206040518061016001604052808d81526020018c81526020018b81526020018a600281111561084357610843611202565b8152602001898152602001881515815260200187815260200186815260200185815260200184600181111561087a5761087a611202565b815260006020918201819052835460018181018655948252908290208351600a909202019081559082015191929091908201906108b790826116e4565b50604082015160028201906108cc90826116e4565b50606082015160038201805460ff191660018360028111156108f0576108f0611202565b02179055506080820151600482019061090990826116e4565b5060a082015160058201805460ff191691151591909117905560c0820151600682015560e0820151600782019061094090826116e4565b50610100820151600882015561012082015160098201805460ff19166001838181111561096f5761096f611202565b02179055506101409190910151600990910180549115156101000261ff0019909216919091179055505050505050505050505050565b6109ad610d93565b6109b76000610e74565b565b6109c1610d93565b60006040518060400160405280601c81526020017f19457468657265756d205369676e6564204d6573736167653a0a33320000000081525090506000818a604051602001610a109291906117a4565b60408051601f198184030181528282528051602091820120600080855291840180845281905260ff8d1692840192909252606083018b9052608083018a90529092509060019060a0016020604051602081039080840390855afa158015610a7b573d6000803e3d6000fd5b5050604051601f1901516002549092506001600160a01b038084169116149050610ada5760405162461bcd60e51b815260206004820152601060248201526f4e6f74207369676e656420627920514160801b6044820152606401610215565b610ae5858888610ded565b6001600586604051610af791906115b7565b90815260200160405180910390208881548110610b1657610b16611603565b6000918252602082206009600a909202010180549215156101000261ff001990931692909217909155600354604051636902622f60e11b81526001600160a01b039091169063d204c45e90610b7190309089906004016117c6565b6020604051808303816000875af1158015610b90573d6000803e3d6000fd5b505050506040513d601f19601f82011682018060405250810190610bb491906117ea565b600097885260046020526040909720969096555050505050505050505050565b80600681604051610be591906115b7565b9081526040519081900360200190205460ff16610c145760405162461bcd60e51b8152600401610215906115d3565b6000600683604051610c2691906115b7565b908152604051908190036020018120805492151560ff1990931692909217909155600590610c559084906115b7565b90815260200160405180910390206000610c6f9190610ec4565b5050565b80600681604051610c8491906115b7565b9081526040519081900360200190205460ff1615610ce45760405162461bcd60e51b815260206004820152601a60248201527f436f6d70616e7920616c726561647920726567697374657265640000000000006044820152606401610215565b6001600683604051610cf691906115b7565b908152604051908190036020019020805491151560ff199092169190911790555050565b610d22610d93565b6001600160a01b038116610d875760405162461bcd60e51b815260206004820152602660248201527f4f776e61626c653a206e6577206f776e657220697320746865207a65726f206160448201526564647265737360d01b6064820152608401610215565b610d9081610e74565b50565b6000546001600160a01b031633146109b75760405162461bcd60e51b815260206004820181905260248201527f4f776e61626c653a2063616c6c6572206973206e6f7420746865206f776e65726044820152606401610215565b6000600584604051610dff91906115b7565b90815260200160405180910390208381548110610e1e57610e1e611603565b90600052602060002090600a02016000015490508082146104345760405162461bcd60e51b815260206004820152601060248201526f15dc9bdb99c81c1c9bd91d58dd08125160821b6044820152606401610215565b600080546001600160a01b038381166001600160a01b0319831681178455604051919092169283917f8be0079c531659141344cd1fd0a4f28419497f9722a3daafe3b4186f6b6457e09190a35050565b50805460008255600a0290600052602060002090810190610d9091905b80821115610f63576000808255610efb6001830182610f67565b610f09600283016000610f67565b60038201805460ff19169055610f23600483016000610f67565b60058201805460ff19169055600060068301819055610f46906007840190610f67565b506000600882015560098101805461ffff19169055600a01610ee1565b5090565b508054610f739061165b565b6000825580601f10610f83575050565b601f016020900490600052602060002090810190610d9091905b80821115610f635760008155600101610f9d565b634e487b7160e01b600052604160045260246000fd5b600082601f830112610fd857600080fd5b813567ffffffffffffffff80821115610ff357610ff3610fb1565b604051601f8301601f19908116603f0116810190828211818310171561101b5761101b610fb1565b8160405283815286602085880101111561103457600080fd5b836020870160208301376000602085830101528094505050505092915050565b6000806000806080858703121561106a57600080fd5b843593506020850135925060408501359150606085013567ffffffffffffffff81111561109657600080fd5b6110a287828801610fc7565b91505092959194509250565b600080600080600080600060e0888a0312156110c957600080fd5b873596506020880135955060408801359450606088013593506080880135925060a0880135915060c088013567ffffffffffffffff81111561110a57600080fd5b6111168a828b01610fc7565b91505092959891949750929550565b60008060006060848603121561113a57600080fd5b8335925060208401359150604084013567ffffffffffffffff81111561115f57600080fd5b61116b86828701610fc7565b9150509250925092565b60006020828403121561118757600080fd5b813567ffffffffffffffff81111561119e57600080fd5b6111aa84828501610fc7565b949350505050565b60005b838110156111cd5781810151838201526020016111b5565b50506000910152565b600081518084526111ee8160208601602086016111b2565b601f01601f19169290920160200192915050565b634e487b7160e01b600052602160045260246000fd5b6003811061122857611228611202565b9052565b6002811061122857611228611202565b60006020808301818452808551808352604092508286019150828160051b87010184880160005b8381101561135857603f1989840301855281516101608151855288820151818a870152611292828701826111d6565b91505087820151858203898701526112aa82826111d6565b9150506060808301516112bf82880182611218565b5050608080830151868303828801526112d883826111d6565b9250505060a0808301516112ef8288018215159052565b505060c0828101519086015260e0808301518683038288015261131283826111d6565b92505050610100808301518187015250610120808301516113358288018261122c565b505061014091820151151594909101939093529386019390860190600101611263565b509098975050505050505050565b80356003811061137557600080fd5b919050565b8035801515811461137557600080fd5b80356002811061137557600080fd5b60008060008060008060008060008060006101608c8e0312156113bb57600080fd5b67ffffffffffffffff808d3511156113d257600080fd5b6113df8e8e358f01610fc7565b9b5060208d01359a508060408e013511156113f957600080fd5b6114098e60408f01358f01610fc7565b99508060608e0135111561141c57600080fd5b61142c8e60608f01358f01610fc7565b985061143a60808e01611366565b97508060a08e0135111561144d57600080fd5b61145d8e60a08f01358f01610fc7565b965061146b60c08e0161137a565b955060e08d01359450806101008e0135111561148657600080fd5b506114988d6101008e01358e01610fc7565b92506101208c013591506114af6101408d0161138a565b90509295989b509295989b9093969950565b600080600080600080600080610100898b0312156114de57600080fd5b88359750602089013560ff811681146114f657600080fd5b965060408901359550606089013594506080890135935060a0890135925060c089013567ffffffffffffffff8082111561152f57600080fd5b61153b8c838d01610fc7565b935060e08b013591508082111561155157600080fd5b5061155e8b828c01610fc7565b9150509295985092959890939650565b60006020828403121561158057600080fd5b5035919050565b60006020828403121561159957600080fd5b81356001600160a01b03811681146115b057600080fd5b9392505050565b600082516115c98184602087016111b2565b9190910192915050565b60208082526016908201527510dbdb5c185b9e481b9bdd081c9959da5cdd195c995960521b604082015260600190565b634e487b7160e01b600052603260045260246000fd5b634e487b7160e01b600052601160045260246000fd5b8181038181111561164257611642611619565b92915050565b8082018082111561164257611642611619565b600181811c9082168061166f57607f821691505b60208210810361168f57634e487b7160e01b600052602260045260246000fd5b50919050565b601f8211156116df57600081815260208120601f850160051c810160208610156116bc5750805b601f850160051c820191505b818110156116db578281556001016116c8565b5050505b505050565b815167ffffffffffffffff8111156116fe576116fe610fb1565b6117128161170c845461165b565b84611695565b602080601f831160018114611747576000841561172f5750858301515b600019600386901b1c1916600185901b1785556116db565b600085815260208120601f198616915b8281101561177657888601518255948401946001909101908401611757565b50858210156117945787850151600019600388901b60f8161c191681555b5050505050600190811b01905550565b600083516117b68184602088016111b2565b9190910191825250602001919050565b6001600160a01b03831681526040602082018190526000906111aa908301846111d6565b6000602082840312156117fc57600080fd5b505191905056fea2646970667358221220dee43502d07b26161858dcd4789d265ae9c4c96d7231a7359e9b81a60eb6408d64736f6c63430008110033","opcodes":"PUSH1 0x80 PUSH1 0x40 MSTORE CALLVALUE DUP1 ISZERO PUSH3 0x11 JUMPI PUSH1 0x0 DUP1 REVERT JUMPDEST POP PUSH1 0x40 MLOAD PUSH3 0x19C5 CODESIZE SUB DUP1 PUSH3 0x19C5 DUP4 CODECOPY DUP2 ADD PUSH1 0x40 DUP2 SWAP1 MSTORE PUSH3 0x34 SWAP2 PUSH3 0x144 JUMP JUMPDEST PUSH3 0x3F CALLER PUSH3 0xD7 JUMP JUMPDEST PUSH1 0x3 DUP1 SLOAD PUSH1 0x1 PUSH1 0x1 PUSH1 0xA0 SHL SUB NOT AND PUSH1 0x1 PUSH1 0x1 PUSH1 0xA0 SHL SUB DUP5 AND SWAP1 DUP2 OR SWAP1 SWAP2 SSTORE PUSH1 0x40 DUP1 MLOAD PUSH4 0xEB836273 PUSH1 0xE0 SHL DUP2 MSTORE SWAP1 MLOAD PUSH4 0xEB836273 SWAP2 PUSH1 0x4 DUP1 DUP3 ADD SWAP3 PUSH1 0x0 SWAP3 SWAP1 SWAP2 SWAP1 DUP3 SWAP1 SUB ADD DUP2 DUP4 DUP8 DUP1 EXTCODESIZE ISZERO DUP1 ISZERO PUSH3 0x95 JUMPI PUSH1 0x0 DUP1 REVERT JUMPDEST POP GAS CALL ISZERO DUP1 ISZERO PUSH3 0xAA JUMPI RETURNDATASIZE PUSH1 0x0 DUP1 RETURNDATACOPY RETURNDATASIZE PUSH1 0x0 REVERT JUMPDEST POP POP PUSH1 0x2 DUP1 SLOAD PUSH1 0x1 PUSH1 0x1 PUSH1 0xA0 SHL SUB NOT AND PUSH1 0x1 PUSH1 0x1 PUSH1 0xA0 SHL SUB SWAP5 SWAP1 SWAP5 AND SWAP4 SWAP1 SWAP4 OR SWAP1 SWAP3 SSTORE POP PUSH3 0x17C SWAP2 POP POP JUMP JUMPDEST PUSH1 0x0 DUP1 SLOAD PUSH1 0x1 PUSH1 0x1 PUSH1 0xA0 SHL SUB DUP4 DUP2 AND PUSH1 0x1 PUSH1 0x1 PUSH1 0xA0 SHL SUB NOT DUP4 AND DUP2 OR DUP5 SSTORE PUSH1 0x40 MLOAD SWAP2 SWAP1 SWAP3 AND SWAP3 DUP4 SWAP2 PUSH32 0x8BE0079C531659141344CD1FD0A4F28419497F9722A3DAAFE3B4186F6B6457E0 SWAP2 SWAP1 LOG3 POP POP JUMP JUMPDEST DUP1 MLOAD PUSH1 0x1 PUSH1 0x1 PUSH1 0xA0 SHL SUB DUP2 AND DUP2 EQ PUSH3 0x13F JUMPI PUSH1 0x0 DUP1 REVERT JUMPDEST SWAP2 SWAP1 POP JUMP JUMPDEST PUSH1 0x0 DUP1 PUSH1 0x40 DUP4 DUP6 SUB SLT ISZERO PUSH3 0x158 JUMPI PUSH1 0x0 DUP1 REVERT JUMPDEST PUSH3 0x163 DUP4 PUSH3 0x127 JUMP JUMPDEST SWAP2 POP PUSH3 0x173 PUSH1 0x20 DUP5 ADD PUSH3 0x127 JUMP JUMPDEST SWAP1 POP SWAP3 POP SWAP3 SWAP1 POP JUMP JUMPDEST PUSH2 0x1839 DUP1 PUSH3 0x18C PUSH1 0x0 CODECOPY PUSH1 0x0 RETURN INVALID PUSH1 0x80 PUSH1 0x40 MSTORE CALLVALUE DUP1 ISZERO PUSH2 0x10 JUMPI PUSH1 0x0 DUP1 REVERT JUMPDEST POP PUSH1 0x4 CALLDATASIZE LT PUSH2 0xB4 JUMPI PUSH1 0x0 CALLDATALOAD PUSH1 0xE0 SHR DUP1 PUSH4 0x80349970 GT PUSH2 0x71 JUMPI DUP1 PUSH4 0x80349970 EQ PUSH2 0x138 JUMPI DUP1 PUSH4 0x8DA5CB5B EQ PUSH2 0x14B JUMPI DUP1 PUSH4 0x9ADDF188 EQ PUSH2 0x166 JUMPI DUP1 PUSH4 0x9D53B949 EQ PUSH2 0x179 JUMPI DUP1 PUSH4 0xD6483D17 EQ PUSH2 0x1A7 JUMPI DUP1 PUSH4 0xF2FDE38B EQ PUSH2 0x1BA JUMPI PUSH1 0x0 DUP1 REVERT JUMPDEST DUP1 PUSH4 0x2C2E3E46 EQ PUSH2 0xB9 JUMPI DUP1 PUSH4 0x2DA129C8 EQ PUSH2 0xCE JUMPI DUP1 PUSH4 0x3B219252 EQ PUSH2 0xE1 JUMPI DUP1 PUSH4 0x5FF65D94 EQ PUSH2 0xF4 JUMPI DUP1 PUSH4 0x6F67F158 EQ PUSH2 0x11D JUMPI DUP1 PUSH4 0x715018A6 EQ PUSH2 0x130 JUMPI JUMPDEST PUSH1 0x0 DUP1 REVERT JUMPDEST PUSH2 0xCC PUSH2 0xC7 CALLDATASIZE PUSH1 0x4 PUSH2 0x1054 JUMP JUMPDEST PUSH2 0x1CD JUMP JUMPDEST STOP JUMPDEST PUSH2 0xCC PUSH2 0xDC CALLDATASIZE PUSH1 0x4 PUSH2 0x10AE JUMP JUMPDEST PUSH2 0x2BD JUMP JUMPDEST PUSH2 0xCC PUSH2 0xEF CALLDATASIZE PUSH1 0x4 PUSH2 0x1125 JUMP JUMPDEST PUSH2 0x3B7 JUMP JUMPDEST PUSH2 0x107 PUSH2 0x102 CALLDATASIZE PUSH1 0x4 PUSH2 0x1175 JUMP JUMPDEST PUSH2 0x43A JUMP JUMPDEST PUSH1 0x40 MLOAD PUSH2 0x114 SWAP2 SWAP1 PUSH2 0x123C JUMP JUMPDEST PUSH1 0x40 MLOAD DUP1 SWAP2 SUB SWAP1 RETURN JUMPDEST PUSH2 0xCC PUSH2 0x12B CALLDATASIZE PUSH1 0x4 PUSH2 0x1399 JUMP JUMPDEST PUSH2 0x7AD JUMP JUMPDEST PUSH2 0xCC PUSH2 0x9A5 JUMP JUMPDEST PUSH2 0xCC PUSH2 0x146 CALLDATASIZE PUSH1 0x4 PUSH2 0x14C1 JUMP JUMPDEST PUSH2 0x9B9 JUMP JUMPDEST PUSH1 0x0 SLOAD PUSH1 0x40 MLOAD PUSH1 0x1 PUSH1 0x1 PUSH1 0xA0 SHL SUB SWAP1 SWAP2 AND DUP2 MSTORE PUSH1 0x20 ADD PUSH2 0x114 JUMP JUMPDEST PUSH2 0xCC PUSH2 0x174 CALLDATASIZE PUSH1 0x4 PUSH2 0x1175 JUMP JUMPDEST PUSH2 0xBD4 JUMP JUMPDEST PUSH2 0x199 PUSH2 0x187 CALLDATASIZE PUSH1 0x4 PUSH2 0x156E JUMP JUMPDEST PUSH1 0x0 SWAP1 DUP2 MSTORE PUSH1 0x4 PUSH1 0x20 MSTORE PUSH1 0x40 SWAP1 KECCAK256 SLOAD SWAP1 JUMP JUMPDEST PUSH1 0x40 MLOAD SWAP1 DUP2 MSTORE PUSH1 0x20 ADD PUSH2 0x114 JUMP JUMPDEST PUSH2 0xCC PUSH2 0x1B5 CALLDATASIZE PUSH1 0x4 PUSH2 0x1175 JUMP JUMPDEST PUSH2 0xC73 JUMP JUMPDEST PUSH2 0xCC PUSH2 0x1C8 CALLDATASIZE PUSH1 0x4 PUSH2 0x1587 JUMP JUMPDEST PUSH2 0xD1A JUMP JUMPDEST PUSH2 0x1D5 PUSH2 0xD93 JUMP JUMPDEST DUP1 PUSH1 0x6 DUP2 PUSH1 0x40 MLOAD PUSH2 0x1E6 SWAP2 SWAP1 PUSH2 0x15B7 JUMP JUMPDEST SWAP1 DUP2 MSTORE PUSH1 0x40 MLOAD SWAP1 DUP2 SWAP1 SUB PUSH1 0x20 ADD SWAP1 KECCAK256 SLOAD PUSH1 0xFF AND PUSH2 0x21E JUMPI PUSH1 0x40 MLOAD PUSH3 0x461BCD PUSH1 0xE5 SHL DUP2 MSTORE PUSH1 0x4 ADD PUSH2 0x215 SWAP1 PUSH2 0x15D3 JUMP JUMPDEST PUSH1 0x40 MLOAD DUP1 SWAP2 SUB SWAP1 REVERT JUMPDEST PUSH2 0x229 DUP3 DUP6 DUP6 PUSH2 0xDED JUMP JUMPDEST DUP5 PUSH1 0x5 DUP4 PUSH1 0x40 MLOAD PUSH2 0x23A SWAP2 SWAP1 PUSH2 0x15B7 JUMP JUMPDEST SWAP1 DUP2 MSTORE PUSH1 0x20 ADD PUSH1 0x40 MLOAD DUP1 SWAP2 SUB SWAP1 KECCAK256 DUP6 DUP2 SLOAD DUP2 LT PUSH2 0x259 JUMPI PUSH2 0x259 PUSH2 0x1603 JUMP JUMPDEST SWAP1 PUSH1 0x0 MSTORE PUSH1 0x20 PUSH1 0x0 KECCAK256 SWAP1 PUSH1 0xA MUL ADD PUSH1 0x8 ADD PUSH1 0x0 DUP3 DUP3 SLOAD PUSH2 0x279 SWAP2 SWAP1 PUSH2 0x162F JUMP JUMPDEST SWAP1 SWAP2 SSTORE POP POP PUSH1 0x40 DUP1 MLOAD DUP7 DUP2 MSTORE TIMESTAMP PUSH1 0x20 DUP3 ADD MSTORE PUSH32 0x6781DBF13CBE24B81CCA7C592486459B9182C605DCB4EDB27EF897A17884B6C SWAP2 ADD PUSH1 0x40 MLOAD DUP1 SWAP2 SUB SWAP1 LOG1 POP POP POP POP POP JUMP JUMPDEST PUSH2 0x2C5 PUSH2 0xD93 JUMP JUMPDEST DUP1 PUSH1 0x6 DUP2 PUSH1 0x40 MLOAD PUSH2 0x2D6 SWAP2 SWAP1 PUSH2 0x15B7 JUMP JUMPDEST SWAP1 DUP2 MSTORE PUSH1 0x40 MLOAD SWAP1 DUP2 SWAP1 SUB PUSH1 0x20 ADD SWAP1 KECCAK256 SLOAD PUSH1 0xFF AND PUSH2 0x305 JUMPI PUSH1 0x40 MLOAD PUSH3 0x461BCD PUSH1 0xE5 SHL DUP2 MSTORE PUSH1 0x4 ADD PUSH2 0x215 SWAP1 PUSH2 0x15D3 JUMP JUMPDEST PUSH2 0x310 DUP3 DUP6 DUP6 PUSH2 0xDED JUMP JUMPDEST DUP8 PUSH1 0x5 DUP4 PUSH1 0x40 MLOAD PUSH2 0x321 SWAP2 SWAP1 PUSH2 0x15B7 JUMP JUMPDEST SWAP1 DUP2 MSTORE PUSH1 0x20 ADD PUSH1 0x40 MLOAD DUP1 SWAP2 SUB SWAP1 KECCAK256 DUP6 DUP2 SLOAD DUP2 LT PUSH2 0x340 JUMPI PUSH2 0x340 PUSH2 0x1603 JUMP JUMPDEST SWAP1 PUSH1 0x0 MSTORE PUSH1 0x20 PUSH1 0x0 KECCAK256 SWAP1 PUSH1 0xA MUL ADD PUSH1 0x8 ADD PUSH1 0x0 DUP3 DUP3 SLOAD PUSH2 0x360 SWAP2 SWAP1 PUSH2 0x1648 JUMP JUMPDEST SWAP1 SWAP2 SSTORE POP POP PUSH1 0x40 DUP1 MLOAD DUP10 DUP2 MSTORE PUSH1 0x20 DUP2 ADD DUP10 SWAP1 MSTORE SWAP1 DUP2 ADD DUP8 SWAP1 MSTORE PUSH1 0x60 DUP2 ADD DUP7 SWAP1 MSTORE PUSH32 0x9E6A720BBA6499DEB617F3059C8641E9C3265AA4C094AABD1347B292671DA013 SWAP1 PUSH1 0x80 ADD PUSH1 0x40 MLOAD DUP1 SWAP2 SUB SWAP1 LOG1 POP POP POP POP POP POP POP POP JUMP JUMPDEST PUSH2 0x3BF PUSH2 0xD93 JUMP JUMPDEST DUP1 PUSH1 0x6 DUP2 PUSH1 0x40 MLOAD PUSH2 0x3D0 SWAP2 SWAP1 PUSH2 0x15B7 JUMP JUMPDEST SWAP1 DUP2 MSTORE PUSH1 0x40 MLOAD SWAP1 DUP2 SWAP1 SUB PUSH1 0x20 ADD SWAP1 KECCAK256 SLOAD PUSH1 0xFF AND PUSH2 0x3FF JUMPI PUSH1 0x40 MLOAD PUSH3 0x461BCD PUSH1 0xE5 SHL DUP2 MSTORE PUSH1 0x4 ADD PUSH2 0x215 SWAP1 PUSH2 0x15D3 JUMP JUMPDEST PUSH2 0x40A DUP3 DUP6 DUP6 PUSH2 0xDED JUMP JUMPDEST PUSH1 0x5 DUP3 PUSH1 0x40 MLOAD PUSH2 0x41A SWAP2 SWAP1 PUSH2 0x15B7 JUMP JUMPDEST SWAP1 DUP2 MSTORE PUSH1 0x20 ADD PUSH1 0x40 MLOAD DUP1 SWAP2 SUB SWAP1 KECCAK256 PUSH1 0x0 PUSH2 0x434 SWAP2 SWAP1 PUSH2 0xEC4 JUMP JUMPDEST POP POP POP POP JUMP JUMPDEST PUSH1 0x60 PUSH1 0x5 DUP3 PUSH1 0x40 MLOAD PUSH2 0x44C SWAP2 SWAP1 PUSH2 0x15B7 JUMP JUMPDEST SWAP1 DUP2 MSTORE PUSH1 0x20 ADD PUSH1 0x40 MLOAD DUP1 SWAP2 SUB SWAP1 KECCAK256 DUP1 SLOAD DUP1 PUSH1 0x20 MUL PUSH1 0x20 ADD PUSH1 0x40 MLOAD SWAP1 DUP2 ADD PUSH1 0x40 MSTORE DUP1 SWAP3 SWAP2 SWAP1 DUP2 DUP2 MSTORE PUSH1 0x20 ADD PUSH1 0x0 SWAP1 JUMPDEST DUP3 DUP3 LT ISZERO PUSH2 0x7A2 JUMPI DUP4 DUP3 SWAP1 PUSH1 0x0 MSTORE PUSH1 0x20 PUSH1 0x0 KECCAK256 SWAP1 PUSH1 0xA MUL ADD PUSH1 0x40 MLOAD DUP1 PUSH2 0x160 ADD PUSH1 0x40 MSTORE SWAP1 DUP2 PUSH1 0x0 DUP3 ADD SLOAD DUP2 MSTORE PUSH1 0x20 ADD PUSH1 0x1 DUP3 ADD DUP1 SLOAD PUSH2 0x4B8 SWAP1 PUSH2 0x165B JUMP JUMPDEST DUP1 PUSH1 0x1F ADD PUSH1 0x20 DUP1 SWAP2 DIV MUL PUSH1 0x20 ADD PUSH1 0x40 MLOAD SWAP1 DUP2 ADD PUSH1 0x40 MSTORE DUP1 SWAP3 SWAP2 SWAP1 DUP2 DUP2 MSTORE PUSH1 0x20 ADD DUP3 DUP1 SLOAD PUSH2 0x4E4 SWAP1 PUSH2 0x165B JUMP JUMPDEST DUP1 ISZERO PUSH2 0x531 JUMPI DUP1 PUSH1 0x1F LT PUSH2 0x506 JUMPI PUSH2 0x100 DUP1 DUP4 SLOAD DIV MUL DUP4 MSTORE SWAP2 PUSH1 0x20 ADD SWAP2 PUSH2 0x531 JUMP JUMPDEST DUP3 ADD SWAP2 SWAP1 PUSH1 0x0 MSTORE PUSH1 0x20 PUSH1 0x0 KECCAK256 SWAP1 JUMPDEST DUP2 SLOAD DUP2 MSTORE SWAP1 PUSH1 0x1 ADD SWAP1 PUSH1 0x20 ADD DUP1 DUP4 GT PUSH2 0x514 JUMPI DUP3 SWAP1 SUB PUSH1 0x1F AND DUP3 ADD SWAP2 JUMPDEST POP POP POP POP POP DUP2 MSTORE PUSH1 0x20 ADD PUSH1 0x2 DUP3 ADD DUP1 SLOAD PUSH2 0x54A SWAP1 PUSH2 0x165B JUMP JUMPDEST DUP1 PUSH1 0x1F ADD PUSH1 0x20 DUP1 SWAP2 DIV MUL PUSH1 0x20 ADD PUSH1 0x40 MLOAD SWAP1 DUP2 ADD PUSH1 0x40 MSTORE DUP1 SWAP3 SWAP2 SWAP1 DUP2 DUP2 MSTORE PUSH1 0x20 ADD DUP3 DUP1 SLOAD PUSH2 0x576 SWAP1 PUSH2 0x165B JUMP JUMPDEST DUP1 ISZERO PUSH2 0x5C3 JUMPI DUP1 PUSH1 0x1F LT PUSH2 0x598 JUMPI PUSH2 0x100 DUP1 DUP4 SLOAD DIV MUL DUP4 MSTORE SWAP2 PUSH1 0x20 ADD SWAP2 PUSH2 0x5C3 JUMP JUMPDEST DUP3 ADD SWAP2 SWAP1 PUSH1 0x0 MSTORE PUSH1 0x20 PUSH1 0x0 KECCAK256 SWAP1 JUMPDEST DUP2 SLOAD DUP2 MSTORE SWAP1 PUSH1 0x1 ADD SWAP1 PUSH1 0x20 ADD DUP1 DUP4 GT PUSH2 0x5A6 JUMPI DUP3 SWAP1 SUB PUSH1 0x1F AND DUP3 ADD SWAP2 JUMPDEST POP POP POP SWAP2 DUP4 MSTORE POP POP PUSH1 0x3 DUP3 ADD SLOAD PUSH1 0x20 SWAP1 SWAP2 ADD SWAP1 PUSH1 0xFF AND PUSH1 0x2 DUP2 GT ISZERO PUSH2 0x5EA JUMPI PUSH2 0x5EA PUSH2 0x1202 JUMP JUMPDEST PUSH1 0x2 DUP2 GT ISZERO PUSH2 0x5FB JUMPI PUSH2 0x5FB PUSH2 0x1202 JUMP JUMPDEST DUP2 MSTORE PUSH1 0x20 ADD PUSH1 0x4 DUP3 ADD DUP1 SLOAD PUSH2 0x60F SWAP1 PUSH2 0x165B JUMP JUMPDEST DUP1 PUSH1 0x1F ADD PUSH1 0x20 DUP1 SWAP2 DIV MUL PUSH1 0x20 ADD PUSH1 0x40 MLOAD SWAP1 DUP2 ADD PUSH1 0x40 MSTORE DUP1 SWAP3 SWAP2 SWAP1 DUP2 DUP2 MSTORE PUSH1 0x20 ADD DUP3 DUP1 SLOAD PUSH2 0x63B SWAP1 PUSH2 0x165B JUMP JUMPDEST DUP1 ISZERO PUSH2 0x688 JUMPI DUP1 PUSH1 0x1F LT PUSH2 0x65D JUMPI PUSH2 0x100 DUP1 DUP4 SLOAD DIV MUL DUP4 MSTORE SWAP2 PUSH1 0x20 ADD SWAP2 PUSH2 0x688 JUMP JUMPDEST DUP3 ADD SWAP2 SWAP1 PUSH1 0x0 MSTORE PUSH1 0x20 PUSH1 0x0 KECCAK256 SWAP1 JUMPDEST DUP2 SLOAD DUP2 MSTORE SWAP1 PUSH1 0x1 ADD SWAP1 PUSH1 0x20 ADD DUP1 DUP4 GT PUSH2 0x66B JUMPI DUP3 SWAP1 SUB PUSH1 0x1F AND DUP3 ADD SWAP2 JUMPDEST POP POP POP SWAP2 DUP4 MSTORE POP POP PUSH1 0x5 DUP3 ADD SLOAD PUSH1 0xFF AND ISZERO ISZERO PUSH1 0x20 DUP3 ADD MSTORE PUSH1 0x6 DUP3 ADD SLOAD PUSH1 0x40 DUP3 ADD MSTORE PUSH1 0x7 DUP3 ADD DUP1 SLOAD PUSH1 0x60 SWAP1 SWAP3 ADD SWAP2 PUSH2 0x6BE SWAP1 PUSH2 0x165B JUMP JUMPDEST DUP1 PUSH1 0x1F ADD PUSH1 0x20 DUP1 SWAP2 DIV MUL PUSH1 0x20 ADD PUSH1 0x40 MLOAD SWAP1 DUP2 ADD PUSH1 0x40 MSTORE DUP1 SWAP3 SWAP2 SWAP1 DUP2 DUP2 MSTORE PUSH1 0x20 ADD DUP3 DUP1 SLOAD PUSH2 0x6EA SWAP1 PUSH2 0x165B JUMP JUMPDEST DUP1 ISZERO PUSH2 0x737 JUMPI DUP1 PUSH1 0x1F LT PUSH2 0x70C JUMPI PUSH2 0x100 DUP1 DUP4 SLOAD DIV MUL DUP4 MSTORE SWAP2 PUSH1 0x20 ADD SWAP2 PUSH2 0x737 JUMP JUMPDEST DUP3 ADD SWAP2 SWAP1 PUSH1 0x0 MSTORE PUSH1 0x20 PUSH1 0x0 KECCAK256 SWAP1 JUMPDEST DUP2 SLOAD DUP2 MSTORE SWAP1 PUSH1 0x1 ADD SWAP1 PUSH1 0x20 ADD DUP1 DUP4 GT PUSH2 0x71A JUMPI DUP3 SWAP1 SUB PUSH1 0x1F AND DUP3 ADD SWAP2 JUMPDEST POP POP POP SWAP2 DUP4 MSTORE POP POP PUSH1 0x8 DUP3 ADD SLOAD PUSH1 0x20 DUP3 ADD MSTORE PUSH1 0x9 DUP3 ADD SLOAD PUSH1 0x40 SWAP1 SWAP2 ADD SWAP1 PUSH1 0xFF AND PUSH1 0x1 DUP2 GT ISZERO PUSH2 0x768 JUMPI PUSH2 0x768 PUSH2 0x1202 JUMP JUMPDEST PUSH1 0x1 DUP2 GT ISZERO PUSH2 0x779 JUMPI PUSH2 0x779 PUSH2 0x1202 JUMP JUMPDEST DUP2 MSTORE PUSH1 0x9 SWAP2 SWAP1 SWAP2 ADD SLOAD PUSH2 0x100 SWAP1 DIV PUSH1 0xFF AND ISZERO ISZERO PUSH1 0x20 SWAP2 DUP3 ADD MSTORE SWAP1 DUP3 MSTORE PUSH1 0x1 SWAP3 SWAP1 SWAP3 ADD SWAP2 ADD PUSH2 0x47A JUMP JUMPDEST POP POP POP POP SWAP1 POP SWAP2 SWAP1 POP JUMP JUMPDEST PUSH2 0x7B5 PUSH2 0xD93 JUMP JUMPDEST DUP11 PUSH1 0x6 DUP2 PUSH1 0x40 MLOAD PUSH2 0x7C6 SWAP2 SWAP1 PUSH2 0x15B7 JUMP JUMPDEST SWAP1 DUP2 MSTORE PUSH1 0x40 MLOAD SWAP1 DUP2 SWAP1 SUB PUSH1 0x20 ADD SWAP1 KECCAK256 SLOAD PUSH1 0xFF AND PUSH2 0x7F5 JUMPI PUSH1 0x40 MLOAD PUSH3 0x461BCD PUSH1 0xE5 SHL DUP2 MSTORE PUSH1 0x4 ADD PUSH2 0x215 SWAP1 PUSH2 0x15D3 JUMP JUMPDEST PUSH1 0x5 DUP13 PUSH1 0x40 MLOAD PUSH2 0x805 SWAP2 SWAP1 PUSH2 0x15B7 JUMP JUMPDEST SWAP1 DUP2 MSTORE PUSH1 0x20 ADD PUSH1 0x40 MLOAD DUP1 SWAP2 SUB SWAP1 KECCAK256 PUSH1 0x40 MLOAD DUP1 PUSH2 0x160 ADD PUSH1 0x40 MSTORE DUP1 DUP14 DUP2 MSTORE PUSH1 0x20 ADD DUP13 DUP2 MSTORE PUSH1 0x20 ADD DUP12 DUP2 MSTORE PUSH1 0x20 ADD DUP11 PUSH1 0x2 DUP2 GT ISZERO PUSH2 0x843 JUMPI PUSH2 0x843 PUSH2 0x1202 JUMP JUMPDEST DUP2 MSTORE PUSH1 0x20 ADD DUP10 DUP2 MSTORE PUSH1 0x20 ADD DUP9 ISZERO ISZERO DUP2 MSTORE PUSH1 0x20 ADD DUP8 DUP2 MSTORE PUSH1 0x20 ADD DUP7 DUP2 MSTORE PUSH1 0x20 ADD DUP6 DUP2 MSTORE PUSH1 0x20 ADD DUP5 PUSH1 0x1 DUP2 GT ISZERO PUSH2 0x87A JUMPI PUSH2 0x87A PUSH2 0x1202 JUMP JUMPDEST DUP2 MSTORE PUSH1 0x0 PUSH1 0x20 SWAP2 DUP3 ADD DUP2 SWAP1 MSTORE DUP4 SLOAD PUSH1 0x1 DUP2 DUP2 ADD DUP7 SSTORE SWAP5 DUP3 MSTORE SWAP1 DUP3 SWAP1 KECCAK256 DUP4 MLOAD PUSH1 0xA SWAP1 SWAP3 MUL ADD SWAP1 DUP2 SSTORE SWAP1 DUP3 ADD MLOAD SWAP2 SWAP3 SWAP1 SWAP2 SWAP1 DUP3 ADD SWAP1 PUSH2 0x8B7 SWAP1 DUP3 PUSH2 0x16E4 JUMP JUMPDEST POP PUSH1 0x40 DUP3 ADD MLOAD PUSH1 0x2 DUP3 ADD SWAP1 PUSH2 0x8CC SWAP1 DUP3 PUSH2 0x16E4 JUMP JUMPDEST POP PUSH1 0x60 DUP3 ADD MLOAD PUSH1 0x3 DUP3 ADD DUP1 SLOAD PUSH1 0xFF NOT AND PUSH1 0x1 DUP4 PUSH1 0x2 DUP2 GT ISZERO PUSH2 0x8F0 JUMPI PUSH2 0x8F0 PUSH2 0x1202 JUMP JUMPDEST MUL OR SWAP1 SSTORE POP PUSH1 0x80 DUP3 ADD MLOAD PUSH1 0x4 DUP3 ADD SWAP1 PUSH2 0x909 SWAP1 DUP3 PUSH2 0x16E4 JUMP JUMPDEST POP PUSH1 0xA0 DUP3 ADD MLOAD PUSH1 0x5 DUP3 ADD DUP1 SLOAD PUSH1 0xFF NOT AND SWAP2 ISZERO ISZERO SWAP2 SWAP1 SWAP2 OR SWAP1 SSTORE PUSH1 0xC0 DUP3 ADD MLOAD PUSH1 0x6 DUP3 ADD SSTORE PUSH1 0xE0 DUP3 ADD MLOAD PUSH1 0x7 DUP3 ADD SWAP1 PUSH2 0x940 SWAP1 DUP3 PUSH2 0x16E4 JUMP JUMPDEST POP PUSH2 0x100 DUP3 ADD MLOAD PUSH1 0x8 DUP3 ADD SSTORE PUSH2 0x120 DUP3 ADD MLOAD PUSH1 0x9 DUP3 ADD DUP1 SLOAD PUSH1 0xFF NOT AND PUSH1 0x1 DUP4 DUP2 DUP2 GT ISZERO PUSH2 0x96F JUMPI PUSH2 0x96F PUSH2 0x1202 JUMP JUMPDEST MUL OR SWAP1 SSTORE POP PUSH2 0x140 SWAP2 SWAP1 SWAP2 ADD MLOAD PUSH1 0x9 SWAP1 SWAP2 ADD DUP1 SLOAD SWAP2 ISZERO ISZERO PUSH2 0x100 MUL PUSH2 0xFF00 NOT SWAP1 SWAP3 AND SWAP2 SWAP1 SWAP2 OR SWAP1 SSTORE POP POP POP POP POP POP POP POP POP POP POP POP JUMP JUMPDEST PUSH2 0x9AD PUSH2 0xD93 JUMP JUMPDEST PUSH2 0x9B7 PUSH1 0x0 PUSH2 0xE74 JUMP JUMPDEST JUMP JUMPDEST PUSH2 0x9C1 PUSH2 0xD93 JUMP JUMPDEST PUSH1 0x0 PUSH1 0x40 MLOAD DUP1 PUSH1 0x40 ADD PUSH1 0x40 MSTORE DUP1 PUSH1 0x1C DUP2 MSTORE PUSH1 0x20 ADD PUSH32 0x19457468657265756D205369676E6564204D6573736167653A0A333200000000 DUP2 MSTORE POP SWAP1 POP PUSH1 0x0 DUP2 DUP11 PUSH1 0x40 MLOAD PUSH1 0x20 ADD PUSH2 0xA10 SWAP3 SWAP2 SWAP1 PUSH2 0x17A4 JUMP JUMPDEST PUSH1 0x40 DUP1 MLOAD PUSH1 0x1F NOT DUP2 DUP5 SUB ADD DUP2 MSTORE DUP3 DUP3 MSTORE DUP1 MLOAD PUSH1 0x20 SWAP2 DUP3 ADD KECCAK256 PUSH1 0x0 DUP1 DUP6 MSTORE SWAP2 DUP5 ADD DUP1 DUP5 MSTORE DUP2 SWAP1 MSTORE PUSH1 0xFF DUP14 AND SWAP3 DUP5 ADD SWAP3 SWAP1 SWAP3 MSTORE PUSH1 0x60 DUP4 ADD DUP12 SWAP1 MSTORE PUSH1 0x80 DUP4 ADD DUP11 SWAP1 MSTORE SWAP1 SWAP3 POP SWAP1 PUSH1 0x1 SWAP1 PUSH1 0xA0 ADD PUSH1 0x20 PUSH1 0x40 MLOAD PUSH1 0x20 DUP2 SUB SWAP1 DUP1 DUP5 SUB SWAP1 DUP6 GAS STATICCALL ISZERO DUP1 ISZERO PUSH2 0xA7B JUMPI RETURNDATASIZE PUSH1 0x0 DUP1 RETURNDATACOPY RETURNDATASIZE PUSH1 0x0 REVERT JUMPDEST POP POP PUSH1 0x40 MLOAD PUSH1 0x1F NOT ADD MLOAD PUSH1 0x2 SLOAD SWAP1 SWAP3 POP PUSH1 0x1 PUSH1 0x1 PUSH1 0xA0 SHL SUB DUP1 DUP5 AND SWAP2 AND EQ SWAP1 POP PUSH2 0xADA JUMPI PUSH1 0x40 MLOAD PUSH3 0x461BCD PUSH1 0xE5 SHL DUP2 MSTORE PUSH1 0x20 PUSH1 0x4 DUP3 ADD MSTORE PUSH1 0x10 PUSH1 0x24 DUP3 ADD MSTORE PUSH16 0x4E6F74207369676E6564206279205141 PUSH1 0x80 SHL PUSH1 0x44 DUP3 ADD MSTORE PUSH1 0x64 ADD PUSH2 0x215 JUMP JUMPDEST PUSH2 0xAE5 DUP6 DUP9 DUP9 PUSH2 0xDED JUMP JUMPDEST PUSH1 0x1 PUSH1 0x5 DUP7 PUSH1 0x40 MLOAD PUSH2 0xAF7 SWAP2 SWAP1 PUSH2 0x15B7 JUMP JUMPDEST SWAP1 DUP2 MSTORE PUSH1 0x20 ADD PUSH1 0x40 MLOAD DUP1 SWAP2 SUB SWAP1 KECCAK256 DUP9 DUP2 SLOAD DUP2 LT PUSH2 0xB16 JUMPI PUSH2 0xB16 PUSH2 0x1603 JUMP JUMPDEST PUSH1 0x0 SWAP2 DUP3 MSTORE PUSH1 0x20 DUP3 KECCAK256 PUSH1 0x9 PUSH1 0xA SWAP1 SWAP3 MUL ADD ADD DUP1 SLOAD SWAP3 ISZERO ISZERO PUSH2 0x100 MUL PUSH2 0xFF00 NOT SWAP1 SWAP4 AND SWAP3 SWAP1 SWAP3 OR SWAP1 SWAP2 SSTORE PUSH1 0x3 SLOAD PUSH1 0x40 MLOAD PUSH4 0x6902622F PUSH1 0xE1 SHL DUP2 MSTORE PUSH1 0x1 PUSH1 0x1 PUSH1 0xA0 SHL SUB SWAP1 SWAP2 AND SWAP1 PUSH4 0xD204C45E SWAP1 PUSH2 0xB71 SWAP1 ADDRESS SWAP1 DUP10 SWAP1 PUSH1 0x4 ADD PUSH2 0x17C6 JUMP JUMPDEST PUSH1 0x20 PUSH1 0x40 MLOAD DUP1 DUP4 SUB DUP2 PUSH1 0x0 DUP8 GAS CALL ISZERO DUP1 ISZERO PUSH2 0xB90 JUMPI RETURNDATASIZE PUSH1 0x0 DUP1 RETURNDATACOPY RETURNDATASIZE PUSH1 0x0 REVERT JUMPDEST POP POP POP POP PUSH1 0x40 MLOAD RETURNDATASIZE PUSH1 0x1F NOT PUSH1 0x1F DUP3 ADD AND DUP3 ADD DUP1 PUSH1 0x40 MSTORE POP DUP2 ADD SWAP1 PUSH2 0xBB4 SWAP2 SWAP1 PUSH2 0x17EA JUMP JUMPDEST PUSH1 0x0 SWAP8 DUP9 MSTORE PUSH1 0x4 PUSH1 0x20 MSTORE PUSH1 0x40 SWAP1 SWAP8 KECCAK256 SWAP7 SWAP1 SWAP7 SSTORE POP POP POP POP POP POP POP POP POP POP POP JUMP JUMPDEST DUP1 PUSH1 0x6 DUP2 PUSH1 0x40 MLOAD PUSH2 0xBE5 SWAP2 SWAP1 PUSH2 0x15B7 JUMP JUMPDEST SWAP1 DUP2 MSTORE PUSH1 0x40 MLOAD SWAP1 DUP2 SWAP1 SUB PUSH1 0x20 ADD SWAP1 KECCAK256 SLOAD PUSH1 0xFF AND PUSH2 0xC14 JUMPI PUSH1 0x40 MLOAD PUSH3 0x461BCD PUSH1 0xE5 SHL DUP2 MSTORE PUSH1 0x4 ADD PUSH2 0x215 SWAP1 PUSH2 0x15D3 JUMP JUMPDEST PUSH1 0x0 PUSH1 0x6 DUP4 PUSH1 0x40 MLOAD PUSH2 0xC26 SWAP2 SWAP1 PUSH2 0x15B7 JUMP JUMPDEST SWAP1 DUP2 MSTORE PUSH1 0x40 MLOAD SWAP1 DUP2 SWAP1 SUB PUSH1 0x20 ADD DUP2 KECCAK256 DUP1 SLOAD SWAP3 ISZERO ISZERO PUSH1 0xFF NOT SWAP1 SWAP4 AND SWAP3 SWAP1 SWAP3 OR SWAP1 SWAP2 SSTORE PUSH1 0x5 SWAP1 PUSH2 0xC55 SWAP1 DUP5 SWAP1 PUSH2 0x15B7 JUMP JUMPDEST SWAP1 DUP2 MSTORE PUSH1 0x20 ADD PUSH1 0x40 MLOAD DUP1 SWAP2 SUB SWAP1 KECCAK256 PUSH1 0x0 PUSH2 0xC6F SWAP2 SWAP1 PUSH2 0xEC4 JUMP JUMPDEST POP POP JUMP JUMPDEST DUP1 PUSH1 0x6 DUP2 PUSH1 0x40 MLOAD PUSH2 0xC84 SWAP2 SWAP1 PUSH2 0x15B7 JUMP JUMPDEST SWAP1 DUP2 MSTORE PUSH1 0x40 MLOAD SWAP1 DUP2 SWAP1 SUB PUSH1 0x20 ADD SWAP1 KECCAK256 SLOAD PUSH1 0xFF AND ISZERO PUSH2 0xCE4 JUMPI PUSH1 0x40 MLOAD PUSH3 0x461BCD PUSH1 0xE5 SHL DUP2 MSTORE PUSH1 0x20 PUSH1 0x4 DUP3 ADD MSTORE PUSH1 0x1A PUSH1 0x24 DUP3 ADD MSTORE PUSH32 0x436F6D70616E7920616C72656164792072656769737465726564000000000000 PUSH1 0x44 DUP3 ADD MSTORE PUSH1 0x64 ADD PUSH2 0x215 JUMP JUMPDEST PUSH1 0x1 PUSH1 0x6 DUP4 PUSH1 0x40 MLOAD PUSH2 0xCF6 SWAP2 SWAP1 PUSH2 0x15B7 JUMP JUMPDEST SWAP1 DUP2 MSTORE PUSH1 0x40 MLOAD SWAP1 DUP2 SWAP1 SUB PUSH1 0x20 ADD SWAP1 KECCAK256 DUP1 SLOAD SWAP2 ISZERO ISZERO PUSH1 0xFF NOT SWAP1 SWAP3 AND SWAP2 SWAP1 SWAP2 OR SWAP1 SSTORE POP POP JUMP JUMPDEST PUSH2 0xD22 PUSH2 0xD93 JUMP JUMPDEST PUSH1 0x1 PUSH1 0x1 PUSH1 0xA0 SHL SUB DUP2 AND PUSH2 0xD87 JUMPI PUSH1 0x40 MLOAD PUSH3 0x461BCD PUSH1 0xE5 SHL DUP2 MSTORE PUSH1 0x20 PUSH1 0x4 DUP3 ADD MSTORE PUSH1 0x26 PUSH1 0x24 DUP3 ADD MSTORE PUSH32 0x4F776E61626C653A206E6577206F776E657220697320746865207A65726F2061 PUSH1 0x44 DUP3 ADD MSTORE PUSH6 0x646472657373 PUSH1 0xD0 SHL PUSH1 0x64 DUP3 ADD MSTORE PUSH1 0x84 ADD PUSH2 0x215 JUMP JUMPDEST PUSH2 0xD90 DUP2 PUSH2 0xE74 JUMP JUMPDEST POP JUMP JUMPDEST PUSH1 0x0 SLOAD PUSH1 0x1 PUSH1 0x1 PUSH1 0xA0 SHL SUB AND CALLER EQ PUSH2 0x9B7 JUMPI PUSH1 0x40 MLOAD PUSH3 0x461BCD PUSH1 0xE5 SHL DUP2 MSTORE PUSH1 0x20 PUSH1 0x4 DUP3 ADD DUP2 SWAP1 MSTORE PUSH1 0x24 DUP3 ADD MSTORE PUSH32 0x4F776E61626C653A2063616C6C6572206973206E6F7420746865206F776E6572 PUSH1 0x44 DUP3 ADD MSTORE PUSH1 0x64 ADD PUSH2 0x215 JUMP JUMPDEST PUSH1 0x0 PUSH1 0x5 DUP5 PUSH1 0x40 MLOAD PUSH2 0xDFF SWAP2 SWAP1 PUSH2 0x15B7 JUMP JUMPDEST SWAP1 DUP2 MSTORE PUSH1 0x20 ADD PUSH1 0x40 MLOAD DUP1 SWAP2 SUB SWAP1 KECCAK256 DUP4 DUP2 SLOAD DUP2 LT PUSH2 0xE1E JUMPI PUSH2 0xE1E PUSH2 0x1603 JUMP JUMPDEST SWAP1 PUSH1 0x0 MSTORE PUSH1 0x20 PUSH1 0x0 KECCAK256 SWAP1 PUSH1 0xA MUL ADD PUSH1 0x0 ADD SLOAD SWAP1 POP DUP1 DUP3 EQ PUSH2 0x434 JUMPI PUSH1 0x40 MLOAD PUSH3 0x461BCD PUSH1 0xE5 SHL DUP2 MSTORE PUSH1 0x20 PUSH1 0x4 DUP3 ADD MSTORE PUSH1 0x10 PUSH1 0x24 DUP3 ADD MSTORE PUSH16 0x15DC9BDB99C81C1C9BD91D58DD081251 PUSH1 0x82 SHL PUSH1 0x44 DUP3 ADD MSTORE PUSH1 0x64 ADD PUSH2 0x215 JUMP JUMPDEST PUSH1 0x0 DUP1 SLOAD PUSH1 0x1 PUSH1 0x1 PUSH1 0xA0 SHL SUB DUP4 DUP2 AND PUSH1 0x1 PUSH1 0x1 PUSH1 0xA0 SHL SUB NOT DUP4 AND DUP2 OR DUP5 SSTORE PUSH1 0x40 MLOAD SWAP2 SWAP1 SWAP3 AND SWAP3 DUP4 SWAP2 PUSH32 0x8BE0079C531659141344CD1FD0A4F28419497F9722A3DAAFE3B4186F6B6457E0 SWAP2 SWAP1 LOG3 POP POP JUMP JUMPDEST POP DUP1 SLOAD PUSH1 0x0 DUP3 SSTORE PUSH1 0xA MUL SWAP1 PUSH1 0x0 MSTORE PUSH1 0x20 PUSH1 0x0 KECCAK256 SWAP1 DUP2 ADD SWAP1 PUSH2 0xD90 SWAP2 SWAP1 JUMPDEST DUP1 DUP3 GT ISZERO PUSH2 0xF63 JUMPI PUSH1 0x0 DUP1 DUP3 SSTORE PUSH2 0xEFB PUSH1 0x1 DUP4 ADD DUP3 PUSH2 0xF67 JUMP JUMPDEST PUSH2 0xF09 PUSH1 0x2 DUP4 ADD PUSH1 0x0 PUSH2 0xF67 JUMP JUMPDEST PUSH1 0x3 DUP3 ADD DUP1 SLOAD PUSH1 0xFF NOT AND SWAP1 SSTORE PUSH2 0xF23 PUSH1 0x4 DUP4 ADD PUSH1 0x0 PUSH2 0xF67 JUMP JUMPDEST PUSH1 0x5 DUP3 ADD DUP1 SLOAD PUSH1 0xFF NOT AND SWAP1 SSTORE PUSH1 0x0 PUSH1 0x6 DUP4 ADD DUP2 SWAP1 SSTORE PUSH2 0xF46 SWAP1 PUSH1 0x7 DUP5 ADD SWAP1 PUSH2 0xF67 JUMP JUMPDEST POP PUSH1 0x0 PUSH1 0x8 DUP3 ADD SSTORE PUSH1 0x9 DUP2 ADD DUP1 SLOAD PUSH2 0xFFFF NOT AND SWAP1 SSTORE PUSH1 0xA ADD PUSH2 0xEE1 JUMP JUMPDEST POP SWAP1 JUMP JUMPDEST POP DUP1 SLOAD PUSH2 0xF73 SWAP1 PUSH2 0x165B JUMP JUMPDEST PUSH1 0x0 DUP3 SSTORE DUP1 PUSH1 0x1F LT PUSH2 0xF83 JUMPI POP POP JUMP JUMPDEST PUSH1 0x1F ADD PUSH1 0x20 SWAP1 DIV SWAP1 PUSH1 0x0 MSTORE PUSH1 0x20 PUSH1 0x0 KECCAK256 SWAP1 DUP2 ADD SWAP1 PUSH2 0xD90 SWAP2 SWAP1 JUMPDEST DUP1 DUP3 GT ISZERO PUSH2 0xF63 JUMPI PUSH1 0x0 DUP2 SSTORE PUSH1 0x1 ADD PUSH2 0xF9D JUMP JUMPDEST PUSH4 0x4E487B71 PUSH1 0xE0 SHL PUSH1 0x0 MSTORE PUSH1 0x41 PUSH1 0x4 MSTORE PUSH1 0x24 PUSH1 0x0 REVERT JUMPDEST PUSH1 0x0 DUP3 PUSH1 0x1F DUP4 ADD SLT PUSH2 0xFD8 JUMPI PUSH1 0x0 DUP1 REVERT JUMPDEST DUP2 CALLDATALOAD PUSH8 0xFFFFFFFFFFFFFFFF DUP1 DUP3 GT ISZERO PUSH2 0xFF3 JUMPI PUSH2 0xFF3 PUSH2 0xFB1 JUMP JUMPDEST PUSH1 0x40 MLOAD PUSH1 0x1F DUP4 ADD PUSH1 0x1F NOT SWAP1 DUP2 AND PUSH1 0x3F ADD AND DUP2 ADD SWAP1 DUP3 DUP3 GT DUP2 DUP4 LT OR ISZERO PUSH2 0x101B JUMPI PUSH2 0x101B PUSH2 0xFB1 JUMP JUMPDEST DUP2 PUSH1 0x40 MSTORE DUP4 DUP2 MSTORE DUP7 PUSH1 0x20 DUP6 DUP9 ADD ADD GT ISZERO PUSH2 0x1034 JUMPI PUSH1 0x0 DUP1 REVERT JUMPDEST DUP4 PUSH1 0x20 DUP8 ADD PUSH1 0x20 DUP4 ADD CALLDATACOPY PUSH1 0x0 PUSH1 0x20 DUP6 DUP4 ADD ADD MSTORE DUP1 SWAP5 POP POP POP POP POP SWAP3 SWAP2 POP POP JUMP JUMPDEST PUSH1 0x0 DUP1 PUSH1 0x0 DUP1 PUSH1 0x80 DUP6 DUP8 SUB SLT ISZERO PUSH2 0x106A JUMPI PUSH1 0x0 DUP1 REVERT JUMPDEST DUP5 CALLDATALOAD SWAP4 POP PUSH1 0x20 DUP6 ADD CALLDATALOAD SWAP3 POP PUSH1 0x40 DUP6 ADD CALLDATALOAD SWAP2 POP PUSH1 0x60 DUP6 ADD CALLDATALOAD PUSH8 0xFFFFFFFFFFFFFFFF DUP2 GT ISZERO PUSH2 0x1096 JUMPI PUSH1 0x0 DUP1 REVERT JUMPDEST PUSH2 0x10A2 DUP8 DUP3 DUP9 ADD PUSH2 0xFC7 JUMP JUMPDEST SWAP2 POP POP SWAP3 SWAP6 SWAP2 SWAP5 POP SWAP3 POP JUMP JUMPDEST PUSH1 0x0 DUP1 PUSH1 0x0 DUP1 PUSH1 0x0 DUP1 PUSH1 0x0 PUSH1 0xE0 DUP9 DUP11 SUB SLT ISZERO PUSH2 0x10C9 JUMPI PUSH1 0x0 DUP1 REVERT JUMPDEST DUP8 CALLDATALOAD SWAP7 POP PUSH1 0x20 DUP9 ADD CALLDATALOAD SWAP6 POP PUSH1 0x40 DUP9 ADD CALLDATALOAD SWAP5 POP PUSH1 0x60 DUP9 ADD CALLDATALOAD SWAP4 POP PUSH1 0x80 DUP9 ADD CALLDATALOAD SWAP3 POP PUSH1 0xA0 DUP9 ADD CALLDATALOAD SWAP2 POP PUSH1 0xC0 DUP9 ADD CALLDATALOAD PUSH8 0xFFFFFFFFFFFFFFFF DUP2 GT ISZERO PUSH2 0x110A JUMPI PUSH1 0x0 DUP1 REVERT JUMPDEST PUSH2 0x1116 DUP11 DUP3 DUP12 ADD PUSH2 0xFC7 JUMP JUMPDEST SWAP2 POP POP SWAP3 SWAP6 SWAP9 SWAP2 SWAP5 SWAP8 POP SWAP3 SWAP6 POP JUMP JUMPDEST PUSH1 0x0 DUP1 PUSH1 0x0 PUSH1 0x60 DUP5 DUP7 SUB SLT ISZERO PUSH2 0x113A JUMPI PUSH1 0x0 DUP1 REVERT JUMPDEST DUP4 CALLDATALOAD SWAP3 POP PUSH1 0x20 DUP5 ADD CALLDATALOAD SWAP2 POP PUSH1 0x40 DUP5 ADD CALLDATALOAD PUSH8 0xFFFFFFFFFFFFFFFF DUP2 GT ISZERO PUSH2 0x115F JUMPI PUSH1 0x0 DUP1 REVERT JUMPDEST PUSH2 0x116B DUP7 DUP3 DUP8 ADD PUSH2 0xFC7 JUMP JUMPDEST SWAP2 POP POP SWAP3 POP SWAP3 POP SWAP3 JUMP JUMPDEST PUSH1 0x0 PUSH1 0x20 DUP3 DUP5 SUB SLT ISZERO PUSH2 0x1187 JUMPI PUSH1 0x0 DUP1 REVERT JUMPDEST DUP2 CALLDATALOAD PUSH8 0xFFFFFFFFFFFFFFFF DUP2 GT ISZERO PUSH2 0x119E JUMPI PUSH1 0x0 DUP1 REVERT JUMPDEST PUSH2 0x11AA DUP5 DUP3 DUP6 ADD PUSH2 0xFC7 JUMP JUMPDEST SWAP5 SWAP4 POP POP POP POP JUMP JUMPDEST PUSH1 0x0 JUMPDEST DUP4 DUP2 LT ISZERO PUSH2 0x11CD JUMPI DUP2 DUP2 ADD MLOAD DUP4 DUP3 ADD MSTORE PUSH1 0x20 ADD PUSH2 0x11B5 JUMP JUMPDEST POP POP PUSH1 0x0 SWAP2 ADD MSTORE JUMP JUMPDEST PUSH1 0x0 DUP2 MLOAD DUP1 DUP5 MSTORE PUSH2 0x11EE DUP2 PUSH1 0x20 DUP7 ADD PUSH1 0x20 DUP7 ADD PUSH2 0x11B2 JUMP JUMPDEST PUSH1 0x1F ADD PUSH1 0x1F NOT AND SWAP3 SWAP1 SWAP3 ADD PUSH1 0x20 ADD SWAP3 SWAP2 POP POP JUMP JUMPDEST PUSH4 0x4E487B71 PUSH1 0xE0 SHL PUSH1 0x0 MSTORE PUSH1 0x21 PUSH1 0x4 MSTORE PUSH1 0x24 PUSH1 0x0 REVERT JUMPDEST PUSH1 0x3 DUP2 LT PUSH2 0x1228 JUMPI PUSH2 0x1228 PUSH2 0x1202 JUMP JUMPDEST SWAP1 MSTORE JUMP JUMPDEST PUSH1 0x2 DUP2 LT PUSH2 0x1228 JUMPI PUSH2 0x1228 PUSH2 0x1202 JUMP JUMPDEST PUSH1 0x0 PUSH1 0x20 DUP1 DUP4 ADD DUP2 DUP5 MSTORE DUP1 DUP6 MLOAD DUP1 DUP4 MSTORE PUSH1 0x40 SWAP3 POP DUP3 DUP7 ADD SWAP2 POP DUP3 DUP2 PUSH1 0x5 SHL DUP8 ADD ADD DUP5 DUP9 ADD PUSH1 0x0 JUMPDEST DUP4 DUP2 LT ISZERO PUSH2 0x1358 JUMPI PUSH1 0x3F NOT DUP10 DUP5 SUB ADD DUP6 MSTORE DUP2 MLOAD PUSH2 0x160 DUP2 MLOAD DUP6 MSTORE DUP9 DUP3 ADD MLOAD DUP2 DUP11 DUP8 ADD MSTORE PUSH2 0x1292 DUP3 DUP8 ADD DUP3 PUSH2 0x11D6 JUMP JUMPDEST SWAP2 POP POP DUP8 DUP3 ADD MLOAD DUP6 DUP3 SUB DUP10 DUP8 ADD MSTORE PUSH2 0x12AA DUP3 DUP3 PUSH2 0x11D6 JUMP JUMPDEST SWAP2 POP POP PUSH1 0x60 DUP1 DUP4 ADD MLOAD PUSH2 0x12BF DUP3 DUP9 ADD DUP3 PUSH2 0x1218 JUMP JUMPDEST POP POP PUSH1 0x80 DUP1 DUP4 ADD MLOAD DUP7 DUP4 SUB DUP3 DUP9 ADD MSTORE PUSH2 0x12D8 DUP4 DUP3 PUSH2 0x11D6 JUMP JUMPDEST SWAP3 POP POP POP PUSH1 0xA0 DUP1 DUP4 ADD MLOAD PUSH2 0x12EF DUP3 DUP9 ADD DUP3 ISZERO ISZERO SWAP1 MSTORE JUMP JUMPDEST POP POP PUSH1 0xC0 DUP3 DUP2 ADD MLOAD SWAP1 DUP7 ADD MSTORE PUSH1 0xE0 DUP1 DUP4 ADD MLOAD DUP7 DUP4 SUB DUP3 DUP9 ADD MSTORE PUSH2 0x1312 DUP4 DUP3 PUSH2 0x11D6 JUMP JUMPDEST SWAP3 POP POP POP PUSH2 0x100 DUP1 DUP4 ADD MLOAD DUP2 DUP8 ADD MSTORE POP PUSH2 0x120 DUP1 DUP4 ADD MLOAD PUSH2 0x1335 DUP3 DUP9 ADD DUP3 PUSH2 0x122C JUMP JUMPDEST POP POP PUSH2 0x140 SWAP2 DUP3 ADD MLOAD ISZERO ISZERO SWAP5 SWAP1 SWAP2 ADD SWAP4 SWAP1 SWAP4 MSTORE SWAP4 DUP7 ADD SWAP4 SWAP1 DUP7 ADD SWAP1 PUSH1 0x1 ADD PUSH2 0x1263 JUMP JUMPDEST POP SWAP1 SWAP9 SWAP8 POP POP POP POP POP POP POP POP JUMP JUMPDEST DUP1 CALLDATALOAD PUSH1 0x3 DUP2 LT PUSH2 0x1375 JUMPI PUSH1 0x0 DUP1 REVERT JUMPDEST SWAP2 SWAP1 POP JUMP JUMPDEST DUP1 CALLDATALOAD DUP1 ISZERO ISZERO DUP2 EQ PUSH2 0x1375 JUMPI PUSH1 0x0 DUP1 REVERT JUMPDEST DUP1 CALLDATALOAD PUSH1 0x2 DUP2 LT PUSH2 0x1375 JUMPI PUSH1 0x0 DUP1 REVERT JUMPDEST PUSH1 0x0 DUP1 PUSH1 0x0 DUP1 PUSH1 0x0 DUP1 PUSH1 0x0 DUP1 PUSH1 0x0 DUP1 PUSH1 0x0 PUSH2 0x160 DUP13 DUP15 SUB SLT ISZERO PUSH2 0x13BB JUMPI PUSH1 0x0 DUP1 REVERT JUMPDEST PUSH8 0xFFFFFFFFFFFFFFFF DUP1 DUP14 CALLDATALOAD GT ISZERO PUSH2 0x13D2 JUMPI PUSH1 0x0 DUP1 REVERT JUMPDEST PUSH2 0x13DF DUP15 DUP15 CALLDATALOAD DUP16 ADD PUSH2 0xFC7 JUMP JUMPDEST SWAP12 POP PUSH1 0x20 DUP14 ADD CALLDATALOAD SWAP11 POP DUP1 PUSH1 0x40 DUP15 ADD CALLDATALOAD GT ISZERO PUSH2 0x13F9 JUMPI PUSH1 0x0 DUP1 REVERT JUMPDEST PUSH2 0x1409 DUP15 PUSH1 0x40 DUP16 ADD CALLDATALOAD DUP16 ADD PUSH2 0xFC7 JUMP JUMPDEST SWAP10 POP DUP1 PUSH1 0x60 DUP15 ADD CALLDATALOAD GT ISZERO PUSH2 0x141C JUMPI PUSH1 0x0 DUP1 REVERT JUMPDEST PUSH2 0x142C DUP15 PUSH1 0x60 DUP16 ADD CALLDATALOAD DUP16 ADD PUSH2 0xFC7 JUMP JUMPDEST SWAP9 POP PUSH2 0x143A PUSH1 0x80 DUP15 ADD PUSH2 0x1366 JUMP JUMPDEST SWAP8 POP DUP1 PUSH1 0xA0 DUP15 ADD CALLDATALOAD GT ISZERO PUSH2 0x144D JUMPI PUSH1 0x0 DUP1 REVERT JUMPDEST PUSH2 0x145D DUP15 PUSH1 0xA0 DUP16 ADD CALLDATALOAD DUP16 ADD PUSH2 0xFC7 JUMP JUMPDEST SWAP7 POP PUSH2 0x146B PUSH1 0xC0 DUP15 ADD PUSH2 0x137A JUMP JUMPDEST SWAP6 POP PUSH1 0xE0 DUP14 ADD CALLDATALOAD SWAP5 POP DUP1 PUSH2 0x100 DUP15 ADD CALLDATALOAD GT ISZERO PUSH2 0x1486 JUMPI PUSH1 0x0 DUP1 REVERT JUMPDEST POP PUSH2 0x1498 DUP14 PUSH2 0x100 DUP15 ADD CALLDATALOAD DUP15 ADD PUSH2 0xFC7 JUMP JUMPDEST SWAP3 POP PUSH2 0x120 DUP13 ADD CALLDATALOAD SWAP2 POP PUSH2 0x14AF PUSH2 0x140 DUP14 ADD PUSH2 0x138A JUMP JUMPDEST SWAP1 POP SWAP3 SWAP6 SWAP9 SWAP12 POP SWAP3 SWAP6 SWAP9 SWAP12 SWAP1 SWAP4 SWAP7 SWAP10 POP JUMP JUMPDEST PUSH1 0x0 DUP1 PUSH1 0x0 DUP1 PUSH1 0x0 DUP1 PUSH1 0x0 DUP1 PUSH2 0x100 DUP10 DUP12 SUB SLT ISZERO PUSH2 0x14DE JUMPI PUSH1 0x0 DUP1 REVERT JUMPDEST DUP9 CALLDATALOAD SWAP8 POP PUSH1 0x20 DUP10 ADD CALLDATALOAD PUSH1 0xFF DUP2 AND DUP2 EQ PUSH2 0x14F6 JUMPI PUSH1 0x0 DUP1 REVERT JUMPDEST SWAP7 POP PUSH1 0x40 DUP10 ADD CALLDATALOAD SWAP6 POP PUSH1 0x60 DUP10 ADD CALLDATALOAD SWAP5 POP PUSH1 0x80 DUP10 ADD CALLDATALOAD SWAP4 POP PUSH1 0xA0 DUP10 ADD CALLDATALOAD SWAP3 POP PUSH1 0xC0 DUP10 ADD CALLDATALOAD PUSH8 0xFFFFFFFFFFFFFFFF DUP1 DUP3 GT ISZERO PUSH2 0x152F JUMPI PUSH1 0x0 DUP1 REVERT JUMPDEST PUSH2 0x153B DUP13 DUP4 DUP14 ADD PUSH2 0xFC7 JUMP JUMPDEST SWAP4 POP PUSH1 0xE0 DUP12 ADD CALLDATALOAD SWAP2 POP DUP1 DUP3 GT ISZERO PUSH2 0x1551 JUMPI PUSH1 0x0 DUP1 REVERT JUMPDEST POP PUSH2 0x155E DUP12 DUP3 DUP13 ADD PUSH2 0xFC7 JUMP JUMPDEST SWAP2 POP POP SWAP3 SWAP6 SWAP9 POP SWAP3 SWAP6 SWAP9 SWAP1 SWAP4 SWAP7 POP JUMP JUMPDEST PUSH1 0x0 PUSH1 0x20 DUP3 DUP5 SUB SLT ISZERO PUSH2 0x1580 JUMPI PUSH1 0x0 DUP1 REVERT JUMPDEST POP CALLDATALOAD SWAP2 SWAP1 POP JUMP JUMPDEST PUSH1 0x0 PUSH1 0x20 DUP3 DUP5 SUB SLT ISZERO PUSH2 0x1599 JUMPI PUSH1 0x0 DUP1 REVERT JUMPDEST DUP2 CALLDATALOAD PUSH1 0x1 PUSH1 0x1 PUSH1 0xA0 SHL SUB DUP2 AND DUP2 EQ PUSH2 0x15B0 JUMPI PUSH1 0x0 DUP1 REVERT JUMPDEST SWAP4 SWAP3 POP POP POP JUMP JUMPDEST PUSH1 0x0 DUP3 MLOAD PUSH2 0x15C9 DUP2 DUP5 PUSH1 0x20 DUP8 ADD PUSH2 0x11B2 JUMP JUMPDEST SWAP2 SWAP1 SWAP2 ADD SWAP3 SWAP2 POP POP JUMP JUMPDEST PUSH1 0x20 DUP1 DUP3 MSTORE PUSH1 0x16 SWAP1 DUP3 ADD MSTORE PUSH22 0x10DBDB5C185B9E481B9BDD081C9959DA5CDD195C9959 PUSH1 0x52 SHL PUSH1 0x40 DUP3 ADD MSTORE PUSH1 0x60 ADD SWAP1 JUMP JUMPDEST PUSH4 0x4E487B71 PUSH1 0xE0 SHL PUSH1 0x0 MSTORE PUSH1 0x32 PUSH1 0x4 MSTORE PUSH1 0x24 PUSH1 0x0 REVERT JUMPDEST PUSH4 0x4E487B71 PUSH1 0xE0 SHL PUSH1 0x0 MSTORE PUSH1 0x11 PUSH1 0x4 MSTORE PUSH1 0x24 PUSH1 0x0 REVERT JUMPDEST DUP2 DUP2 SUB DUP2 DUP2 GT ISZERO PUSH2 0x1642 JUMPI PUSH2 0x1642 PUSH2 0x1619 JUMP JUMPDEST SWAP3 SWAP2 POP POP JUMP JUMPDEST DUP1 DUP3 ADD DUP1 DUP3 GT ISZERO PUSH2 0x1642 JUMPI PUSH2 0x1642 PUSH2 0x1619 JUMP JUMPDEST PUSH1 0x1 DUP2 DUP2 SHR SWAP1 DUP3 AND DUP1 PUSH2 0x166F JUMPI PUSH1 0x7F DUP3 AND SWAP2 POP JUMPDEST PUSH1 0x20 DUP3 LT DUP2 SUB PUSH2 0x168F JUMPI PUSH4 0x4E487B71 PUSH1 0xE0 SHL PUSH1 0x0 MSTORE PUSH1 0x22 PUSH1 0x4 MSTORE PUSH1 0x24 PUSH1 0x0 REVERT JUMPDEST POP SWAP2 SWAP1 POP JUMP JUMPDEST PUSH1 0x1F DUP3 GT ISZERO PUSH2 0x16DF JUMPI PUSH1 0x0 DUP2 DUP2 MSTORE PUSH1 0x20 DUP2 KECCAK256 PUSH1 0x1F DUP6 ADD PUSH1 0x5 SHR DUP2 ADD PUSH1 0x20 DUP7 LT ISZERO PUSH2 0x16BC JUMPI POP DUP1 JUMPDEST PUSH1 0x1F DUP6 ADD PUSH1 0x5 SHR DUP3 ADD SWAP2 POP JUMPDEST DUP2 DUP2 LT ISZERO PUSH2 0x16DB JUMPI DUP3 DUP2 SSTORE PUSH1 0x1 ADD PUSH2 0x16C8 JUMP JUMPDEST POP POP POP JUMPDEST POP POP POP JUMP JUMPDEST DUP2 MLOAD PUSH8 0xFFFFFFFFFFFFFFFF DUP2 GT ISZERO PUSH2 0x16FE JUMPI PUSH2 0x16FE PUSH2 0xFB1 JUMP JUMPDEST PUSH2 0x1712 DUP2 PUSH2 0x170C DUP5 SLOAD PUSH2 0x165B JUMP JUMPDEST DUP5 PUSH2 0x1695 JUMP JUMPDEST PUSH1 0x20 DUP1 PUSH1 0x1F DUP4 GT PUSH1 0x1 DUP2 EQ PUSH2 0x1747 JUMPI PUSH1 0x0 DUP5 ISZERO PUSH2 0x172F JUMPI POP DUP6 DUP4 ADD MLOAD JUMPDEST PUSH1 0x0 NOT PUSH1 0x3 DUP7 SWAP1 SHL SHR NOT AND PUSH1 0x1 DUP6 SWAP1 SHL OR DUP6 SSTORE PUSH2 0x16DB JUMP JUMPDEST PUSH1 0x0 DUP6 DUP2 MSTORE PUSH1 0x20 DUP2 KECCAK256 PUSH1 0x1F NOT DUP7 AND SWAP2 JUMPDEST DUP3 DUP2 LT ISZERO PUSH2 0x1776 JUMPI DUP9 DUP7 ADD MLOAD DUP3 SSTORE SWAP5 DUP5 ADD SWAP5 PUSH1 0x1 SWAP1 SWAP2 ADD SWAP1 DUP5 ADD PUSH2 0x1757 JUMP JUMPDEST POP DUP6 DUP3 LT ISZERO PUSH2 0x1794 JUMPI DUP8 DUP6 ADD MLOAD PUSH1 0x0 NOT PUSH1 0x3 DUP9 SWAP1 SHL PUSH1 0xF8 AND SHR NOT AND DUP2 SSTORE JUMPDEST POP POP POP POP POP PUSH1 0x1 SWAP1 DUP2 SHL ADD SWAP1 SSTORE POP JUMP JUMPDEST PUSH1 0x0 DUP4 MLOAD PUSH2 0x17B6 DUP2 DUP5 PUSH1 0x20 DUP9 ADD PUSH2 0x11B2 JUMP JUMPDEST SWAP2 SWAP1 SWAP2 ADD SWAP2 DUP3 MSTORE POP PUSH1 0x20 ADD SWAP2 SWAP1 POP JUMP JUMPDEST PUSH1 0x1 PUSH1 0x1 PUSH1 0xA0 SHL SUB DUP4 AND DUP2 MSTORE PUSH1 0x40 PUSH1 0x20 DUP3 ADD DUP2 SWAP1 MSTORE PUSH1 0x0 SWAP1 PUSH2 0x11AA SWAP1 DUP4 ADD DUP5 PUSH2 0x11D6 JUMP JUMPDEST PUSH1 0x0 PUSH1 0x20 DUP3 DUP5 SUB SLT ISZERO PUSH2 0x17FC JUMPI PUSH1 0x0 DUP1 REVERT JUMPDEST POP MLOAD SWAP2 SWAP1 POP JUMP INVALID LOG2 PUSH5 0x6970667358 0x22 SLT KECCAK256 0xDE 0xE4 CALLDATALOAD MUL 0xD0 PUSH28 0x26161858DCD4789D265AE9C4C96D7231A7359E9B81A60EB6408D6473 PUSH16 0x6C634300081100330000000000000000 "},"methodIdentifiers":{"addCompany(string)":"d6483d17","addProdcut(string,uint256,string,string,uint8,string,bool,uint256,string,uint256,uint8)":"6f67f158","addSupply(uint256,uint256,uint256,uint256,uint256,uint256,string)":"2da129c8","approveProduct(bytes32,uint8,bytes32,bytes32,uint256,uint256,string,string)":"80349970","disapproveCompany(string)":"9addf188","getAllProducts(string)":"5ff65d94","owner()":"8da5cb5b","removeProduct(uint256,uint256,string)":"3b219252","removeSupply(uint256,uint256,uint256,string)":"2c2e3e46","renounceOwnership()":"715018a6","transferOwnership(address)":"f2fde38b","verifyProductCertificate(uint256)":"9d53b949"}}}}}