{
  "_format": "hh-sol-artifact-1",
  "contractName": "Flowex",
  "sourceName": "contracts/Flowex.sol",
  "abi": [
    {
      "inputs": [
        {
          "internalType": "address",
          "name": "_nftContractAddress",
          "type": "address"
        },
        {
          "internalType": "address",
          "name": "_qaAddress",
          "type": "address"
        }
      ],
      "stateMutability": "nonpayable",
      "type": "constructor"
    },
    {
      "anonymous": false,
      "inputs": [
        {
          "indexed": false,
          "internalType": "uint256",
          "name": "amount",
          "type": "uint256"
        },
        {
          "indexed": false,
          "internalType": "uint256",
          "name": "timestamp",
          "type": "uint256"
        },
        {
          "indexed": false,
          "internalType": "uint256",
          "name": "latitude",
          "type": "uint256"
        },
        {
          "indexed": false,
          "internalType": "uint256",
          "name": "longitude",
          "type": "uint256"
        }
      ],
      "name": "AddSupply",
      "type": "event"
    },
    {
      "anonymous": false,
      "inputs": [
        {
          "indexed": true,
          "internalType": "address",
          "name": "previousOwner",
          "type": "address"
        },
        {
          "indexed": true,
          "internalType": "address",
          "name": "newOwner",
          "type": "address"
        }
      ],
      "name": "OwnershipTransferred",
      "type": "event"
    },
    {
      "anonymous": false,
      "inputs": [
        {
          "indexed": false,
          "internalType": "uint256",
          "name": "amount",
          "type": "uint256"
        },
        {
          "indexed": false,
          "internalType": "uint256",
          "name": "timestamp",
          "type": "uint256"
        }
      ],
      "name": "RemoveSupply",
      "type": "event"
    },
    {
      "inputs": [
        {
          "internalType": "string",
          "name": "companyName",
          "type": "string"
        }
      ],
      "name": "addCompany",
      "outputs": [],
      "stateMutability": "nonpayable",
      "type": "function"
    },
    {
      "inputs": [
        {
          "internalType": "string",
          "name": "_companyName",
          "type": "string"
        },
        {
          "internalType": "uint256",
          "name": "_productID",
          "type": "uint256"
        },
        {
          "internalType": "string",
          "name": "_treeType",
          "type": "string"
        },
        {
          "internalType": "string",
          "name": "_location",
          "type": "string"
        },
        {
          "internalType": "enum Flowex.WoodType",
          "name": "_woodType",
          "type": "uint8"
        },
        {
          "internalType": "string",
          "name": "_colour",
          "type": "string"
        },
        {
          "internalType": "bool",
          "name": "_isRaw",
          "type": "bool"
        },
        {
          "internalType": "uint256",
          "name": "_pricePerUnit",
          "type": "uint256"
        },
        {
          "internalType": "string",
          "name": "_photo",
          "type": "string"
        },
        {
          "internalType": "uint256",
          "name": "_amount",
          "type": "uint256"
        },
        {
          "internalType": "enum Flowex.Unit",
          "name": "_unit",
          "type": "uint8"
        }
      ],
      "name": "addProduct",
      "outputs": [],
      "stateMutability": "nonpayable",
      "type": "function"
    },
    {
      "inputs": [
        {
          "internalType": "uint256",
          "name": "amount",
          "type": "uint256"
        },
        {
          "internalType": "uint256",
          "name": "timestamp",
          "type": "uint256"
        },
        {
          "internalType": "uint256",
          "name": "latitude",
          "type": "uint256"
        },
        {
          "internalType": "uint256",
          "name": "longitude",
          "type": "uint256"
        },
        {
          "internalType": "uint256",
          "name": "productIndex",
          "type": "uint256"
        },
        {
          "internalType": "uint256",
          "name": "productID",
          "type": "uint256"
        },
        {
          "internalType": "string",
          "name": "companyName",
          "type": "string"
        }
      ],
      "name": "addSupply",
      "outputs": [],
      "stateMutability": "nonpayable",
      "type": "function"
    },
    {
      "inputs": [
        {
          "internalType": "bytes32",
          "name": "_hashedMessage",
          "type": "bytes32"
        },
        {
          "internalType": "uint8",
          "name": "_v",
          "type": "uint8"
        },
        {
          "internalType": "bytes32",
          "name": "_r",
          "type": "bytes32"
        },
        {
          "internalType": "bytes32",
          "name": "_s",
          "type": "bytes32"
        },
        {
          "internalType": "uint256",
          "name": "productIndex",
          "type": "uint256"
        },
        {
          "internalType": "uint256",
          "name": "productID",
          "type": "uint256"
        },
        {
          "internalType": "string",
          "name": "companyName",
          "type": "string"
        },
        {
          "internalType": "string",
          "name": "baseURI",
          "type": "string"
        }
      ],
      "name": "approveProduct",
      "outputs": [],
      "stateMutability": "nonpayable",
      "type": "function"
    },
    {
      "inputs": [
        {
          "internalType": "string",
          "name": "companyName",
          "type": "string"
        }
      ],
      "name": "disapproveCompany",
      "outputs": [],
      "stateMutability": "nonpayable",
      "type": "function"
    },
    {
      "inputs": [
        {
          "internalType": "string",
          "name": "companyName",
          "type": "string"
        }
      ],
      "name": "getAllProducts",
      "outputs": [
        {
          "components": [
            {
              "internalType": "uint256",
              "name": "productID",
              "type": "uint256"
            },
            {
              "internalType": "string",
              "name": "treeType",
              "type": "string"
            },
            {
              "internalType": "string",
              "name": "location",
              "type": "string"
            },
            {
              "internalType": "enum Flowex.WoodType",
              "name": "woodType",
              "type": "uint8"
            },
            {
              "internalType": "string",
              "name": "colour",
              "type": "string"
            },
            {
              "internalType": "bool",
              "name": "isRaw",
              "type": "bool"
            },
            {
              "internalType": "uint256",
              "name": "pricePerUnit",
              "type": "uint256"
            },
            {
              "internalType": "string",
              "name": "photo",
              "type": "string"
            },
            {
              "internalType": "uint256",
              "name": "amount",
              "type": "uint256"
            },
            {
              "internalType": "enum Flowex.Unit",
              "name": "unit",
              "type": "uint8"
            },
            {
              "internalType": "bool",
              "name": "approved",
              "type": "bool"
            }
          ],
          "internalType": "struct Flowex.Product[]",
          "name": "",
          "type": "tuple[]"
        }
      ],
      "stateMutability": "view",
      "type": "function"
    },
    {
      "inputs": [
        {
          "internalType": "address",
          "name": "",
          "type": "address"
        },
        {
          "internalType": "address",
          "name": "",
          "type": "address"
        },
        {
          "internalType": "uint256",
          "name": "",
          "type": "uint256"
        },
        {
          "internalType": "bytes",
          "name": "",
          "type": "bytes"
        }
      ],
      "name": "onERC721Received",
      "outputs": [
        {
          "internalType": "bytes4",
          "name": "",
          "type": "bytes4"
        }
      ],
      "stateMutability": "pure",
      "type": "function"
    },
    {
      "inputs": [],
      "name": "owner",
      "outputs": [
        {
          "internalType": "address",
          "name": "",
          "type": "address"
        }
      ],
      "stateMutability": "view",
      "type": "function"
    },
    {
      "inputs": [
        {
          "internalType": "uint256",
          "name": "productIndex",
          "type": "uint256"
        },
        {
          "internalType": "uint256",
          "name": "productID",
          "type": "uint256"
        },
        {
          "internalType": "string",
          "name": "companyName",
          "type": "string"
        }
      ],
      "name": "removeProduct",
      "outputs": [],
      "stateMutability": "nonpayable",
      "type": "function"
    },
    {
      "inputs": [
        {
          "internalType": "uint256",
          "name": "amount",
          "type": "uint256"
        },
        {
          "internalType": "uint256",
          "name": "productIndex",
          "type": "uint256"
        },
        {
          "internalType": "uint256",
          "name": "productID",
          "type": "uint256"
        },
        {
          "internalType": "string",
          "name": "companyName",
          "type": "string"
        }
      ],
      "name": "removeSupply",
      "outputs": [],
      "stateMutability": "nonpayable",
      "type": "function"
    },
    {
      "inputs": [],
      "name": "renounceOwnership",
      "outputs": [],
      "stateMutability": "nonpayable",
      "type": "function"
    },
    {
      "inputs": [
        {
          "internalType": "address",
          "name": "newOwner",
          "type": "address"
        }
      ],
      "name": "transferOwnership",
      "outputs": [],
      "stateMutability": "nonpayable",
      "type": "function"
    },
    {
      "inputs": [
        {
          "internalType": "uint256",
          "name": "productId",
          "type": "uint256"
        }
      ],
      "name": "verifyProductCertificate",
      "outputs": [
        {
          "internalType": "uint256",
          "name": "",
          "type": "uint256"
        }
      ],
      "stateMutability": "view",
      "type": "function"
    }
  ],
  "bytecode": "0x60806040523480156200001157600080fd5b5060405162001a5238038062001a528339810160408190526200003491620000de565b6200003f3362000071565b600380546001600160a01b039384166001600160a01b0319918216179091556002805492909316911617905562000116565b600080546001600160a01b038381166001600160a01b0319831681178455604051919092169283917f8be0079c531659141344cd1fd0a4f28419497f9722a3daafe3b4186f6b6457e09190a35050565b80516001600160a01b0381168114620000d957600080fd5b919050565b60008060408385031215620000f257600080fd5b620000fd83620000c1565b91506200010d60208401620000c1565b90509250929050565b61192c80620001266000396000f3fe608060405234801561001057600080fd5b50600436106100cf5760003560e01c8063715018a61161008c5780639addf188116100665780639addf188146101b55780639d53b949146101c8578063d6483d17146101f6578063f2fde38b1461020957600080fd5b8063715018a61461017f57806380349970146101875780638da5cb5b1461019a57600080fd5b8063150b7a02146100d45780632c2e3e46146101115780632da129c8146101265780633b219252146101395780635ff65d941461014c5780636f1773251461016c575b600080fd5b6100f36100e236600461101c565b630a85bd0160e11b95945050505050565b6040516001600160e01b031990911681526020015b60405180910390f35b61012461011f36600461115a565b61021c565b005b6101246101343660046111b4565b61030c565b61012461014736600461122b565b610406565b61015f61015a36600461127b565b610489565b6040516101089190611342565b61012461017a36600461149a565b6107fc565b6101246109f4565b6101246101953660046115c2565b610a08565b6000546040516001600160a01b039091168152602001610108565b6101246101c336600461127b565b610c23565b6101e86101d636600461166f565b60009081526004602052604090205490565b604051908152602001610108565b61012461020436600461127b565b610cc2565b610124610217366004611688565b610d69565b610224610de2565b8060068160405161023591906116aa565b9081526040519081900360200190205460ff1661026d5760405162461bcd60e51b8152600401610264906116c6565b60405180910390fd5b610278828585610e3c565b8460058360405161028991906116aa565b908152602001604051809103902085815481106102a8576102a86116f6565b90600052602060002090600a020160080160008282546102c89190611722565b9091555050604080518681524260208201527f06781dbf13cbe24b81cca7c592486459b9182c605dcb4edb27ef897a17884b6c910160405180910390a15050505050565b610314610de2565b8060068160405161032591906116aa565b9081526040519081900360200190205460ff166103545760405162461bcd60e51b8152600401610264906116c6565b61035f828585610e3c565b8760058360405161037091906116aa565b9081526020016040518091039020858154811061038f5761038f6116f6565b90600052602060002090600a020160080160008282546103af919061173b565b90915550506040805189815260208101899052908101879052606081018690527f9e6a720bba6499deb617f3059c8641e9c3265aa4c094aabd1347b292671da0139060800160405180910390a15050505050505050565b61040e610de2565b8060068160405161041f91906116aa565b9081526040519081900360200190205460ff1661044e5760405162461bcd60e51b8152600401610264906116c6565b610459828585610e3c565b60058260405161046991906116aa565b908152602001604051809103902060006104839190610f13565b50505050565b606060058260405161049b91906116aa565b9081526020016040518091039020805480602002602001604051908101604052809291908181526020016000905b828210156107f157838290600052602060002090600a020160405180610160016040529081600082015481526020016001820180546105079061174e565b80601f01602080910402602001604051908101604052809291908181526020018280546105339061174e565b80156105805780601f1061055557610100808354040283529160200191610580565b820191906000526020600020905b81548152906001019060200180831161056357829003601f168201915b505050505081526020016002820180546105999061174e565b80601f01602080910402602001604051908101604052809291908181526020018280546105c59061174e565b80156106125780601f106105e757610100808354040283529160200191610612565b820191906000526020600020905b8154815290600101906020018083116105f557829003601f168201915b5050509183525050600382015460209091019060ff16600281111561063957610639611308565b600281111561064a5761064a611308565b815260200160048201805461065e9061174e565b80601f016020809104026020016040519081016040528092919081815260200182805461068a9061174e565b80156106d75780601f106106ac576101008083540402835291602001916106d7565b820191906000526020600020905b8154815290600101906020018083116106ba57829003601f168201915b5050509183525050600582015460ff16151560208201526006820154604082015260078201805460609092019161070d9061174e565b80601f01602080910402602001604051908101604052809291908181526020018280546107399061174e565b80156107865780601f1061075b57610100808354040283529160200191610786565b820191906000526020600020905b81548152906001019060200180831161076957829003601f168201915b505050918352505060088201546020820152600982015460409091019060ff1660018111156107b7576107b7611308565b60018111156107c8576107c8611308565b815260099190910154610100900460ff16151560209182015290825260019290920191016104c9565b505050509050919050565b610804610de2565b8a60068160405161081591906116aa565b9081526040519081900360200190205460ff166108445760405162461bcd60e51b8152600401610264906116c6565b60058c60405161085491906116aa565b90815260200160405180910390206040518061016001604052808d81526020018c81526020018b81526020018a600281111561089257610892611308565b815260200189815260200188151581526020018781526020018681526020018581526020018460018111156108c9576108c9611308565b815260006020918201819052835460018181018655948252908290208351600a9092020190815590820151919290919082019061090690826117d7565b506040820151600282019061091b90826117d7565b50606082015160038201805460ff1916600183600281111561093f5761093f611308565b02179055506080820151600482019061095890826117d7565b5060a082015160058201805460ff191691151591909117905560c0820151600682015560e0820151600782019061098f90826117d7565b50610100820151600882015561012082015160098201805460ff1916600183818111156109be576109be611308565b02179055506101409190910151600990910180549115156101000261ff0019909216919091179055505050505050505050505050565b6109fc610de2565b610a066000610ec3565b565b610a10610de2565b60006040518060400160405280601c81526020017f19457468657265756d205369676e6564204d6573736167653a0a33320000000081525090506000818a604051602001610a5f929190611897565b60408051601f198184030181528282528051602091820120600080855291840180845281905260ff8d1692840192909252606083018b9052608083018a90529092509060019060a0016020604051602081039080840390855afa158015610aca573d6000803e3d6000fd5b5050604051601f1901516002549092506001600160a01b038084169116149050610b295760405162461bcd60e51b815260206004820152601060248201526f4e6f74207369676e656420627920514160801b6044820152606401610264565b610b34858888610e3c565b6001600586604051610b4691906116aa565b90815260200160405180910390208881548110610b6557610b656116f6565b6000918252602082206009600a909202010180549215156101000261ff001990931692909217909155600354604051636902622f60e11b81526001600160a01b039091169063d204c45e90610bc090309089906004016118b9565b6020604051808303816000875af1158015610bdf573d6000803e3d6000fd5b505050506040513d601f19601f82011682018060405250810190610c0391906118dd565b600097885260046020526040909720969096555050505050505050505050565b80600681604051610c3491906116aa565b9081526040519081900360200190205460ff16610c635760405162461bcd60e51b8152600401610264906116c6565b6000600683604051610c7591906116aa565b908152604051908190036020018120805492151560ff1990931692909217909155600590610ca49084906116aa565b90815260200160405180910390206000610cbe9190610f13565b5050565b80600681604051610cd391906116aa565b9081526040519081900360200190205460ff1615610d335760405162461bcd60e51b815260206004820152601a60248201527f436f6d70616e7920616c726561647920726567697374657265640000000000006044820152606401610264565b6001600683604051610d4591906116aa565b908152604051908190036020019020805491151560ff199092169190911790555050565b610d71610de2565b6001600160a01b038116610dd65760405162461bcd60e51b815260206004820152602660248201527f4f776e61626c653a206e6577206f776e657220697320746865207a65726f206160448201526564647265737360d01b6064820152608401610264565b610ddf81610ec3565b50565b6000546001600160a01b03163314610a065760405162461bcd60e51b815260206004820181905260248201527f4f776e61626c653a2063616c6c6572206973206e6f7420746865206f776e65726044820152606401610264565b6000600584604051610e4e91906116aa565b90815260200160405180910390208381548110610e6d57610e6d6116f6565b90600052602060002090600a02016000015490508082146104835760405162461bcd60e51b815260206004820152601060248201526f15dc9bdb99c81c1c9bd91d58dd08125160821b6044820152606401610264565b600080546001600160a01b038381166001600160a01b0319831681178455604051919092169283917f8be0079c531659141344cd1fd0a4f28419497f9722a3daafe3b4186f6b6457e09190a35050565b50805460008255600a0290600052602060002090810190610ddf91905b80821115610fb2576000808255610f4a6001830182610fb6565b610f58600283016000610fb6565b60038201805460ff19169055610f72600483016000610fb6565b60058201805460ff19169055600060068301819055610f95906007840190610fb6565b506000600882015560098101805461ffff19169055600a01610f30565b5090565b508054610fc29061174e565b6000825580601f10610fd2575050565b601f016020900490600052602060002090810190610ddf91905b80821115610fb25760008155600101610fec565b80356001600160a01b038116811461101757600080fd5b919050565b60008060008060006080868803121561103457600080fd5b61103d86611000565b945061104b60208701611000565b935060408601359250606086013567ffffffffffffffff8082111561106f57600080fd5b818801915088601f83011261108357600080fd5b81358181111561109257600080fd5b8960208285010111156110a457600080fd5b9699959850939650602001949392505050565b634e487b7160e01b600052604160045260246000fd5b600082601f8301126110de57600080fd5b813567ffffffffffffffff808211156110f9576110f96110b7565b604051601f8301601f19908116603f01168101908282118183101715611121576111216110b7565b8160405283815286602085880101111561113a57600080fd5b836020870160208301376000602085830101528094505050505092915050565b6000806000806080858703121561117057600080fd5b843593506020850135925060408501359150606085013567ffffffffffffffff81111561119c57600080fd5b6111a8878288016110cd565b91505092959194509250565b600080600080600080600060e0888a0312156111cf57600080fd5b873596506020880135955060408801359450606088013593506080880135925060a0880135915060c088013567ffffffffffffffff81111561121057600080fd5b61121c8a828b016110cd565b91505092959891949750929550565b60008060006060848603121561124057600080fd5b8335925060208401359150604084013567ffffffffffffffff81111561126557600080fd5b611271868287016110cd565b9150509250925092565b60006020828403121561128d57600080fd5b813567ffffffffffffffff8111156112a457600080fd5b6112b0848285016110cd565b949350505050565b60005b838110156112d35781810151838201526020016112bb565b50506000910152565b600081518084526112f48160208601602086016112b8565b601f01601f19169290920160200192915050565b634e487b7160e01b600052602160045260246000fd5b6003811061132e5761132e611308565b9052565b6002811061132e5761132e611308565b60006020808301818452808551808352604092508286019150828160051b87010184880160005b8381101561145e57603f1989840301855281516101608151855288820151818a870152611398828701826112dc565b91505087820151858203898701526113b082826112dc565b9150506060808301516113c58288018261131e565b5050608080830151868303828801526113de83826112dc565b9250505060a0808301516113f58288018215159052565b505060c0828101519086015260e0808301518683038288015261141883826112dc565b925050506101008083015181870152506101208083015161143b82880182611332565b505061014091820151151594909101939093529386019390860190600101611369565b509098975050505050505050565b80356003811061101757600080fd5b8035801515811461101757600080fd5b80356002811061101757600080fd5b60008060008060008060008060008060006101608c8e0312156114bc57600080fd5b67ffffffffffffffff808d3511156114d357600080fd5b6114e08e8e358f016110cd565b9b5060208d01359a508060408e013511156114fa57600080fd5b61150a8e60408f01358f016110cd565b99508060608e0135111561151d57600080fd5b61152d8e60608f01358f016110cd565b985061153b60808e0161146c565b97508060a08e0135111561154e57600080fd5b61155e8e60a08f01358f016110cd565b965061156c60c08e0161147b565b955060e08d01359450806101008e0135111561158757600080fd5b506115998d6101008e01358e016110cd565b92506101208c013591506115b06101408d0161148b565b90509295989b509295989b9093969950565b600080600080600080600080610100898b0312156115df57600080fd5b88359750602089013560ff811681146115f757600080fd5b965060408901359550606089013594506080890135935060a0890135925060c089013567ffffffffffffffff8082111561163057600080fd5b61163c8c838d016110cd565b935060e08b013591508082111561165257600080fd5b5061165f8b828c016110cd565b9150509295985092959890939650565b60006020828403121561168157600080fd5b5035919050565b60006020828403121561169a57600080fd5b6116a382611000565b9392505050565b600082516116bc8184602087016112b8565b9190910192915050565b60208082526016908201527510dbdb5c185b9e481b9bdd081c9959da5cdd195c995960521b604082015260600190565b634e487b7160e01b600052603260045260246000fd5b634e487b7160e01b600052601160045260246000fd5b818103818111156117355761173561170c565b92915050565b808201808211156117355761173561170c565b600181811c9082168061176257607f821691505b60208210810361178257634e487b7160e01b600052602260045260246000fd5b50919050565b601f8211156117d257600081815260208120601f850160051c810160208610156117af5750805b601f850160051c820191505b818110156117ce578281556001016117bb565b5050505b505050565b815167ffffffffffffffff8111156117f1576117f16110b7565b611805816117ff845461174e565b84611788565b602080601f83116001811461183a57600084156118225750858301515b600019600386901b1c1916600185901b1785556117ce565b600085815260208120601f198616915b828110156118695788860151825594840194600190910190840161184a565b50858210156118875787850151600019600388901b60f8161c191681555b5050505050600190811b01905550565b600083516118a98184602088016112b8565b9190910191825250602001919050565b6001600160a01b03831681526040602082018190526000906112b0908301846112dc565b6000602082840312156118ef57600080fd5b505191905056fea2646970667358221220243ebbf1e9ea413dbfe48766002978593cbcd0c364bc787448647d54cd04ceb964736f6c63430008110033",
  "linkReferences": {},
  "deployedLinkReferences": {}
}