{
  "_format": "hh-sol-artifact-1",
  "contractName": "Flowex",
  "sourceName": "contracts/Flowex.sol",
  "abi": [
    {
      "inputs": [
        {
          "internalType": "address",
          "name": "_nftContractAddress",
          "type": "address"
        },
        {
          "internalType": "address",
          "name": "_qaAddress",
          "type": "address"
        }
      ],
      "stateMutability": "nonpayable",
      "type": "constructor"
    },
    {
      "anonymous": false,
      "inputs": [
        {
          "indexed": false,
          "internalType": "uint256",
          "name": "amount",
          "type": "uint256"
        },
        {
          "indexed": false,
          "internalType": "uint256",
          "name": "timestamp",
          "type": "uint256"
        },
        {
          "indexed": false,
          "internalType": "uint256",
          "name": "latitude",
          "type": "uint256"
        },
        {
          "indexed": false,
          "internalType": "uint256",
          "name": "longitude",
          "type": "uint256"
        }
      ],
      "name": "AddSupply",
      "type": "event"
    },
    {
      "anonymous": false,
      "inputs": [
        {
          "indexed": true,
          "internalType": "address",
          "name": "previousOwner",
          "type": "address"
        },
        {
          "indexed": true,
          "internalType": "address",
          "name": "newOwner",
          "type": "address"
        }
      ],
      "name": "OwnershipTransferred",
      "type": "event"
    },
    {
      "anonymous": false,
      "inputs": [
        {
          "indexed": false,
          "internalType": "uint256",
          "name": "amount",
          "type": "uint256"
        },
        {
          "indexed": false,
          "internalType": "uint256",
          "name": "timestamp",
          "type": "uint256"
        }
      ],
      "name": "RemoveSupply",
      "type": "event"
    },
    {
      "inputs": [
        {
          "internalType": "string",
          "name": "companyName",
          "type": "string"
        }
      ],
      "name": "addCompany",
      "outputs": [],
      "stateMutability": "nonpayable",
      "type": "function"
    },
    {
      "inputs": [
        {
          "internalType": "string",
          "name": "_companyName",
          "type": "string"
        },
        {
          "internalType": "uint256",
          "name": "_productID",
          "type": "uint256"
        },
        {
          "internalType": "string",
          "name": "_treeType",
          "type": "string"
        },
        {
          "internalType": "string",
          "name": "_location",
          "type": "string"
        },
        {
          "internalType": "enum Flowex.WoodType",
          "name": "_woodType",
          "type": "uint8"
        },
        {
          "internalType": "string",
          "name": "_colour",
          "type": "string"
        },
        {
          "internalType": "bool",
          "name": "_isRaw",
          "type": "bool"
        },
        {
          "internalType": "uint256",
          "name": "_pricePerUnit",
          "type": "uint256"
        },
        {
          "internalType": "string",
          "name": "_photo",
          "type": "string"
        },
        {
          "internalType": "uint256",
          "name": "_amount",
          "type": "uint256"
        },
        {
          "internalType": "enum Flowex.Unit",
          "name": "_unit",
          "type": "uint8"
        }
      ],
      "name": "addProdcut",
      "outputs": [],
      "stateMutability": "nonpayable",
      "type": "function"
    },
    {
      "inputs": [
        {
          "internalType": "uint256",
          "name": "amount",
          "type": "uint256"
        },
        {
          "internalType": "uint256",
          "name": "timestamp",
          "type": "uint256"
        },
        {
          "internalType": "uint256",
          "name": "latitude",
          "type": "uint256"
        },
        {
          "internalType": "uint256",
          "name": "longitude",
          "type": "uint256"
        },
        {
          "internalType": "uint256",
          "name": "productIndex",
          "type": "uint256"
        },
        {
          "internalType": "uint256",
          "name": "productID",
          "type": "uint256"
        },
        {
          "internalType": "string",
          "name": "companyName",
          "type": "string"
        }
      ],
      "name": "addSupply",
      "outputs": [],
      "stateMutability": "nonpayable",
      "type": "function"
    },
    {
      "inputs": [
        {
          "internalType": "bytes32",
          "name": "_hashedMessage",
          "type": "bytes32"
        },
        {
          "internalType": "uint8",
          "name": "_v",
          "type": "uint8"
        },
        {
          "internalType": "bytes32",
          "name": "_r",
          "type": "bytes32"
        },
        {
          "internalType": "bytes32",
          "name": "_s",
          "type": "bytes32"
        },
        {
          "internalType": "uint256",
          "name": "productIndex",
          "type": "uint256"
        },
        {
          "internalType": "uint256",
          "name": "productID",
          "type": "uint256"
        },
        {
          "internalType": "string",
          "name": "companyName",
          "type": "string"
        },
        {
          "internalType": "string",
          "name": "baseURI",
          "type": "string"
        }
      ],
      "name": "approveProduct",
      "outputs": [],
      "stateMutability": "nonpayable",
      "type": "function"
    },
    {
      "inputs": [
        {
          "internalType": "string",
          "name": "companyName",
          "type": "string"
        }
      ],
      "name": "disapproveCompany",
      "outputs": [],
      "stateMutability": "nonpayable",
      "type": "function"
    },
    {
      "inputs": [
        {
          "internalType": "string",
          "name": "companyName",
          "type": "string"
        }
      ],
      "name": "getAllProducts",
      "outputs": [
        {
          "components": [
            {
              "internalType": "uint256",
              "name": "productID",
              "type": "uint256"
            },
            {
              "internalType": "string",
              "name": "treeType",
              "type": "string"
            },
            {
              "internalType": "string",
              "name": "location",
              "type": "string"
            },
            {
              "internalType": "enum Flowex.WoodType",
              "name": "woodType",
              "type": "uint8"
            },
            {
              "internalType": "string",
              "name": "colour",
              "type": "string"
            },
            {
              "internalType": "bool",
              "name": "isRaw",
              "type": "bool"
            },
            {
              "internalType": "uint256",
              "name": "pricePerUnit",
              "type": "uint256"
            },
            {
              "internalType": "string",
              "name": "photo",
              "type": "string"
            },
            {
              "internalType": "uint256",
              "name": "amount",
              "type": "uint256"
            },
            {
              "internalType": "enum Flowex.Unit",
              "name": "unit",
              "type": "uint8"
            },
            {
              "internalType": "bool",
              "name": "approved",
              "type": "bool"
            }
          ],
          "internalType": "struct Flowex.Product[]",
          "name": "",
          "type": "tuple[]"
        }
      ],
      "stateMutability": "view",
      "type": "function"
    },
    {
      "inputs": [],
      "name": "owner",
      "outputs": [
        {
          "internalType": "address",
          "name": "",
          "type": "address"
        }
      ],
      "stateMutability": "view",
      "type": "function"
    },
    {
      "inputs": [
        {
          "internalType": "uint256",
          "name": "productIndex",
          "type": "uint256"
        },
        {
          "internalType": "uint256",
          "name": "productID",
          "type": "uint256"
        },
        {
          "internalType": "string",
          "name": "companyName",
          "type": "string"
        }
      ],
      "name": "removeProduct",
      "outputs": [],
      "stateMutability": "nonpayable",
      "type": "function"
    },
    {
      "inputs": [
        {
          "internalType": "uint256",
          "name": "amount",
          "type": "uint256"
        },
        {
          "internalType": "uint256",
          "name": "productIndex",
          "type": "uint256"
        },
        {
          "internalType": "uint256",
          "name": "productID",
          "type": "uint256"
        },
        {
          "internalType": "string",
          "name": "companyName",
          "type": "string"
        }
      ],
      "name": "removeSupply",
      "outputs": [],
      "stateMutability": "nonpayable",
      "type": "function"
    },
    {
      "inputs": [],
      "name": "renounceOwnership",
      "outputs": [],
      "stateMutability": "nonpayable",
      "type": "function"
    },
    {
      "inputs": [
        {
          "internalType": "address",
          "name": "newOwner",
          "type": "address"
        }
      ],
      "name": "transferOwnership",
      "outputs": [],
      "stateMutability": "nonpayable",
      "type": "function"
    },
    {
      "inputs": [
        {
          "internalType": "uint256",
          "name": "productId",
          "type": "uint256"
        }
      ],
      "name": "verifyProductCertificate",
      "outputs": [
        {
          "internalType": "uint256",
          "name": "",
          "type": "uint256"
        }
      ],
      "stateMutability": "view",
      "type": "function"
    }
  ],
  "bytecode": "0x60806040523480156200001157600080fd5b506040516200195f3803806200195f8339810160408190526200003491620000de565b6200003f3362000071565b600380546001600160a01b039384166001600160a01b0319918216179091556002805492909316911617905562000116565b600080546001600160a01b038381166001600160a01b0319831681178455604051919092169283917f8be0079c531659141344cd1fd0a4f28419497f9722a3daafe3b4186f6b6457e09190a35050565b80516001600160a01b0381168114620000d957600080fd5b919050565b60008060408385031215620000f257600080fd5b620000fd83620000c1565b91506200010d60208401620000c1565b90509250929050565b61183980620001266000396000f3fe608060405234801561001057600080fd5b50600436106100b45760003560e01c8063803499701161007157806380349970146101385780638da5cb5b1461014b5780639addf188146101665780639d53b94914610179578063d6483d17146101a7578063f2fde38b146101ba57600080fd5b80632c2e3e46146100b95780632da129c8146100ce5780633b219252146100e15780635ff65d94146100f45780636f67f1581461011d578063715018a614610130575b600080fd5b6100cc6100c7366004611054565b6101cd565b005b6100cc6100dc3660046110ae565b6102bd565b6100cc6100ef366004611125565b6103b7565b610107610102366004611175565b61043a565b604051610114919061123c565b60405180910390f35b6100cc61012b366004611399565b6107ad565b6100cc6109a5565b6100cc6101463660046114c1565b6109b9565b6000546040516001600160a01b039091168152602001610114565b6100cc610174366004611175565b610bd4565b61019961018736600461156e565b60009081526004602052604090205490565b604051908152602001610114565b6100cc6101b5366004611175565b610c73565b6100cc6101c8366004611587565b610d1a565b6101d5610d93565b806006816040516101e691906115b7565b9081526040519081900360200190205460ff1661021e5760405162461bcd60e51b8152600401610215906115d3565b60405180910390fd5b610229828585610ded565b8460058360405161023a91906115b7565b9081526020016040518091039020858154811061025957610259611603565b90600052602060002090600a02016008016000828254610279919061162f565b9091555050604080518681524260208201527f06781dbf13cbe24b81cca7c592486459b9182c605dcb4edb27ef897a17884b6c910160405180910390a15050505050565b6102c5610d93565b806006816040516102d691906115b7565b9081526040519081900360200190205460ff166103055760405162461bcd60e51b8152600401610215906115d3565b610310828585610ded565b8760058360405161032191906115b7565b9081526020016040518091039020858154811061034057610340611603565b90600052602060002090600a020160080160008282546103609190611648565b90915550506040805189815260208101899052908101879052606081018690527f9e6a720bba6499deb617f3059c8641e9c3265aa4c094aabd1347b292671da0139060800160405180910390a15050505050505050565b6103bf610d93565b806006816040516103d091906115b7565b9081526040519081900360200190205460ff166103ff5760405162461bcd60e51b8152600401610215906115d3565b61040a828585610ded565b60058260405161041a91906115b7565b908152602001604051809103902060006104349190610ec4565b50505050565b606060058260405161044c91906115b7565b9081526020016040518091039020805480602002602001604051908101604052809291908181526020016000905b828210156107a257838290600052602060002090600a020160405180610160016040529081600082015481526020016001820180546104b89061165b565b80601f01602080910402602001604051908101604052809291908181526020018280546104e49061165b565b80156105315780601f1061050657610100808354040283529160200191610531565b820191906000526020600020905b81548152906001019060200180831161051457829003601f168201915b5050505050815260200160028201805461054a9061165b565b80601f01602080910402602001604051908101604052809291908181526020018280546105769061165b565b80156105c35780601f10610598576101008083540402835291602001916105c3565b820191906000526020600020905b8154815290600101906020018083116105a657829003601f168201915b5050509183525050600382015460209091019060ff1660028111156105ea576105ea611202565b60028111156105fb576105fb611202565b815260200160048201805461060f9061165b565b80601f016020809104026020016040519081016040528092919081815260200182805461063b9061165b565b80156106885780601f1061065d57610100808354040283529160200191610688565b820191906000526020600020905b81548152906001019060200180831161066b57829003601f168201915b5050509183525050600582015460ff1615156020820152600682015460408201526007820180546060909201916106be9061165b565b80601f01602080910402602001604051908101604052809291908181526020018280546106ea9061165b565b80156107375780601f1061070c57610100808354040283529160200191610737565b820191906000526020600020905b81548152906001019060200180831161071a57829003601f168201915b505050918352505060088201546020820152600982015460409091019060ff16600181111561076857610768611202565b600181111561077957610779611202565b815260099190910154610100900460ff161515602091820152908252600192909201910161047a565b505050509050919050565b6107b5610d93565b8a6006816040516107c691906115b7565b9081526040519081900360200190205460ff166107f55760405162461bcd60e51b8152600401610215906115d3565b60058c60405161080591906115b7565b90815260200160405180910390206040518061016001604052808d81526020018c81526020018b81526020018a600281111561084357610843611202565b8152602001898152602001881515815260200187815260200186815260200185815260200184600181111561087a5761087a611202565b815260006020918201819052835460018181018655948252908290208351600a909202019081559082015191929091908201906108b790826116e4565b50604082015160028201906108cc90826116e4565b50606082015160038201805460ff191660018360028111156108f0576108f0611202565b02179055506080820151600482019061090990826116e4565b5060a082015160058201805460ff191691151591909117905560c0820151600682015560e0820151600782019061094090826116e4565b50610100820151600882015561012082015160098201805460ff19166001838181111561096f5761096f611202565b02179055506101409190910151600990910180549115156101000261ff0019909216919091179055505050505050505050505050565b6109ad610d93565b6109b76000610e74565b565b6109c1610d93565b60006040518060400160405280601c81526020017f19457468657265756d205369676e6564204d6573736167653a0a33320000000081525090506000818a604051602001610a109291906117a4565b60408051601f198184030181528282528051602091820120600080855291840180845281905260ff8d1692840192909252606083018b9052608083018a90529092509060019060a0016020604051602081039080840390855afa158015610a7b573d6000803e3d6000fd5b5050604051601f1901516002549092506001600160a01b038084169116149050610ada5760405162461bcd60e51b815260206004820152601060248201526f4e6f74207369676e656420627920514160801b6044820152606401610215565b610ae5858888610ded565b6001600586604051610af791906115b7565b90815260200160405180910390208881548110610b1657610b16611603565b6000918252602082206009600a909202010180549215156101000261ff001990931692909217909155600354604051636902622f60e11b81526001600160a01b039091169063d204c45e90610b7190309089906004016117c6565b6020604051808303816000875af1158015610b90573d6000803e3d6000fd5b505050506040513d601f19601f82011682018060405250810190610bb491906117ea565b600097885260046020526040909720969096555050505050505050505050565b80600681604051610be591906115b7565b9081526040519081900360200190205460ff16610c145760405162461bcd60e51b8152600401610215906115d3565b6000600683604051610c2691906115b7565b908152604051908190036020018120805492151560ff1990931692909217909155600590610c559084906115b7565b90815260200160405180910390206000610c6f9190610ec4565b5050565b80600681604051610c8491906115b7565b9081526040519081900360200190205460ff1615610ce45760405162461bcd60e51b815260206004820152601a60248201527f436f6d70616e7920616c726561647920726567697374657265640000000000006044820152606401610215565b6001600683604051610cf691906115b7565b908152604051908190036020019020805491151560ff199092169190911790555050565b610d22610d93565b6001600160a01b038116610d875760405162461bcd60e51b815260206004820152602660248201527f4f776e61626c653a206e6577206f776e657220697320746865207a65726f206160448201526564647265737360d01b6064820152608401610215565b610d9081610e74565b50565b6000546001600160a01b031633146109b75760405162461bcd60e51b815260206004820181905260248201527f4f776e61626c653a2063616c6c6572206973206e6f7420746865206f776e65726044820152606401610215565b6000600584604051610dff91906115b7565b90815260200160405180910390208381548110610e1e57610e1e611603565b90600052602060002090600a02016000015490508082146104345760405162461bcd60e51b815260206004820152601060248201526f15dc9bdb99c81c1c9bd91d58dd08125160821b6044820152606401610215565b600080546001600160a01b038381166001600160a01b0319831681178455604051919092169283917f8be0079c531659141344cd1fd0a4f28419497f9722a3daafe3b4186f6b6457e09190a35050565b50805460008255600a0290600052602060002090810190610d9091905b80821115610f63576000808255610efb6001830182610f67565b610f09600283016000610f67565b60038201805460ff19169055610f23600483016000610f67565b60058201805460ff19169055600060068301819055610f46906007840190610f67565b506000600882015560098101805461ffff19169055600a01610ee1565b5090565b508054610f739061165b565b6000825580601f10610f83575050565b601f016020900490600052602060002090810190610d9091905b80821115610f635760008155600101610f9d565b634e487b7160e01b600052604160045260246000fd5b600082601f830112610fd857600080fd5b813567ffffffffffffffff80821115610ff357610ff3610fb1565b604051601f8301601f19908116603f0116810190828211818310171561101b5761101b610fb1565b8160405283815286602085880101111561103457600080fd5b836020870160208301376000602085830101528094505050505092915050565b6000806000806080858703121561106a57600080fd5b843593506020850135925060408501359150606085013567ffffffffffffffff81111561109657600080fd5b6110a287828801610fc7565b91505092959194509250565b600080600080600080600060e0888a0312156110c957600080fd5b873596506020880135955060408801359450606088013593506080880135925060a0880135915060c088013567ffffffffffffffff81111561110a57600080fd5b6111168a828b01610fc7565b91505092959891949750929550565b60008060006060848603121561113a57600080fd5b8335925060208401359150604084013567ffffffffffffffff81111561115f57600080fd5b61116b86828701610fc7565b9150509250925092565b60006020828403121561118757600080fd5b813567ffffffffffffffff81111561119e57600080fd5b6111aa84828501610fc7565b949350505050565b60005b838110156111cd5781810151838201526020016111b5565b50506000910152565b600081518084526111ee8160208601602086016111b2565b601f01601f19169290920160200192915050565b634e487b7160e01b600052602160045260246000fd5b6003811061122857611228611202565b9052565b6002811061122857611228611202565b60006020808301818452808551808352604092508286019150828160051b87010184880160005b8381101561135857603f1989840301855281516101608151855288820151818a870152611292828701826111d6565b91505087820151858203898701526112aa82826111d6565b9150506060808301516112bf82880182611218565b5050608080830151868303828801526112d883826111d6565b9250505060a0808301516112ef8288018215159052565b505060c0828101519086015260e0808301518683038288015261131283826111d6565b92505050610100808301518187015250610120808301516113358288018261122c565b505061014091820151151594909101939093529386019390860190600101611263565b509098975050505050505050565b80356003811061137557600080fd5b919050565b8035801515811461137557600080fd5b80356002811061137557600080fd5b60008060008060008060008060008060006101608c8e0312156113bb57600080fd5b67ffffffffffffffff808d3511156113d257600080fd5b6113df8e8e358f01610fc7565b9b5060208d01359a508060408e013511156113f957600080fd5b6114098e60408f01358f01610fc7565b99508060608e0135111561141c57600080fd5b61142c8e60608f01358f01610fc7565b985061143a60808e01611366565b97508060a08e0135111561144d57600080fd5b61145d8e60a08f01358f01610fc7565b965061146b60c08e0161137a565b955060e08d01359450806101008e0135111561148657600080fd5b506114988d6101008e01358e01610fc7565b92506101208c013591506114af6101408d0161138a565b90509295989b509295989b9093969950565b600080600080600080600080610100898b0312156114de57600080fd5b88359750602089013560ff811681146114f657600080fd5b965060408901359550606089013594506080890135935060a0890135925060c089013567ffffffffffffffff8082111561152f57600080fd5b61153b8c838d01610fc7565b935060e08b013591508082111561155157600080fd5b5061155e8b828c01610fc7565b9150509295985092959890939650565b60006020828403121561158057600080fd5b5035919050565b60006020828403121561159957600080fd5b81356001600160a01b03811681146115b057600080fd5b9392505050565b600082516115c98184602087016111b2565b9190910192915050565b60208082526016908201527510dbdb5c185b9e481b9bdd081c9959da5cdd195c995960521b604082015260600190565b634e487b7160e01b600052603260045260246000fd5b634e487b7160e01b600052601160045260246000fd5b8181038181111561164257611642611619565b92915050565b8082018082111561164257611642611619565b600181811c9082168061166f57607f821691505b60208210810361168f57634e487b7160e01b600052602260045260246000fd5b50919050565b601f8211156116df57600081815260208120601f850160051c810160208610156116bc5750805b601f850160051c820191505b818110156116db578281556001016116c8565b5050505b505050565b815167ffffffffffffffff8111156116fe576116fe610fb1565b6117128161170c845461165b565b84611695565b602080601f831160018114611747576000841561172f5750858301515b600019600386901b1c1916600185901b1785556116db565b600085815260208120601f198616915b8281101561177657888601518255948401946001909101908401611757565b50858210156117945787850151600019600388901b60f8161c191681555b5050505050600190811b01905550565b600083516117b68184602088016111b2565b9190910191825250602001919050565b6001600160a01b03831681526040602082018190526000906111aa908301846111d6565b6000602082840312156117fc57600080fd5b505191905056fea2646970667358221220799ab87494055c39bd924179839f132b7950f71a792c2ec1bf99dfd77cc91c7e64736f6c63430008110033",
  "linkReferences": {},
  "deployedLinkReferences": {}
}