{
  "_format": "hh-sol-artifact-1",
  "contractName": "Flowex",
  "sourceName": "contracts/Flowex.sol",
  "abi": [
    {
      "inputs": [
        {
          "internalType": "address",
          "name": "_nftContractAddress",
          "type": "address"
        },
        {
          "internalType": "address",
          "name": "_qaAddress",
          "type": "address"
        }
      ],
      "stateMutability": "nonpayable",
      "type": "constructor"
    },
    {
      "anonymous": false,
      "inputs": [
        {
          "indexed": false,
          "internalType": "uint256",
          "name": "amount",
          "type": "uint256"
        },
        {
          "indexed": false,
          "internalType": "uint256",
          "name": "timestamp",
          "type": "uint256"
        },
        {
          "indexed": false,
          "internalType": "uint256",
          "name": "latitude",
          "type": "uint256"
        },
        {
          "indexed": false,
          "internalType": "uint256",
          "name": "longitude",
          "type": "uint256"
        }
      ],
      "name": "AddSupply",
      "type": "event"
    },
    {
      "anonymous": false,
      "inputs": [
        {
          "indexed": true,
          "internalType": "address",
          "name": "previousOwner",
          "type": "address"
        },
        {
          "indexed": true,
          "internalType": "address",
          "name": "newOwner",
          "type": "address"
        }
      ],
      "name": "OwnershipTransferred",
      "type": "event"
    },
    {
      "anonymous": false,
      "inputs": [
        {
          "indexed": false,
          "internalType": "uint256",
          "name": "amount",
          "type": "uint256"
        },
        {
          "indexed": false,
          "internalType": "uint256",
          "name": "timestamp",
          "type": "uint256"
        }
      ],
      "name": "RemoveSupply",
      "type": "event"
    },
    {
      "inputs": [
        {
          "internalType": "string",
          "name": "companyName",
          "type": "string"
        }
      ],
      "name": "addCompany",
      "outputs": [],
      "stateMutability": "nonpayable",
      "type": "function"
    },
    {
      "inputs": [
        {
          "internalType": "string",
          "name": "_companyName",
          "type": "string"
        },
        {
          "internalType": "uint256",
          "name": "_productID",
          "type": "uint256"
        },
        {
          "internalType": "string",
          "name": "_treeType",
          "type": "string"
        },
        {
          "internalType": "string",
          "name": "_location",
          "type": "string"
        },
        {
          "internalType": "enum Flowex.WoodType",
          "name": "_woodType",
          "type": "uint8"
        },
        {
          "internalType": "string",
          "name": "_colour",
          "type": "string"
        },
        {
          "internalType": "bool",
          "name": "_isRaw",
          "type": "bool"
        },
        {
          "internalType": "uint256",
          "name": "_pricePerUnit",
          "type": "uint256"
        },
        {
          "internalType": "string",
          "name": "_photo",
          "type": "string"
        },
        {
          "internalType": "uint256",
          "name": "_amount",
          "type": "uint256"
        },
        {
          "internalType": "enum Flowex.Unit",
          "name": "_unit",
          "type": "uint8"
        }
      ],
      "name": "addProduct",
      "outputs": [],
      "stateMutability": "nonpayable",
      "type": "function"
    },
    {
      "inputs": [
        {
          "internalType": "uint256",
          "name": "amount",
          "type": "uint256"
        },
        {
          "internalType": "uint256",
          "name": "timestamp",
          "type": "uint256"
        },
        {
          "internalType": "uint256",
          "name": "latitude",
          "type": "uint256"
        },
        {
          "internalType": "uint256",
          "name": "longitude",
          "type": "uint256"
        },
        {
          "internalType": "uint256",
          "name": "productIndex",
          "type": "uint256"
        },
        {
          "internalType": "uint256",
          "name": "productID",
          "type": "uint256"
        },
        {
          "internalType": "string",
          "name": "companyName",
          "type": "string"
        }
      ],
      "name": "addSupply",
      "outputs": [],
      "stateMutability": "nonpayable",
      "type": "function"
    },
    {
      "inputs": [
        {
          "internalType": "bytes32",
          "name": "_hashedMessage",
          "type": "bytes32"
        },
        {
          "internalType": "uint8",
          "name": "_v",
          "type": "uint8"
        },
        {
          "internalType": "bytes32",
          "name": "_r",
          "type": "bytes32"
        },
        {
          "internalType": "bytes32",
          "name": "_s",
          "type": "bytes32"
        },
        {
          "internalType": "uint256",
          "name": "productIndex",
          "type": "uint256"
        },
        {
          "internalType": "uint256",
          "name": "productID",
          "type": "uint256"
        },
        {
          "internalType": "string",
          "name": "companyName",
          "type": "string"
        },
        {
          "internalType": "string",
          "name": "baseURI",
          "type": "string"
        }
      ],
      "name": "approveProduct",
      "outputs": [],
      "stateMutability": "nonpayable",
      "type": "function"
    },
    {
      "inputs": [
        {
          "internalType": "string",
          "name": "companyName",
          "type": "string"
        },
        {
          "internalType": "uint256",
          "name": "productIndex",
          "type": "uint256"
        },
        {
          "internalType": "uint256",
          "name": "productID",
          "type": "uint256"
        }
      ],
      "name": "chcekProductID",
      "outputs": [],
      "stateMutability": "view",
      "type": "function"
    },
    {
      "inputs": [
        {
          "internalType": "string",
          "name": "companyName",
          "type": "string"
        }
      ],
      "name": "disapproveCompany",
      "outputs": [],
      "stateMutability": "nonpayable",
      "type": "function"
    },
    {
      "inputs": [
        {
          "internalType": "string",
          "name": "companyName",
          "type": "string"
        }
      ],
      "name": "getAllProducts",
      "outputs": [
        {
          "components": [
            {
              "internalType": "uint256",
              "name": "productID",
              "type": "uint256"
            },
            {
              "internalType": "string",
              "name": "treeType",
              "type": "string"
            },
            {
              "internalType": "string",
              "name": "location",
              "type": "string"
            },
            {
              "internalType": "enum Flowex.WoodType",
              "name": "woodType",
              "type": "uint8"
            },
            {
              "internalType": "string",
              "name": "colour",
              "type": "string"
            },
            {
              "internalType": "bool",
              "name": "isRaw",
              "type": "bool"
            },
            {
              "internalType": "uint256",
              "name": "pricePerUnit",
              "type": "uint256"
            },
            {
              "internalType": "string",
              "name": "photo",
              "type": "string"
            },
            {
              "internalType": "uint256",
              "name": "amount",
              "type": "uint256"
            },
            {
              "internalType": "enum Flowex.Unit",
              "name": "unit",
              "type": "uint8"
            },
            {
              "internalType": "bool",
              "name": "approved",
              "type": "bool"
            }
          ],
          "internalType": "struct Flowex.Product[]",
          "name": "",
          "type": "tuple[]"
        }
      ],
      "stateMutability": "view",
      "type": "function"
    },
    {
      "inputs": [
        {
          "internalType": "address",
          "name": "",
          "type": "address"
        },
        {
          "internalType": "address",
          "name": "",
          "type": "address"
        },
        {
          "internalType": "uint256",
          "name": "",
          "type": "uint256"
        },
        {
          "internalType": "bytes",
          "name": "",
          "type": "bytes"
        }
      ],
      "name": "onERC721Received",
      "outputs": [
        {
          "internalType": "bytes4",
          "name": "",
          "type": "bytes4"
        }
      ],
      "stateMutability": "pure",
      "type": "function"
    },
    {
      "inputs": [],
      "name": "owner",
      "outputs": [
        {
          "internalType": "address",
          "name": "",
          "type": "address"
        }
      ],
      "stateMutability": "view",
      "type": "function"
    },
    {
      "inputs": [
        {
          "internalType": "uint256",
          "name": "productIndex",
          "type": "uint256"
        },
        {
          "internalType": "uint256",
          "name": "productID",
          "type": "uint256"
        },
        {
          "internalType": "string",
          "name": "companyName",
          "type": "string"
        }
      ],
      "name": "removeProduct",
      "outputs": [],
      "stateMutability": "nonpayable",
      "type": "function"
    },
    {
      "inputs": [
        {
          "internalType": "uint256",
          "name": "amount",
          "type": "uint256"
        },
        {
          "internalType": "uint256",
          "name": "productIndex",
          "type": "uint256"
        },
        {
          "internalType": "uint256",
          "name": "productID",
          "type": "uint256"
        },
        {
          "internalType": "string",
          "name": "companyName",
          "type": "string"
        }
      ],
      "name": "removeSupply",
      "outputs": [],
      "stateMutability": "nonpayable",
      "type": "function"
    },
    {
      "inputs": [],
      "name": "renounceOwnership",
      "outputs": [],
      "stateMutability": "nonpayable",
      "type": "function"
    },
    {
      "inputs": [
        {
          "internalType": "address",
          "name": "newOwner",
          "type": "address"
        }
      ],
      "name": "transferOwnership",
      "outputs": [],
      "stateMutability": "nonpayable",
      "type": "function"
    },
    {
      "inputs": [
        {
          "internalType": "uint256",
          "name": "productId",
          "type": "uint256"
        }
      ],
      "name": "verifyProductCertificate",
      "outputs": [
        {
          "internalType": "uint256",
          "name": "",
          "type": "uint256"
        }
      ],
      "stateMutability": "view",
      "type": "function"
    }
  ],
  "bytecode": "0x60806040523480156200001157600080fd5b5060405162001aca38038062001aca8339810160408190526200003491620000de565b6200003f3362000071565b600380546001600160a01b039384166001600160a01b0319918216179091556002805492909316911617905562000116565b600080546001600160a01b038381166001600160a01b0319831681178455604051919092169283917f8be0079c531659141344cd1fd0a4f28419497f9722a3daafe3b4186f6b6457e09190a35050565b80516001600160a01b0381168114620000d957600080fd5b919050565b60008060408385031215620000f257600080fd5b620000fd83620000c1565b91506200010d60208401620000c1565b90509250929050565b6119a480620001266000396000f3fe608060405234801561001057600080fd5b50600436106100ea5760003560e01c8063715018a61161008c5780639addf188116100665780639addf188146101e35780639d53b949146101f6578063d6483d1714610224578063f2fde38b1461023757600080fd5b8063715018a6146101ad57806380349970146101b55780638da5cb5b146101c857600080fd5b80632da129c8116100c85780632da129c8146101545780633b219252146101675780635ff65d941461017a5780636f1773251461019a57600080fd5b80630f1f31ac146100ef578063150b7a02146101045780632c2e3e4614610141575b600080fd5b6101026100fd3660046110cd565b61024a565b005b610123610112366004611137565b630a85bd0160e11b95945050505050565b6040516001600160e01b031990911681526020015b60405180910390f35b61010261014f3660046111d2565b6102dc565b61010261016236600461122c565b6103c3565b6101026101753660046112a3565b6104bd565b61018d6101883660046112f3565b61053a565b60405161013891906113ba565b6101026101a8366004611512565b6108ad565b610102610aa5565b6101026101c336600461163a565b610ab9565b6000546040516001600160a01b039091168152602001610138565b6101026101f13660046112f3565b610cd4565b6102166102043660046116e7565b60009081526004602052604090205490565b604051908152602001610138565b6101026102323660046112f3565b610d73565b610102610245366004611700565b610e1a565b600060058460405161025c9190611722565b9081526020016040518091039020838154811061027b5761027b61173e565b90600052602060002090600a02016000015490508082146102d65760405162461bcd60e51b815260206004820152601060248201526f15dc9bdb99c81c1c9bd91d58dd08125160821b60448201526064015b60405180910390fd5b50505050565b6102e4610e93565b806006816040516102f59190611722565b9081526040519081900360200190205460ff166103245760405162461bcd60e51b81526004016102cd90611754565b61032f82858561024a565b846005836040516103409190611722565b9081526020016040518091039020858154811061035f5761035f61173e565b90600052602060002090600a0201600801600082825461037f919061179a565b9091555050604080518681524260208201527f06781dbf13cbe24b81cca7c592486459b9182c605dcb4edb27ef897a17884b6c910160405180910390a15050505050565b6103cb610e93565b806006816040516103dc9190611722565b9081526040519081900360200190205460ff1661040b5760405162461bcd60e51b81526004016102cd90611754565b61041682858561024a565b876005836040516104279190611722565b908152602001604051809103902085815481106104465761044661173e565b90600052602060002090600a0201600801600082825461046691906117b3565b90915550506040805189815260208101899052908101879052606081018690527f9e6a720bba6499deb617f3059c8641e9c3265aa4c094aabd1347b292671da0139060800160405180910390a15050505050505050565b6104c5610e93565b806006816040516104d69190611722565b9081526040519081900360200190205460ff166105055760405162461bcd60e51b81526004016102cd90611754565b61051082858561024a565b6005826040516105209190611722565b908152602001604051809103902060006102d69190610f3d565b606060058260405161054c9190611722565b9081526020016040518091039020805480602002602001604051908101604052809291908181526020016000905b828210156108a257838290600052602060002090600a020160405180610160016040529081600082015481526020016001820180546105b8906117c6565b80601f01602080910402602001604051908101604052809291908181526020018280546105e4906117c6565b80156106315780601f1061060657610100808354040283529160200191610631565b820191906000526020600020905b81548152906001019060200180831161061457829003601f168201915b5050505050815260200160028201805461064a906117c6565b80601f0160208091040260200160405190810160405280929190818152602001828054610676906117c6565b80156106c35780601f10610698576101008083540402835291602001916106c3565b820191906000526020600020905b8154815290600101906020018083116106a657829003601f168201915b5050509183525050600382015460209091019060ff1660028111156106ea576106ea611380565b60028111156106fb576106fb611380565b815260200160048201805461070f906117c6565b80601f016020809104026020016040519081016040528092919081815260200182805461073b906117c6565b80156107885780601f1061075d57610100808354040283529160200191610788565b820191906000526020600020905b81548152906001019060200180831161076b57829003601f168201915b5050509183525050600582015460ff1615156020820152600682015460408201526007820180546060909201916107be906117c6565b80601f01602080910402602001604051908101604052809291908181526020018280546107ea906117c6565b80156108375780601f1061080c57610100808354040283529160200191610837565b820191906000526020600020905b81548152906001019060200180831161081a57829003601f168201915b505050918352505060088201546020820152600982015460409091019060ff16600181111561086857610868611380565b600181111561087957610879611380565b815260099190910154610100900460ff161515602091820152908252600192909201910161057a565b505050509050919050565b6108b5610e93565b8a6006816040516108c69190611722565b9081526040519081900360200190205460ff166108f55760405162461bcd60e51b81526004016102cd90611754565b60058c6040516109059190611722565b90815260200160405180910390206040518061016001604052808d81526020018c81526020018b81526020018a600281111561094357610943611380565b8152602001898152602001881515815260200187815260200186815260200185815260200184600181111561097a5761097a611380565b815260006020918201819052835460018181018655948252908290208351600a909202019081559082015191929091908201906109b7908261184f565b50604082015160028201906109cc908261184f565b50606082015160038201805460ff191660018360028111156109f0576109f0611380565b021790555060808201516004820190610a09908261184f565b5060a082015160058201805460ff191691151591909117905560c0820151600682015560e08201516007820190610a40908261184f565b50610100820151600882015561012082015160098201805460ff191660018381811115610a6f57610a6f611380565b02179055506101409190910151600990910180549115156101000261ff0019909216919091179055505050505050505050505050565b610aad610e93565b610ab76000610eed565b565b610ac1610e93565b60006040518060400160405280601c81526020017f19457468657265756d205369676e6564204d6573736167653a0a33320000000081525090506000818a604051602001610b1092919061190f565b60408051601f198184030181528282528051602091820120600080855291840180845281905260ff8d1692840192909252606083018b9052608083018a90529092509060019060a0016020604051602081039080840390855afa158015610b7b573d6000803e3d6000fd5b5050604051601f1901516002549092506001600160a01b038084169116149050610bda5760405162461bcd60e51b815260206004820152601060248201526f4e6f74207369676e656420627920514160801b60448201526064016102cd565b610be585888861024a565b6001600586604051610bf79190611722565b90815260200160405180910390208881548110610c1657610c1661173e565b6000918252602082206009600a909202010180549215156101000261ff001990931692909217909155600354604051636902622f60e11b81526001600160a01b039091169063d204c45e90610c719030908990600401611931565b6020604051808303816000875af1158015610c90573d6000803e3d6000fd5b505050506040513d601f19601f82011682018060405250810190610cb49190611955565b600097885260046020526040909720969096555050505050505050505050565b80600681604051610ce59190611722565b9081526040519081900360200190205460ff16610d145760405162461bcd60e51b81526004016102cd90611754565b6000600683604051610d269190611722565b908152604051908190036020018120805492151560ff1990931692909217909155600590610d55908490611722565b90815260200160405180910390206000610d6f9190610f3d565b5050565b80600681604051610d849190611722565b9081526040519081900360200190205460ff1615610de45760405162461bcd60e51b815260206004820152601a60248201527f436f6d70616e7920616c7265616479207265676973746572656400000000000060448201526064016102cd565b6001600683604051610df69190611722565b908152604051908190036020019020805491151560ff199092169190911790555050565b610e22610e93565b6001600160a01b038116610e875760405162461bcd60e51b815260206004820152602660248201527f4f776e61626c653a206e6577206f776e657220697320746865207a65726f206160448201526564647265737360d01b60648201526084016102cd565b610e9081610eed565b50565b6000546001600160a01b03163314610ab75760405162461bcd60e51b815260206004820181905260248201527f4f776e61626c653a2063616c6c6572206973206e6f7420746865206f776e657260448201526064016102cd565b600080546001600160a01b038381166001600160a01b0319831681178455604051919092169283917f8be0079c531659141344cd1fd0a4f28419497f9722a3daafe3b4186f6b6457e09190a35050565b50805460008255600a0290600052602060002090810190610e9091905b80821115610fdc576000808255610f746001830182610fe0565b610f82600283016000610fe0565b60038201805460ff19169055610f9c600483016000610fe0565b60058201805460ff19169055600060068301819055610fbf906007840190610fe0565b506000600882015560098101805461ffff19169055600a01610f5a565b5090565b508054610fec906117c6565b6000825580601f10610ffc575050565b601f016020900490600052602060002090810190610e9091905b80821115610fdc5760008155600101611016565b634e487b7160e01b600052604160045260246000fd5b600082601f83011261105157600080fd5b813567ffffffffffffffff8082111561106c5761106c61102a565b604051601f8301601f19908116603f011681019082821181831017156110945761109461102a565b816040528381528660208588010111156110ad57600080fd5b836020870160208301376000602085830101528094505050505092915050565b6000806000606084860312156110e257600080fd5b833567ffffffffffffffff8111156110f957600080fd5b61110586828701611040565b9660208601359650604090950135949350505050565b80356001600160a01b038116811461113257600080fd5b919050565b60008060008060006080868803121561114f57600080fd5b6111588661111b565b94506111666020870161111b565b935060408601359250606086013567ffffffffffffffff8082111561118a57600080fd5b818801915088601f83011261119e57600080fd5b8135818111156111ad57600080fd5b8960208285010111156111bf57600080fd5b9699959850939650602001949392505050565b600080600080608085870312156111e857600080fd5b843593506020850135925060408501359150606085013567ffffffffffffffff81111561121457600080fd5b61122087828801611040565b91505092959194509250565b600080600080600080600060e0888a03121561124757600080fd5b873596506020880135955060408801359450606088013593506080880135925060a0880135915060c088013567ffffffffffffffff81111561128857600080fd5b6112948a828b01611040565b91505092959891949750929550565b6000806000606084860312156112b857600080fd5b8335925060208401359150604084013567ffffffffffffffff8111156112dd57600080fd5b6112e986828701611040565b9150509250925092565b60006020828403121561130557600080fd5b813567ffffffffffffffff81111561131c57600080fd5b61132884828501611040565b949350505050565b60005b8381101561134b578181015183820152602001611333565b50506000910152565b6000815180845261136c816020860160208601611330565b601f01601f19169290920160200192915050565b634e487b7160e01b600052602160045260246000fd5b600381106113a6576113a6611380565b9052565b600281106113a6576113a6611380565b60006020808301818452808551808352604092508286019150828160051b87010184880160005b838110156114d657603f1989840301855281516101608151855288820151818a87015261141082870182611354565b91505087820151858203898701526114288282611354565b91505060608083015161143d82880182611396565b5050608080830151868303828801526114568382611354565b9250505060a08083015161146d8288018215159052565b505060c0828101519086015260e080830151868303828801526114908382611354565b92505050610100808301518187015250610120808301516114b3828801826113aa565b5050610140918201511515949091019390935293860193908601906001016113e1565b509098975050505050505050565b80356003811061113257600080fd5b8035801515811461113257600080fd5b80356002811061113257600080fd5b60008060008060008060008060008060006101608c8e03121561153457600080fd5b67ffffffffffffffff808d35111561154b57600080fd5b6115588e8e358f01611040565b9b5060208d01359a508060408e0135111561157257600080fd5b6115828e60408f01358f01611040565b99508060608e0135111561159557600080fd5b6115a58e60608f01358f01611040565b98506115b360808e016114e4565b97508060a08e013511156115c657600080fd5b6115d68e60a08f01358f01611040565b96506115e460c08e016114f3565b955060e08d01359450806101008e013511156115ff57600080fd5b506116118d6101008e01358e01611040565b92506101208c013591506116286101408d01611503565b90509295989b509295989b9093969950565b600080600080600080600080610100898b03121561165757600080fd5b88359750602089013560ff8116811461166f57600080fd5b965060408901359550606089013594506080890135935060a0890135925060c089013567ffffffffffffffff808211156116a857600080fd5b6116b48c838d01611040565b935060e08b01359150808211156116ca57600080fd5b506116d78b828c01611040565b9150509295985092959890939650565b6000602082840312156116f957600080fd5b5035919050565b60006020828403121561171257600080fd5b61171b8261111b565b9392505050565b60008251611734818460208701611330565b9190910192915050565b634e487b7160e01b600052603260045260246000fd5b60208082526016908201527510dbdb5c185b9e481b9bdd081c9959da5cdd195c995960521b604082015260600190565b634e487b7160e01b600052601160045260246000fd5b818103818111156117ad576117ad611784565b92915050565b808201808211156117ad576117ad611784565b600181811c908216806117da57607f821691505b6020821081036117fa57634e487b7160e01b600052602260045260246000fd5b50919050565b601f82111561184a57600081815260208120601f850160051c810160208610156118275750805b601f850160051c820191505b8181101561184657828155600101611833565b5050505b505050565b815167ffffffffffffffff8111156118695761186961102a565b61187d8161187784546117c6565b84611800565b602080601f8311600181146118b2576000841561189a5750858301515b600019600386901b1c1916600185901b178555611846565b600085815260208120601f198616915b828110156118e1578886015182559484019460019091019084016118c2565b50858210156118ff5787850151600019600388901b60f8161c191681555b5050505050600190811b01905550565b60008351611921818460208801611330565b9190910191825250602001919050565b6001600160a01b038316815260406020820181905260009061132890830184611354565b60006020828403121561196757600080fd5b505191905056fea2646970667358221220e1c52170a3f3f64ea6f82243f0075366ba165e4bb23d61432e17f97dac478ca464736f6c63430008110033",
  "linkReferences": {},
  "deployedLinkReferences": {}
}