{
  "_format": "hh-sol-artifact-1",
  "contractName": "SBTNFTCertificate",
  "sourceName": "contracts/SBTNFTCertificate.sol",
  "abi": [
    {
      "inputs": [],
      "stateMutability": "nonpayable",
      "type": "constructor"
    },
    {
      "anonymous": false,
      "inputs": [
        {
          "indexed": true,
          "internalType": "address",
          "name": "owner",
          "type": "address"
        },
        {
          "indexed": true,
          "internalType": "address",
          "name": "approved",
          "type": "address"
        },
        {
          "indexed": true,
          "internalType": "uint256",
          "name": "tokenId",
          "type": "uint256"
        }
      ],
      "name": "Approval",
      "type": "event"
    },
    {
      "anonymous": false,
      "inputs": [
        {
          "indexed": true,
          "internalType": "address",
          "name": "owner",
          "type": "address"
        },
        {
          "indexed": true,
          "internalType": "address",
          "name": "operator",
          "type": "address"
        },
        {
          "indexed": false,
          "internalType": "bool",
          "name": "approved",
          "type": "bool"
        }
      ],
      "name": "ApprovalForAll",
      "type": "event"
    },
    {
      "anonymous": false,
      "inputs": [
        {
          "indexed": true,
          "internalType": "address",
          "name": "previousOwner",
          "type": "address"
        },
        {
          "indexed": true,
          "internalType": "address",
          "name": "newOwner",
          "type": "address"
        }
      ],
      "name": "OwnershipTransferred",
      "type": "event"
    },
    {
      "anonymous": false,
      "inputs": [
        {
          "indexed": true,
          "internalType": "address",
          "name": "from",
          "type": "address"
        },
        {
          "indexed": true,
          "internalType": "address",
          "name": "to",
          "type": "address"
        },
        {
          "indexed": true,
          "internalType": "uint256",
          "name": "tokenId",
          "type": "uint256"
        }
      ],
      "name": "Transfer",
      "type": "event"
    },
    {
      "inputs": [
        {
          "internalType": "address",
          "name": "to",
          "type": "address"
        },
        {
          "internalType": "uint256",
          "name": "tokenId",
          "type": "uint256"
        }
      ],
      "name": "approve",
      "outputs": [],
      "stateMutability": "nonpayable",
      "type": "function"
    },
    {
      "inputs": [
        {
          "internalType": "address",
          "name": "owner",
          "type": "address"
        }
      ],
      "name": "balanceOf",
      "outputs": [
        {
          "internalType": "uint256",
          "name": "",
          "type": "uint256"
        }
      ],
      "stateMutability": "view",
      "type": "function"
    },
    {
      "inputs": [
        {
          "internalType": "uint256",
          "name": "tokenId",
          "type": "uint256"
        }
      ],
      "name": "burn",
      "outputs": [],
      "stateMutability": "nonpayable",
      "type": "function"
    },
    {
      "inputs": [
        {
          "internalType": "uint256",
          "name": "tokenId",
          "type": "uint256"
        }
      ],
      "name": "getApproved",
      "outputs": [
        {
          "internalType": "address",
          "name": "",
          "type": "address"
        }
      ],
      "stateMutability": "view",
      "type": "function"
    },
    {
      "inputs": [
        {
          "internalType": "address",
          "name": "owner",
          "type": "address"
        },
        {
          "internalType": "address",
          "name": "operator",
          "type": "address"
        }
      ],
      "name": "isApprovedForAll",
      "outputs": [
        {
          "internalType": "bool",
          "name": "",
          "type": "bool"
        }
      ],
      "stateMutability": "view",
      "type": "function"
    },
    {
      "inputs": [],
      "name": "name",
      "outputs": [
        {
          "internalType": "string",
          "name": "",
          "type": "string"
        }
      ],
      "stateMutability": "view",
      "type": "function"
    },
    {
      "inputs": [],
      "name": "owner",
      "outputs": [
        {
          "internalType": "address",
          "name": "",
          "type": "address"
        }
      ],
      "stateMutability": "view",
      "type": "function"
    },
    {
      "inputs": [
        {
          "internalType": "uint256",
          "name": "tokenId",
          "type": "uint256"
        }
      ],
      "name": "ownerOf",
      "outputs": [
        {
          "internalType": "address",
          "name": "",
          "type": "address"
        }
      ],
      "stateMutability": "view",
      "type": "function"
    },
    {
      "inputs": [],
      "name": "renounceOwnership",
      "outputs": [],
      "stateMutability": "nonpayable",
      "type": "function"
    },
    {
      "inputs": [
        {
          "internalType": "address",
          "name": "to",
          "type": "address"
        },
        {
          "internalType": "string",
          "name": "newBaseURI",
          "type": "string"
        }
      ],
      "name": "safeMint",
      "outputs": [
        {
          "internalType": "uint256",
          "name": "",
          "type": "uint256"
        }
      ],
      "stateMutability": "nonpayable",
      "type": "function"
    },
    {
      "inputs": [
        {
          "internalType": "address",
          "name": "from",
          "type": "address"
        },
        {
          "internalType": "address",
          "name": "to",
          "type": "address"
        },
        {
          "internalType": "uint256",
          "name": "tokenId",
          "type": "uint256"
        }
      ],
      "name": "safeTransferFrom",
      "outputs": [],
      "stateMutability": "nonpayable",
      "type": "function"
    },
    {
      "inputs": [
        {
          "internalType": "address",
          "name": "from",
          "type": "address"
        },
        {
          "internalType": "address",
          "name": "to",
          "type": "address"
        },
        {
          "internalType": "uint256",
          "name": "tokenId",
          "type": "uint256"
        },
        {
          "internalType": "bytes",
          "name": "data",
          "type": "bytes"
        }
      ],
      "name": "safeTransferFrom",
      "outputs": [],
      "stateMutability": "nonpayable",
      "type": "function"
    },
    {
      "inputs": [
        {
          "internalType": "address",
          "name": "operator",
          "type": "address"
        },
        {
          "internalType": "bool",
          "name": "approved",
          "type": "bool"
        }
      ],
      "name": "setApprovalForAll",
      "outputs": [],
      "stateMutability": "nonpayable",
      "type": "function"
    },
    {
      "inputs": [
        {
          "internalType": "address",
          "name": "flowexAddress",
          "type": "address"
        }
      ],
      "name": "setContractOwner",
      "outputs": [],
      "stateMutability": "nonpayable",
      "type": "function"
    },
    {
      "inputs": [
        {
          "internalType": "bytes4",
          "name": "interfaceId",
          "type": "bytes4"
        }
      ],
      "name": "supportsInterface",
      "outputs": [
        {
          "internalType": "bool",
          "name": "",
          "type": "bool"
        }
      ],
      "stateMutability": "view",
      "type": "function"
    },
    {
      "inputs": [],
      "name": "symbol",
      "outputs": [
        {
          "internalType": "string",
          "name": "",
          "type": "string"
        }
      ],
      "stateMutability": "view",
      "type": "function"
    },
    {
      "inputs": [
        {
          "internalType": "uint256",
          "name": "tokenId",
          "type": "uint256"
        }
      ],
      "name": "tokenURI",
      "outputs": [
        {
          "internalType": "string",
          "name": "",
          "type": "string"
        }
      ],
      "stateMutability": "view",
      "type": "function"
    },
    {
      "inputs": [
        {
          "internalType": "address",
          "name": "from",
          "type": "address"
        },
        {
          "internalType": "address",
          "name": "to",
          "type": "address"
        },
        {
          "internalType": "uint256",
          "name": "tokenId",
          "type": "uint256"
        }
      ],
      "name": "transferFrom",
      "outputs": [],
      "stateMutability": "nonpayable",
      "type": "function"
    },
    {
      "inputs": [
        {
          "internalType": "address",
          "name": "newOwner",
          "type": "address"
        }
      ],
      "name": "transferOwnership",
      "outputs": [],
      "stateMutability": "nonpayable",
      "type": "function"
    }
  ],
  "bytecode": "0x60c0604052601a60809081527f687474703a2f2f64656661756c74426173655572692e636f6d2f00000000000060a0526008906200003e9082620001ce565b503480156200004c57600080fd5b506040518060400160405280600e81526020016d29b7bab62137bab7322a37b5b2b760911b8152506040518060400160405280600381526020016214d09560ea1b8152508160009081620000a19190620001ce565b506001620000b08282620001ce565b505050620000cd620000c7620000d360201b60201c565b620000d7565b6200029a565b3390565b600680546001600160a01b038381166001600160a01b0319831681179093556040519116919082907f8be0079c531659141344cd1fd0a4f28419497f9722a3daafe3b4186f6b6457e090600090a35050565b634e487b7160e01b600052604160045260246000fd5b600181811c908216806200015457607f821691505b6020821081036200017557634e487b7160e01b600052602260045260246000fd5b50919050565b601f821115620001c957600081815260208120601f850160051c81016020861015620001a45750805b601f850160051c820191505b81811015620001c557828155600101620001b0565b5050505b505050565b81516001600160401b03811115620001ea57620001ea62000129565b6200020281620001fb84546200013f565b846200017b565b602080601f8311600181146200023a5760008415620002215750858301515b600019600386901b1c1916600185901b178555620001c5565b600085815260208120601f198616915b828110156200026b578886015182559484019460019091019084016200024a565b50858210156200028a5787850151600019600388901b60f8161c191681555b5050505050600190811b01905550565b6118de80620002aa6000396000f3fe608060405234801561001057600080fd5b50600436106101215760003560e01c8063715018a6116100ad578063b88d4fde11610071578063b88d4fde14610257578063c87b56dd1461026a578063d204c45e1461027d578063e985e9c514610290578063f2fde38b146102cc57600080fd5b8063715018a6146102105780638da5cb5b1461021857806395d89b4114610229578063a22cb46514610231578063a34d42b81461024457600080fd5b806323b872dd116100f457806323b872dd146101a357806342842e0e146101b657806342966c68146101c95780636352211e146101dc57806370a08231146101ef57600080fd5b806301ffc9a71461012657806306fdde031461014e578063081812fc14610163578063095ea7b31461018e575b600080fd5b6101396101343660046112e4565b6102df565b60405190151581526020015b60405180910390f35b610156610331565b6040516101459190611351565b610176610171366004611364565b6103c3565b6040516001600160a01b039091168152602001610145565b6101a161019c366004611399565b6103ea565b005b6101a16101b13660046113c3565b610504565b6101a16101c43660046113c3565b610535565b6101a16101d7366004611364565b610550565b6101766101ea366004611364565b6105cd565b6102026101fd3660046113ff565b61062d565b604051908152602001610145565b6101a16106b3565b6006546001600160a01b0316610176565b6101566106c7565b6101a161023f36600461141a565b6106d6565b6101a16102523660046113ff565b6106e5565b6101a16102653660046114e2565b610741565b610156610278366004611364565b610779565b61020261028b36600461155e565b6107e0565b61013961029e3660046115c0565b6001600160a01b03918216600090815260056020908152604080832093909416825291909152205460ff1690565b6101a16102da3660046113ff565b610818565b60006001600160e01b031982166380ac58cd60e01b148061031057506001600160e01b03198216635b5e139f60e01b145b8061032b57506301ffc9a760e01b6001600160e01b03198316145b92915050565b606060008054610340906115f3565b80601f016020809104026020016040519081016040528092919081815260200182805461036c906115f3565b80156103b95780601f1061038e576101008083540402835291602001916103b9565b820191906000526020600020905b81548152906001019060200180831161039c57829003601f168201915b5050505050905090565b60006103ce8261088e565b506000908152600460205260409020546001600160a01b031690565b60006103f5826105cd565b9050806001600160a01b0316836001600160a01b0316036104675760405162461bcd60e51b815260206004820152602160248201527f4552433732313a20617070726f76616c20746f2063757272656e74206f776e656044820152603960f91b60648201526084015b60405180910390fd5b336001600160a01b03821614806104835750610483813361029e565b6104f55760405162461bcd60e51b815260206004820152603d60248201527f4552433732313a20617070726f76652063616c6c6572206973206e6f7420746f60448201527f6b656e206f776e6572206f7220617070726f76656420666f7220616c6c000000606482015260840161045e565b6104ff83836108ed565b505050565b61050e338261095b565b61052a5760405162461bcd60e51b815260040161045e9061162d565b6104ff8383836109da565b6104ff83838360405180602001604052806000815250610741565b3361055a826105cd565b6001600160a01b0316146105c15760405162461bcd60e51b815260206004820152602860248201527f4f6e6c7920746865206f776e6572206f662074686520746f6b656e2063616e20604482015267313ab9371034ba1760c11b606482015260840161045e565b6105ca81610b4b565b50565b6000818152600260205260408120546001600160a01b03168061032b5760405162461bcd60e51b8152602060048201526018602482015277115490cdcc8c4e881a5b9d985b1a59081d1bdad95b88125160421b604482015260640161045e565b60006001600160a01b0382166106975760405162461bcd60e51b815260206004820152602960248201527f4552433732313a2061646472657373207a65726f206973206e6f7420612076616044820152683634b21037bbb732b960b91b606482015260840161045e565b506001600160a01b031660009081526003602052604090205490565b6106bb610b54565b6106c56000610bae565b565b606060018054610340906115f3565b6106e1338383610c00565b5050565b60095460ff16156107385760405162461bcd60e51b815260206004820152601a60248201527f436f6e7472616374206f776e657220616c726561647920736574000000000000604482015260640161045e565b6105ca81610818565b61074b338361095b565b6107675760405162461bcd60e51b815260040161045e9061162d565b61077384848484610cce565b50505050565b60606107848261088e565b600061078e610d01565b905060008151116107ae57604051806020016040528060008152506107d9565b806107b884610d10565b6040516020016107c992919061167a565b6040516020818303038152906040525b9392505050565b60006107ea610b54565b60006107f560075490565b9050610805600780546001019055565b61080e83610da3565b6107d98482610db7565b610820610b54565b6001600160a01b0381166108855760405162461bcd60e51b815260206004820152602660248201527f4f776e61626c653a206e6577206f776e657220697320746865207a65726f206160448201526564647265737360d01b606482015260840161045e565b6105ca81610bae565b6000818152600260205260409020546001600160a01b03166105ca5760405162461bcd60e51b8152602060048201526018602482015277115490cdcc8c4e881a5b9d985b1a59081d1bdad95b88125160421b604482015260640161045e565b600081815260046020526040902080546001600160a01b0319166001600160a01b0384169081179091558190610922826105cd565b6001600160a01b03167f8c5be1e5ebec7d5bd14f71427d1e84f3dd0314c0f7b2291e5b200ac8c7c3b92560405160405180910390a45050565b600080610967836105cd565b9050806001600160a01b0316846001600160a01b031614806109ae57506001600160a01b0380821660009081526005602090815260408083209388168352929052205460ff165b806109d25750836001600160a01b03166109c7846103c3565b6001600160a01b0316145b949350505050565b826001600160a01b03166109ed826105cd565b6001600160a01b031614610a135760405162461bcd60e51b815260040161045e906116a9565b6001600160a01b038216610a755760405162461bcd60e51b8152602060048201526024808201527f4552433732313a207472616e7366657220746f20746865207a65726f206164646044820152637265737360e01b606482015260840161045e565b610a828383836001610dd1565b826001600160a01b0316610a95826105cd565b6001600160a01b031614610abb5760405162461bcd60e51b815260040161045e906116a9565b600081815260046020908152604080832080546001600160a01b03199081169091556001600160a01b0387811680865260038552838620805460001901905590871680865283862080546001019055868652600290945282852080549092168417909155905184937fddf252ad1be2c89b69c2b068fc378daa952ba7f163c4a11628f55a4df523b3ef91a4505050565b6105ca81610e86565b6006546001600160a01b031633146106c55760405162461bcd60e51b815260206004820181905260248201527f4f776e61626c653a2063616c6c6572206973206e6f7420746865206f776e6572604482015260640161045e565b600680546001600160a01b038381166001600160a01b0319831681179093556040519116919082907f8be0079c531659141344cd1fd0a4f28419497f9722a3daafe3b4186f6b6457e090600090a35050565b816001600160a01b0316836001600160a01b031603610c615760405162461bcd60e51b815260206004820152601960248201527f4552433732313a20617070726f766520746f2063616c6c657200000000000000604482015260640161045e565b6001600160a01b03838116600081815260056020908152604080832094871680845294825291829020805460ff191686151590811790915591519182527f17307eab39ab6107e8899845ad3d59bd9653f200f220920489ca2b5937696c31910160405180910390a3505050565b610cd98484846109da565b610ce584848484610f29565b6107735760405162461bcd60e51b815260040161045e906116ee565b606060088054610340906115f3565b60606000610d1d8361102a565b600101905060008167ffffffffffffffff811115610d3d57610d3d611456565b6040519080825280601f01601f191660200182016040528015610d67576020820181803683370190505b5090508181016020015b600019016f181899199a1a9b1b9c1cb0b131b232b360811b600a86061a8153600a8504945084610d7157509392505050565b610dab610b54565b60086106e1828261178e565b6106e1828260405180602001604052806000815250611102565b6001600160a01b0384161580610dee57506001600160a01b038316155b6107735760405162461bcd60e51b815260206004820152605b60248201527f54686973206120536f756c626f756e6420746f6b656e2e2049742063616e6e6f60448201527f74206265207472616e736665727265642e2049742063616e206f6e6c7920626560648201527f206275726e65642062792074686520746f6b656e206f776e65722e0000000000608482015260a40161045e565b6000610e91826105cd565b9050610ea1816000846001610dd1565b610eaa826105cd565b600083815260046020908152604080832080546001600160a01b03199081169091556001600160a01b0385168085526003845282852080546000190190558785526002909352818420805490911690555192935084927fddf252ad1be2c89b69c2b068fc378daa952ba7f163c4a11628f55a4df523b3ef908390a45050565b60006001600160a01b0384163b1561101f57604051630a85bd0160e11b81526001600160a01b0385169063150b7a0290610f6d90339089908890889060040161184e565b6020604051808303816000875af1925050508015610fa8575060408051601f3d908101601f19168201909252610fa59181019061188b565b60015b611005573d808015610fd6576040519150601f19603f3d011682016040523d82523d6000602084013e610fdb565b606091505b508051600003610ffd5760405162461bcd60e51b815260040161045e906116ee565b805181602001fd5b6001600160e01b031916630a85bd0160e11b1490506109d2565b506001949350505050565b60008072184f03e93ff9f4daa797ed6e38ed64bf6a1f0160401b83106110695772184f03e93ff9f4daa797ed6e38ed64bf6a1f0160401b830492506040015b6d04ee2d6d415b85acef81000000008310611095576d04ee2d6d415b85acef8100000000830492506020015b662386f26fc1000083106110b357662386f26fc10000830492506010015b6305f5e10083106110cb576305f5e100830492506008015b61271083106110df57612710830492506004015b606483106110f1576064830492506002015b600a831061032b5760010192915050565b61110c8383611135565b6111196000848484610f29565b6104ff5760405162461bcd60e51b815260040161045e906116ee565b6001600160a01b03821661118b5760405162461bcd60e51b815260206004820181905260248201527f4552433732313a206d696e7420746f20746865207a65726f2061646472657373604482015260640161045e565b6000818152600260205260409020546001600160a01b0316156111f05760405162461bcd60e51b815260206004820152601c60248201527f4552433732313a20746f6b656e20616c7265616479206d696e74656400000000604482015260640161045e565b6111fe600083836001610dd1565b6000818152600260205260409020546001600160a01b0316156112635760405162461bcd60e51b815260206004820152601c60248201527f4552433732313a20746f6b656e20616c7265616479206d696e74656400000000604482015260640161045e565b6001600160a01b038216600081815260036020908152604080832080546001019055848352600290915280822080546001600160a01b0319168417905551839291907fddf252ad1be2c89b69c2b068fc378daa952ba7f163c4a11628f55a4df523b3ef908290a45050565b6001600160e01b0319811681146105ca57600080fd5b6000602082840312156112f657600080fd5b81356107d9816112ce565b60005b8381101561131c578181015183820152602001611304565b50506000910152565b6000815180845261133d816020860160208601611301565b601f01601f19169290920160200192915050565b6020815260006107d96020830184611325565b60006020828403121561137657600080fd5b5035919050565b80356001600160a01b038116811461139457600080fd5b919050565b600080604083850312156113ac57600080fd5b6113b58361137d565b946020939093013593505050565b6000806000606084860312156113d857600080fd5b6113e18461137d565b92506113ef6020850161137d565b9150604084013590509250925092565b60006020828403121561141157600080fd5b6107d98261137d565b6000806040838503121561142d57600080fd5b6114368361137d565b91506020830135801515811461144b57600080fd5b809150509250929050565b634e487b7160e01b600052604160045260246000fd5b600067ffffffffffffffff8084111561148757611487611456565b604051601f8501601f19908116603f011681019082821181831017156114af576114af611456565b816040528093508581528686860111156114c857600080fd5b858560208301376000602087830101525050509392505050565b600080600080608085870312156114f857600080fd5b6115018561137d565b935061150f6020860161137d565b925060408501359150606085013567ffffffffffffffff81111561153257600080fd5b8501601f8101871361154357600080fd5b6115528782356020840161146c565b91505092959194509250565b6000806040838503121561157157600080fd5b61157a8361137d565b9150602083013567ffffffffffffffff81111561159657600080fd5b8301601f810185136115a757600080fd5b6115b68582356020840161146c565b9150509250929050565b600080604083850312156115d357600080fd5b6115dc8361137d565b91506115ea6020840161137d565b90509250929050565b600181811c9082168061160757607f821691505b60208210810361162757634e487b7160e01b600052602260045260246000fd5b50919050565b6020808252602d908201527f4552433732313a2063616c6c6572206973206e6f7420746f6b656e206f776e6560408201526c1c881bdc88185c1c1c9bdd9959609a1b606082015260800190565b6000835161168c818460208801611301565b8351908301906116a0818360208801611301565b01949350505050565b60208082526025908201527f4552433732313a207472616e736665722066726f6d20696e636f72726563742060408201526437bbb732b960d91b606082015260800190565b60208082526032908201527f4552433732313a207472616e7366657220746f206e6f6e20455243373231526560408201527131b2b4bb32b91034b6b83632b6b2b73a32b960711b606082015260800190565b601f8211156104ff57600081815260208120601f850160051c810160208610156117675750805b601f850160051c820191505b8181101561178657828155600101611773565b505050505050565b815167ffffffffffffffff8111156117a8576117a8611456565b6117bc816117b684546115f3565b84611740565b602080601f8311600181146117f157600084156117d95750858301515b600019600386901b1c1916600185901b178555611786565b600085815260208120601f198616915b8281101561182057888601518255948401946001909101908401611801565b508582101561183e5787850151600019600388901b60f8161c191681555b5050505050600190811b01905550565b6001600160a01b038581168252841660208201526040810183905260806060820181905260009061188190830184611325565b9695505050505050565b60006020828403121561189d57600080fd5b81516107d9816112ce56fea2646970667358221220fe3a9b85e25c73b9073723f9822e87d17a06f495f3c1ff0046b41484602db18e64736f6c63430008110033",
  "linkReferences": {},
  "deployedLinkReferences": {}
}