{
  "_format": "hh-sol-artifact-1",
  "contractName": "SBTNFTCertificate",
  "sourceName": "contracts/SBTNFTCertificate.sol",
  "abi": [
    {
      "inputs": [],
      "stateMutability": "nonpayable",
      "type": "constructor"
    },
    {
      "anonymous": false,
      "inputs": [
        {
          "indexed": true,
          "internalType": "address",
          "name": "owner",
          "type": "address"
        },
        {
          "indexed": true,
          "internalType": "address",
          "name": "approved",
          "type": "address"
        },
        {
          "indexed": true,
          "internalType": "uint256",
          "name": "tokenId",
          "type": "uint256"
        }
      ],
      "name": "Approval",
      "type": "event"
    },
    {
      "anonymous": false,
      "inputs": [
        {
          "indexed": true,
          "internalType": "address",
          "name": "owner",
          "type": "address"
        },
        {
          "indexed": true,
          "internalType": "address",
          "name": "operator",
          "type": "address"
        },
        {
          "indexed": false,
          "internalType": "bool",
          "name": "approved",
          "type": "bool"
        }
      ],
      "name": "ApprovalForAll",
      "type": "event"
    },
    {
      "anonymous": false,
      "inputs": [
        {
          "indexed": true,
          "internalType": "address",
          "name": "previousOwner",
          "type": "address"
        },
        {
          "indexed": true,
          "internalType": "address",
          "name": "newOwner",
          "type": "address"
        }
      ],
      "name": "OwnershipTransferred",
      "type": "event"
    },
    {
      "anonymous": false,
      "inputs": [
        {
          "indexed": true,
          "internalType": "address",
          "name": "from",
          "type": "address"
        },
        {
          "indexed": true,
          "internalType": "address",
          "name": "to",
          "type": "address"
        },
        {
          "indexed": true,
          "internalType": "uint256",
          "name": "tokenId",
          "type": "uint256"
        }
      ],
      "name": "Transfer",
      "type": "event"
    },
    {
      "inputs": [
        {
          "internalType": "address",
          "name": "to",
          "type": "address"
        },
        {
          "internalType": "uint256",
          "name": "tokenId",
          "type": "uint256"
        }
      ],
      "name": "approve",
      "outputs": [],
      "stateMutability": "nonpayable",
      "type": "function"
    },
    {
      "inputs": [
        {
          "internalType": "address",
          "name": "owner",
          "type": "address"
        }
      ],
      "name": "balanceOf",
      "outputs": [
        {
          "internalType": "uint256",
          "name": "",
          "type": "uint256"
        }
      ],
      "stateMutability": "view",
      "type": "function"
    },
    {
      "inputs": [
        {
          "internalType": "uint256",
          "name": "tokenId",
          "type": "uint256"
        }
      ],
      "name": "getApproved",
      "outputs": [
        {
          "internalType": "address",
          "name": "",
          "type": "address"
        }
      ],
      "stateMutability": "view",
      "type": "function"
    },
    {
      "inputs": [
        {
          "internalType": "address",
          "name": "owner",
          "type": "address"
        },
        {
          "internalType": "address",
          "name": "operator",
          "type": "address"
        }
      ],
      "name": "isApprovedForAll",
      "outputs": [
        {
          "internalType": "bool",
          "name": "",
          "type": "bool"
        }
      ],
      "stateMutability": "view",
      "type": "function"
    },
    {
      "inputs": [],
      "name": "name",
      "outputs": [
        {
          "internalType": "string",
          "name": "",
          "type": "string"
        }
      ],
      "stateMutability": "view",
      "type": "function"
    },
    {
      "inputs": [],
      "name": "owner",
      "outputs": [
        {
          "internalType": "address",
          "name": "",
          "type": "address"
        }
      ],
      "stateMutability": "view",
      "type": "function"
    },
    {
      "inputs": [
        {
          "internalType": "uint256",
          "name": "tokenId",
          "type": "uint256"
        }
      ],
      "name": "ownerOf",
      "outputs": [
        {
          "internalType": "address",
          "name": "",
          "type": "address"
        }
      ],
      "stateMutability": "view",
      "type": "function"
    },
    {
      "inputs": [],
      "name": "renounceOwnership",
      "outputs": [],
      "stateMutability": "nonpayable",
      "type": "function"
    },
    {
      "inputs": [
        {
          "internalType": "address",
          "name": "to",
          "type": "address"
        },
        {
          "internalType": "string",
          "name": "newBaseURI",
          "type": "string"
        }
      ],
      "name": "safeMint",
      "outputs": [
        {
          "internalType": "uint256",
          "name": "",
          "type": "uint256"
        }
      ],
      "stateMutability": "nonpayable",
      "type": "function"
    },
    {
      "inputs": [
        {
          "internalType": "address",
          "name": "from",
          "type": "address"
        },
        {
          "internalType": "address",
          "name": "to",
          "type": "address"
        },
        {
          "internalType": "uint256",
          "name": "tokenId",
          "type": "uint256"
        }
      ],
      "name": "safeTransferFrom",
      "outputs": [],
      "stateMutability": "nonpayable",
      "type": "function"
    },
    {
      "inputs": [
        {
          "internalType": "address",
          "name": "from",
          "type": "address"
        },
        {
          "internalType": "address",
          "name": "to",
          "type": "address"
        },
        {
          "internalType": "uint256",
          "name": "tokenId",
          "type": "uint256"
        },
        {
          "internalType": "bytes",
          "name": "data",
          "type": "bytes"
        }
      ],
      "name": "safeTransferFrom",
      "outputs": [],
      "stateMutability": "nonpayable",
      "type": "function"
    },
    {
      "inputs": [
        {
          "internalType": "address",
          "name": "operator",
          "type": "address"
        },
        {
          "internalType": "bool",
          "name": "approved",
          "type": "bool"
        }
      ],
      "name": "setApprovalForAll",
      "outputs": [],
      "stateMutability": "nonpayable",
      "type": "function"
    },
    {
      "inputs": [
        {
          "internalType": "address",
          "name": "flowexAddress",
          "type": "address"
        }
      ],
      "name": "setContractOwner",
      "outputs": [],
      "stateMutability": "nonpayable",
      "type": "function"
    },
    {
      "inputs": [
        {
          "internalType": "bytes4",
          "name": "interfaceId",
          "type": "bytes4"
        }
      ],
      "name": "supportsInterface",
      "outputs": [
        {
          "internalType": "bool",
          "name": "",
          "type": "bool"
        }
      ],
      "stateMutability": "view",
      "type": "function"
    },
    {
      "inputs": [],
      "name": "symbol",
      "outputs": [
        {
          "internalType": "string",
          "name": "",
          "type": "string"
        }
      ],
      "stateMutability": "view",
      "type": "function"
    },
    {
      "inputs": [
        {
          "internalType": "uint256",
          "name": "tokenId",
          "type": "uint256"
        }
      ],
      "name": "tokenURI",
      "outputs": [
        {
          "internalType": "string",
          "name": "",
          "type": "string"
        }
      ],
      "stateMutability": "view",
      "type": "function"
    },
    {
      "inputs": [
        {
          "internalType": "address",
          "name": "from",
          "type": "address"
        },
        {
          "internalType": "address",
          "name": "to",
          "type": "address"
        },
        {
          "internalType": "uint256",
          "name": "tokenId",
          "type": "uint256"
        }
      ],
      "name": "transferFrom",
      "outputs": [],
      "stateMutability": "nonpayable",
      "type": "function"
    },
    {
      "inputs": [
        {
          "internalType": "address",
          "name": "newOwner",
          "type": "address"
        }
      ],
      "name": "transferOwnership",
      "outputs": [],
      "stateMutability": "nonpayable",
      "type": "function"
    }
  ],
  "bytecode": "0x60c0604052601a60809081527f687474703a2f2f64656661756c74426173655572692e636f6d2f00000000000060a0526008906200003e9082620001cb565b503480156200004c57600080fd5b506040518060400160405280600b81526020016a119b1bddd95e0810d95c9d60aa1b8152506040518060400160405280600381526020016246584360e81b81525081600090816200009e9190620001cb565b506001620000ad8282620001cb565b505050620000ca620000c4620000d060201b60201c565b620000d4565b62000297565b3390565b600680546001600160a01b038381166001600160a01b0319831681179093556040519116919082907f8be0079c531659141344cd1fd0a4f28419497f9722a3daafe3b4186f6b6457e090600090a35050565b634e487b7160e01b600052604160045260246000fd5b600181811c908216806200015157607f821691505b6020821081036200017257634e487b7160e01b600052602260045260246000fd5b50919050565b601f821115620001c657600081815260208120601f850160051c81016020861015620001a15750805b601f850160051c820191505b81811015620001c257828155600101620001ad565b5050505b505050565b81516001600160401b03811115620001e757620001e762000126565b620001ff81620001f884546200013c565b8462000178565b602080601f8311600181146200023757600084156200021e5750858301515b600019600386901b1c1916600185901b178555620001c2565b600085815260208120601f198616915b82811015620002685788860151825594840194600190910190840162000247565b5085821015620002875787850151600019600388901b60f8161c191681555b5050505050600190811b01905550565b6117a980620002a76000396000f3fe608060405234801561001057600080fd5b50600436106101165760003560e01c80638da5cb5b116100a2578063b88d4fde11610071578063b88d4fde14610239578063c87b56dd1461024c578063d204c45e1461025f578063e985e9c514610272578063f2fde38b146102ae57600080fd5b80638da5cb5b146101fa57806395d89b411461020b578063a22cb46514610213578063a34d42b81461022657600080fd5b806323b872dd116100e957806323b872dd1461019857806342842e0e146101ab5780636352211e146101be57806370a08231146101d1578063715018a6146101f257600080fd5b806301ffc9a71461011b57806306fdde0314610143578063081812fc14610158578063095ea7b314610183575b600080fd5b61012e610129366004611173565b6102c1565b60405190151581526020015b60405180910390f35b61014b610313565b60405161013a91906111e0565b61016b6101663660046111f3565b6103a5565b6040516001600160a01b03909116815260200161013a565b610196610191366004611228565b6103cc565b005b6101966101a6366004611252565b6104e6565b6101966101b9366004611252565b610517565b61016b6101cc3660046111f3565b610532565b6101e46101df36600461128e565b610592565b60405190815260200161013a565b610196610618565b6006546001600160a01b031661016b565b61014b61062c565b6101966102213660046112a9565b61063b565b61019661023436600461128e565b61064a565b610196610247366004611371565b6106a9565b61014b61025a3660046111f3565b6106e1565b6101e461026d3660046113ed565b610748565b61012e61028036600461144f565b6001600160a01b03918216600090815260056020908152604080832093909416825291909152205460ff1690565b6101966102bc36600461128e565b610780565b60006001600160e01b031982166380ac58cd60e01b14806102f257506001600160e01b03198216635b5e139f60e01b145b8061030d57506301ffc9a760e01b6001600160e01b03198316145b92915050565b60606000805461032290611482565b80601f016020809104026020016040519081016040528092919081815260200182805461034e90611482565b801561039b5780601f106103705761010080835404028352916020019161039b565b820191906000526020600020905b81548152906001019060200180831161037e57829003601f168201915b5050505050905090565b60006103b0826107f6565b506000908152600460205260409020546001600160a01b031690565b60006103d782610532565b9050806001600160a01b0316836001600160a01b0316036104495760405162461bcd60e51b815260206004820152602160248201527f4552433732313a20617070726f76616c20746f2063757272656e74206f776e656044820152603960f91b60648201526084015b60405180910390fd5b336001600160a01b038216148061046557506104658133610280565b6104d75760405162461bcd60e51b815260206004820152603d60248201527f4552433732313a20617070726f76652063616c6c6572206973206e6f7420746f60448201527f6b656e206f776e6572206f7220617070726f76656420666f7220616c6c0000006064820152608401610440565b6104e18383610855565b505050565b6104f033826108c3565b61050c5760405162461bcd60e51b8152600401610440906114bc565b6104e1838383610942565b6104e1838383604051806020016040528060008152506106a9565b6000818152600260205260408120546001600160a01b03168061030d5760405162461bcd60e51b8152602060048201526018602482015277115490cdcc8c4e881a5b9d985b1a59081d1bdad95b88125160421b6044820152606401610440565b60006001600160a01b0382166105fc5760405162461bcd60e51b815260206004820152602960248201527f4552433732313a2061646472657373207a65726f206973206e6f7420612076616044820152683634b21037bbb732b960b91b6064820152608401610440565b506001600160a01b031660009081526003602052604090205490565b610620610ab3565b61062a6000610b0d565b565b60606001805461032290611482565b610646338383610b5f565b5050565b60095460ff161561069d5760405162461bcd60e51b815260206004820152601a60248201527f436f6e7472616374206f776e657220616c7265616479207365740000000000006044820152606401610440565b6106a681610780565b50565b6106b333836108c3565b6106cf5760405162461bcd60e51b8152600401610440906114bc565b6106db84848484610c2d565b50505050565b60606106ec826107f6565b60006106f6610c60565b905060008151116107165760405180602001604052806000815250610741565b8061072084610c6f565b604051602001610731929190611509565b6040516020818303038152906040525b9392505050565b6000610752610ab3565b600061075d60075490565b905061076d600780546001019055565b61077683610d02565b6107418482610d16565b610788610ab3565b6001600160a01b0381166107ed5760405162461bcd60e51b815260206004820152602660248201527f4f776e61626c653a206e6577206f776e657220697320746865207a65726f206160448201526564647265737360d01b6064820152608401610440565b6106a681610b0d565b6000818152600260205260409020546001600160a01b03166106a65760405162461bcd60e51b8152602060048201526018602482015277115490cdcc8c4e881a5b9d985b1a59081d1bdad95b88125160421b6044820152606401610440565b600081815260046020526040902080546001600160a01b0319166001600160a01b038416908117909155819061088a82610532565b6001600160a01b03167f8c5be1e5ebec7d5bd14f71427d1e84f3dd0314c0f7b2291e5b200ac8c7c3b92560405160405180910390a45050565b6000806108cf83610532565b9050806001600160a01b0316846001600160a01b0316148061091657506001600160a01b0380821660009081526005602090815260408083209388168352929052205460ff165b8061093a5750836001600160a01b031661092f846103a5565b6001600160a01b0316145b949350505050565b826001600160a01b031661095582610532565b6001600160a01b03161461097b5760405162461bcd60e51b815260040161044090611538565b6001600160a01b0382166109dd5760405162461bcd60e51b8152602060048201526024808201527f4552433732313a207472616e7366657220746f20746865207a65726f206164646044820152637265737360e01b6064820152608401610440565b6109ea8383836001610d30565b826001600160a01b03166109fd82610532565b6001600160a01b031614610a235760405162461bcd60e51b815260040161044090611538565b600081815260046020908152604080832080546001600160a01b03199081169091556001600160a01b0387811680865260038552838620805460001901905590871680865283862080546001019055868652600290945282852080549092168417909155905184937fddf252ad1be2c89b69c2b068fc378daa952ba7f163c4a11628f55a4df523b3ef91a4505050565b6006546001600160a01b0316331461062a5760405162461bcd60e51b815260206004820181905260248201527f4f776e61626c653a2063616c6c6572206973206e6f7420746865206f776e65726044820152606401610440565b600680546001600160a01b038381166001600160a01b0319831681179093556040519116919082907f8be0079c531659141344cd1fd0a4f28419497f9722a3daafe3b4186f6b6457e090600090a35050565b816001600160a01b0316836001600160a01b031603610bc05760405162461bcd60e51b815260206004820152601960248201527f4552433732313a20617070726f766520746f2063616c6c6572000000000000006044820152606401610440565b6001600160a01b03838116600081815260056020908152604080832094871680845294825291829020805460ff191686151590811790915591519182527f17307eab39ab6107e8899845ad3d59bd9653f200f220920489ca2b5937696c31910160405180910390a3505050565b610c38848484610942565b610c4484848484610db8565b6106db5760405162461bcd60e51b81526004016104409061157d565b60606008805461032290611482565b60606000610c7c83610eb9565b600101905060008167ffffffffffffffff811115610c9c57610c9c6112e5565b6040519080825280601f01601f191660200182016040528015610cc6576020820181803683370190505b5090508181016020015b600019016f181899199a1a9b1b9c1cb0b131b232b360811b600a86061a8153600a8504945084610cd057509392505050565b610d0a610ab3565b6008610646828261161d565b610646828260405180602001604052806000815250610f91565b60018111156106db576001600160a01b03841615610d76576001600160a01b03841660009081526003602052604081208054839290610d709084906116f3565b90915550505b6001600160a01b038316156106db576001600160a01b03831660009081526003602052604081208054839290610dad908490611706565b909155505050505050565b60006001600160a01b0384163b15610eae57604051630a85bd0160e11b81526001600160a01b0385169063150b7a0290610dfc903390899088908890600401611719565b6020604051808303816000875af1925050508015610e37575060408051601f3d908101601f19168201909252610e3491810190611756565b60015b610e94573d808015610e65576040519150601f19603f3d011682016040523d82523d6000602084013e610e6a565b606091505b508051600003610e8c5760405162461bcd60e51b81526004016104409061157d565b805181602001fd5b6001600160e01b031916630a85bd0160e11b14905061093a565b506001949350505050565b60008072184f03e93ff9f4daa797ed6e38ed64bf6a1f0160401b8310610ef85772184f03e93ff9f4daa797ed6e38ed64bf6a1f0160401b830492506040015b6d04ee2d6d415b85acef81000000008310610f24576d04ee2d6d415b85acef8100000000830492506020015b662386f26fc100008310610f4257662386f26fc10000830492506010015b6305f5e1008310610f5a576305f5e100830492506008015b6127108310610f6e57612710830492506004015b60648310610f80576064830492506002015b600a831061030d5760010192915050565b610f9b8383610fc4565b610fa86000848484610db8565b6104e15760405162461bcd60e51b81526004016104409061157d565b6001600160a01b03821661101a5760405162461bcd60e51b815260206004820181905260248201527f4552433732313a206d696e7420746f20746865207a65726f20616464726573736044820152606401610440565b6000818152600260205260409020546001600160a01b03161561107f5760405162461bcd60e51b815260206004820152601c60248201527f4552433732313a20746f6b656e20616c7265616479206d696e746564000000006044820152606401610440565b61108d600083836001610d30565b6000818152600260205260409020546001600160a01b0316156110f25760405162461bcd60e51b815260206004820152601c60248201527f4552433732313a20746f6b656e20616c7265616479206d696e746564000000006044820152606401610440565b6001600160a01b038216600081815260036020908152604080832080546001019055848352600290915280822080546001600160a01b0319168417905551839291907fddf252ad1be2c89b69c2b068fc378daa952ba7f163c4a11628f55a4df523b3ef908290a45050565b6001600160e01b0319811681146106a657600080fd5b60006020828403121561118557600080fd5b81356107418161115d565b60005b838110156111ab578181015183820152602001611193565b50506000910152565b600081518084526111cc816020860160208601611190565b601f01601f19169290920160200192915050565b60208152600061074160208301846111b4565b60006020828403121561120557600080fd5b5035919050565b80356001600160a01b038116811461122357600080fd5b919050565b6000806040838503121561123b57600080fd5b6112448361120c565b946020939093013593505050565b60008060006060848603121561126757600080fd5b6112708461120c565b925061127e6020850161120c565b9150604084013590509250925092565b6000602082840312156112a057600080fd5b6107418261120c565b600080604083850312156112bc57600080fd5b6112c58361120c565b9150602083013580151581146112da57600080fd5b809150509250929050565b634e487b7160e01b600052604160045260246000fd5b600067ffffffffffffffff80841115611316576113166112e5565b604051601f8501601f19908116603f0116810190828211818310171561133e5761133e6112e5565b8160405280935085815286868601111561135757600080fd5b858560208301376000602087830101525050509392505050565b6000806000806080858703121561138757600080fd5b6113908561120c565b935061139e6020860161120c565b925060408501359150606085013567ffffffffffffffff8111156113c157600080fd5b8501601f810187136113d257600080fd5b6113e1878235602084016112fb565b91505092959194509250565b6000806040838503121561140057600080fd5b6114098361120c565b9150602083013567ffffffffffffffff81111561142557600080fd5b8301601f8101851361143657600080fd5b611445858235602084016112fb565b9150509250929050565b6000806040838503121561146257600080fd5b61146b8361120c565b91506114796020840161120c565b90509250929050565b600181811c9082168061149657607f821691505b6020821081036114b657634e487b7160e01b600052602260045260246000fd5b50919050565b6020808252602d908201527f4552433732313a2063616c6c6572206973206e6f7420746f6b656e206f776e6560408201526c1c881bdc88185c1c1c9bdd9959609a1b606082015260800190565b6000835161151b818460208801611190565b83519083019061152f818360208801611190565b01949350505050565b60208082526025908201527f4552433732313a207472616e736665722066726f6d20696e636f72726563742060408201526437bbb732b960d91b606082015260800190565b60208082526032908201527f4552433732313a207472616e7366657220746f206e6f6e20455243373231526560408201527131b2b4bb32b91034b6b83632b6b2b73a32b960711b606082015260800190565b601f8211156104e157600081815260208120601f850160051c810160208610156115f65750805b601f850160051c820191505b8181101561161557828155600101611602565b505050505050565b815167ffffffffffffffff811115611637576116376112e5565b61164b816116458454611482565b846115cf565b602080601f83116001811461168057600084156116685750858301515b600019600386901b1c1916600185901b178555611615565b600085815260208120601f198616915b828110156116af57888601518255948401946001909101908401611690565b50858210156116cd5787850151600019600388901b60f8161c191681555b5050505050600190811b01905550565b634e487b7160e01b600052601160045260246000fd5b8181038181111561030d5761030d6116dd565b8082018082111561030d5761030d6116dd565b6001600160a01b038581168252841660208201526040810183905260806060820181905260009061174c908301846111b4565b9695505050505050565b60006020828403121561176857600080fd5b81516107418161115d56fea26469706673582212202f0369d69c6887e7009f5a3337dd698a4c6858b5ed7528f6569787489e61195564736f6c63430008110033",
  "linkReferences": {},
  "deployedLinkReferences": {}
}