{
  "_format": "hh-sol-artifact-1",
  "contractName": "SBTNFTCertificate",
  "sourceName": "contracts/SBTNFTCertificate.sol",
  "abi": [
    {
      "inputs": [
        {
          "internalType": "string",
          "name": "_greeting",
          "type": "string"
        }
      ],
      "stateMutability": "nonpayable",
      "type": "constructor"
    },
    {
      "anonymous": false,
      "inputs": [
        {
          "indexed": true,
          "internalType": "address",
          "name": "owner",
          "type": "address"
        },
        {
          "indexed": true,
          "internalType": "address",
          "name": "approved",
          "type": "address"
        },
        {
          "indexed": true,
          "internalType": "uint256",
          "name": "tokenId",
          "type": "uint256"
        }
      ],
      "name": "Approval",
      "type": "event"
    },
    {
      "anonymous": false,
      "inputs": [
        {
          "indexed": true,
          "internalType": "address",
          "name": "owner",
          "type": "address"
        },
        {
          "indexed": true,
          "internalType": "address",
          "name": "operator",
          "type": "address"
        },
        {
          "indexed": false,
          "internalType": "bool",
          "name": "approved",
          "type": "bool"
        }
      ],
      "name": "ApprovalForAll",
      "type": "event"
    },
    {
      "anonymous": false,
      "inputs": [
        {
          "indexed": true,
          "internalType": "address",
          "name": "previousOwner",
          "type": "address"
        },
        {
          "indexed": true,
          "internalType": "address",
          "name": "newOwner",
          "type": "address"
        }
      ],
      "name": "OwnershipTransferred",
      "type": "event"
    },
    {
      "anonymous": false,
      "inputs": [
        {
          "indexed": true,
          "internalType": "address",
          "name": "from",
          "type": "address"
        },
        {
          "indexed": true,
          "internalType": "address",
          "name": "to",
          "type": "address"
        },
        {
          "indexed": true,
          "internalType": "uint256",
          "name": "tokenId",
          "type": "uint256"
        }
      ],
      "name": "Transfer",
      "type": "event"
    },
    {
      "inputs": [
        {
          "internalType": "address",
          "name": "to",
          "type": "address"
        },
        {
          "internalType": "uint256",
          "name": "tokenId",
          "type": "uint256"
        }
      ],
      "name": "approve",
      "outputs": [],
      "stateMutability": "nonpayable",
      "type": "function"
    },
    {
      "inputs": [
        {
          "internalType": "address",
          "name": "owner",
          "type": "address"
        }
      ],
      "name": "balanceOf",
      "outputs": [
        {
          "internalType": "uint256",
          "name": "",
          "type": "uint256"
        }
      ],
      "stateMutability": "view",
      "type": "function"
    },
    {
      "inputs": [
        {
          "internalType": "uint256",
          "name": "tokenId",
          "type": "uint256"
        }
      ],
      "name": "getApproved",
      "outputs": [
        {
          "internalType": "address",
          "name": "",
          "type": "address"
        }
      ],
      "stateMutability": "view",
      "type": "function"
    },
    {
      "inputs": [
        {
          "internalType": "address",
          "name": "owner",
          "type": "address"
        },
        {
          "internalType": "address",
          "name": "operator",
          "type": "address"
        }
      ],
      "name": "isApprovedForAll",
      "outputs": [
        {
          "internalType": "bool",
          "name": "",
          "type": "bool"
        }
      ],
      "stateMutability": "view",
      "type": "function"
    },
    {
      "inputs": [],
      "name": "name",
      "outputs": [
        {
          "internalType": "string",
          "name": "",
          "type": "string"
        }
      ],
      "stateMutability": "view",
      "type": "function"
    },
    {
      "inputs": [],
      "name": "owner",
      "outputs": [
        {
          "internalType": "address",
          "name": "",
          "type": "address"
        }
      ],
      "stateMutability": "view",
      "type": "function"
    },
    {
      "inputs": [
        {
          "internalType": "uint256",
          "name": "tokenId",
          "type": "uint256"
        }
      ],
      "name": "ownerOf",
      "outputs": [
        {
          "internalType": "address",
          "name": "",
          "type": "address"
        }
      ],
      "stateMutability": "view",
      "type": "function"
    },
    {
      "inputs": [],
      "name": "renounceOwnership",
      "outputs": [],
      "stateMutability": "nonpayable",
      "type": "function"
    },
    {
      "inputs": [
        {
          "internalType": "address",
          "name": "to",
          "type": "address"
        },
        {
          "internalType": "string",
          "name": "newBaseURI",
          "type": "string"
        }
      ],
      "name": "safeMint",
      "outputs": [
        {
          "internalType": "uint256",
          "name": "",
          "type": "uint256"
        }
      ],
      "stateMutability": "nonpayable",
      "type": "function"
    },
    {
      "inputs": [
        {
          "internalType": "address",
          "name": "from",
          "type": "address"
        },
        {
          "internalType": "address",
          "name": "to",
          "type": "address"
        },
        {
          "internalType": "uint256",
          "name": "tokenId",
          "type": "uint256"
        }
      ],
      "name": "safeTransferFrom",
      "outputs": [],
      "stateMutability": "nonpayable",
      "type": "function"
    },
    {
      "inputs": [
        {
          "internalType": "address",
          "name": "from",
          "type": "address"
        },
        {
          "internalType": "address",
          "name": "to",
          "type": "address"
        },
        {
          "internalType": "uint256",
          "name": "tokenId",
          "type": "uint256"
        },
        {
          "internalType": "bytes",
          "name": "data",
          "type": "bytes"
        }
      ],
      "name": "safeTransferFrom",
      "outputs": [],
      "stateMutability": "nonpayable",
      "type": "function"
    },
    {
      "inputs": [
        {
          "internalType": "address",
          "name": "operator",
          "type": "address"
        },
        {
          "internalType": "bool",
          "name": "approved",
          "type": "bool"
        }
      ],
      "name": "setApprovalForAll",
      "outputs": [],
      "stateMutability": "nonpayable",
      "type": "function"
    },
    {
      "inputs": [],
      "name": "setContractOwner",
      "outputs": [],
      "stateMutability": "nonpayable",
      "type": "function"
    },
    {
      "inputs": [
        {
          "internalType": "bytes4",
          "name": "interfaceId",
          "type": "bytes4"
        }
      ],
      "name": "supportsInterface",
      "outputs": [
        {
          "internalType": "bool",
          "name": "",
          "type": "bool"
        }
      ],
      "stateMutability": "view",
      "type": "function"
    },
    {
      "inputs": [],
      "name": "symbol",
      "outputs": [
        {
          "internalType": "string",
          "name": "",
          "type": "string"
        }
      ],
      "stateMutability": "view",
      "type": "function"
    },
    {
      "inputs": [
        {
          "internalType": "uint256",
          "name": "tokenId",
          "type": "uint256"
        }
      ],
      "name": "tokenURI",
      "outputs": [
        {
          "internalType": "string",
          "name": "",
          "type": "string"
        }
      ],
      "stateMutability": "view",
      "type": "function"
    },
    {
      "inputs": [
        {
          "internalType": "address",
          "name": "from",
          "type": "address"
        },
        {
          "internalType": "address",
          "name": "to",
          "type": "address"
        },
        {
          "internalType": "uint256",
          "name": "tokenId",
          "type": "uint256"
        }
      ],
      "name": "transferFrom",
      "outputs": [],
      "stateMutability": "nonpayable",
      "type": "function"
    },
    {
      "inputs": [
        {
          "internalType": "address",
          "name": "newOwner",
          "type": "address"
        }
      ],
      "name": "transferOwnership",
      "outputs": [],
      "stateMutability": "nonpayable",
      "type": "function"
    }
  ],
  "bytecode": "0x60c0604052601a60809081527f687474703a2f2f64656661756c74426173655572692e636f6d2f00000000000060a0526008906200003e9082620001ee565b503480156200004c57600080fd5b5060405162001b3938038062001b398339810160408190526200006f91620002ba565b6040518060400160405280600b81526020016a119b1bddd95e0810d95c9d60aa1b8152506040518060400160405280600381526020016246584360e81b8152508160009081620000c09190620001ee565b506001620000cf8282620001ee565b505050620000ec620000e6620000f360201b60201c565b620000f7565b506200038f565b3390565b600680546001600160a01b038381166001600160a01b0319831681179093556040519116919082907f8be0079c531659141344cd1fd0a4f28419497f9722a3daafe3b4186f6b6457e090600090a35050565b634e487b7160e01b600052604160045260246000fd5b600181811c908216806200017457607f821691505b6020821081036200019557634e487b7160e01b600052602260045260246000fd5b50919050565b601f821115620001e957600081815260208120601f850160051c81016020861015620001c45750805b601f850160051c820191505b81811015620001e557828155600101620001d0565b5050505b505050565b81516001600160401b038111156200020a576200020a62000149565b62000222816200021b84546200015f565b846200019b565b602080601f8311600181146200025a5760008415620002415750858301515b600019600386901b1c1916600185901b178555620001e5565b600085815260208120601f198616915b828110156200028b578886015182559484019460019091019084016200026a565b5085821015620002aa5787850151600019600388901b60f8161c191681555b5050505050600190811b01905550565b60006020808385031215620002ce57600080fd5b82516001600160401b0380821115620002e657600080fd5b818501915085601f830112620002fb57600080fd5b81518181111562000310576200031062000149565b604051601f8201601f19908116603f011681019083821181831017156200033b576200033b62000149565b8160405282815288868487010111156200035457600080fd5b600093505b8284101562000378578484018601518185018701529285019262000359565b600086848301015280965050505050505092915050565b61179a806200039f6000396000f3fe608060405234801561001057600080fd5b50600436106101165760003560e01c80638da5cb5b116100a2578063c87b56dd11610071578063c87b56dd14610239578063d204c45e1461024c578063e985e9c51461025f578063eb8362731461029b578063f2fde38b146102a357600080fd5b80638da5cb5b146101fa57806395d89b411461020b578063a22cb46514610213578063b88d4fde1461022657600080fd5b806323b872dd116100e957806323b872dd1461019857806342842e0e146101ab5780636352211e146101be57806370a08231146101d1578063715018a6146101f257600080fd5b806301ffc9a71461011b57806306fdde0314610143578063081812fc14610158578063095ea7b314610183575b600080fd5b61012e610129366004611164565b6102b6565b60405190151581526020015b60405180910390f35b61014b610308565b60405161013a91906111d1565b61016b6101663660046111e4565b61039a565b6040516001600160a01b03909116815260200161013a565b610196610191366004611219565b6103c1565b005b6101966101a6366004611243565b6104db565b6101966101b9366004611243565b61050c565b61016b6101cc3660046111e4565b610527565b6101e46101df36600461127f565b610587565b60405190815260200161013a565b61019661060d565b6006546001600160a01b031661016b565b61014b610621565b61019661022136600461129a565b610630565b610196610234366004611362565b61063f565b61014b6102473660046111e4565b610677565b6101e461025a3660046113de565b6106de565b61012e61026d366004611440565b6001600160a01b03918216600090815260056020908152604080832093909416825291909152205460ff1690565b610196610716565b6101966102b136600461127f565b61076e565b60006001600160e01b031982166380ac58cd60e01b14806102e757506001600160e01b03198216635b5e139f60e01b145b8061030257506301ffc9a760e01b6001600160e01b03198316145b92915050565b60606000805461031790611473565b80601f016020809104026020016040519081016040528092919081815260200182805461034390611473565b80156103905780601f1061036557610100808354040283529160200191610390565b820191906000526020600020905b81548152906001019060200180831161037357829003601f168201915b5050505050905090565b60006103a5826107e7565b506000908152600460205260409020546001600160a01b031690565b60006103cc82610527565b9050806001600160a01b0316836001600160a01b03160361043e5760405162461bcd60e51b815260206004820152602160248201527f4552433732313a20617070726f76616c20746f2063757272656e74206f776e656044820152603960f91b60648201526084015b60405180910390fd5b336001600160a01b038216148061045a575061045a813361026d565b6104cc5760405162461bcd60e51b815260206004820152603d60248201527f4552433732313a20617070726f76652063616c6c6572206973206e6f7420746f60448201527f6b656e206f776e6572206f7220617070726f76656420666f7220616c6c0000006064820152608401610435565b6104d68383610846565b505050565b6104e533826108b4565b6105015760405162461bcd60e51b8152600401610435906114ad565b6104d6838383610933565b6104d68383836040518060200160405280600081525061063f565b6000818152600260205260408120546001600160a01b0316806103025760405162461bcd60e51b8152602060048201526018602482015277115490cdcc8c4e881a5b9d985b1a59081d1bdad95b88125160421b6044820152606401610435565b60006001600160a01b0382166105f15760405162461bcd60e51b815260206004820152602960248201527f4552433732313a2061646472657373207a65726f206973206e6f7420612076616044820152683634b21037bbb732b960b91b6064820152608401610435565b506001600160a01b031660009081526003602052604090205490565b610615610aa4565b61061f6000610afe565b565b60606001805461031790611473565b61063b338383610b50565b5050565b61064933836108b4565b6106655760405162461bcd60e51b8152600401610435906114ad565b61067184848484610c1e565b50505050565b6060610682826107e7565b600061068c610c51565b905060008151116106ac57604051806020016040528060008152506106d7565b806106b684610c60565b6040516020016106c79291906114fa565b6040516020818303038152906040525b9392505050565b60006106e8610aa4565b60006106f360075490565b9050610703600780546001019055565b61070c83610cf3565b6106d78482610d07565b60095460ff16156107695760405162461bcd60e51b815260206004820152601a60248201527f436f6e7472616374206f776e657220616c7265616479207365740000000000006044820152606401610435565b61061f335b610776610aa4565b6001600160a01b0381166107db5760405162461bcd60e51b815260206004820152602660248201527f4f776e61626c653a206e6577206f776e657220697320746865207a65726f206160448201526564647265737360d01b6064820152608401610435565b6107e481610afe565b50565b6000818152600260205260409020546001600160a01b03166107e45760405162461bcd60e51b8152602060048201526018602482015277115490cdcc8c4e881a5b9d985b1a59081d1bdad95b88125160421b6044820152606401610435565b600081815260046020526040902080546001600160a01b0319166001600160a01b038416908117909155819061087b82610527565b6001600160a01b03167f8c5be1e5ebec7d5bd14f71427d1e84f3dd0314c0f7b2291e5b200ac8c7c3b92560405160405180910390a45050565b6000806108c083610527565b9050806001600160a01b0316846001600160a01b0316148061090757506001600160a01b0380821660009081526005602090815260408083209388168352929052205460ff165b8061092b5750836001600160a01b03166109208461039a565b6001600160a01b0316145b949350505050565b826001600160a01b031661094682610527565b6001600160a01b03161461096c5760405162461bcd60e51b815260040161043590611529565b6001600160a01b0382166109ce5760405162461bcd60e51b8152602060048201526024808201527f4552433732313a207472616e7366657220746f20746865207a65726f206164646044820152637265737360e01b6064820152608401610435565b6109db8383836001610d21565b826001600160a01b03166109ee82610527565b6001600160a01b031614610a145760405162461bcd60e51b815260040161043590611529565b600081815260046020908152604080832080546001600160a01b03199081169091556001600160a01b0387811680865260038552838620805460001901905590871680865283862080546001019055868652600290945282852080549092168417909155905184937fddf252ad1be2c89b69c2b068fc378daa952ba7f163c4a11628f55a4df523b3ef91a4505050565b6006546001600160a01b0316331461061f5760405162461bcd60e51b815260206004820181905260248201527f4f776e61626c653a2063616c6c6572206973206e6f7420746865206f776e65726044820152606401610435565b600680546001600160a01b038381166001600160a01b0319831681179093556040519116919082907f8be0079c531659141344cd1fd0a4f28419497f9722a3daafe3b4186f6b6457e090600090a35050565b816001600160a01b0316836001600160a01b031603610bb15760405162461bcd60e51b815260206004820152601960248201527f4552433732313a20617070726f766520746f2063616c6c6572000000000000006044820152606401610435565b6001600160a01b03838116600081815260056020908152604080832094871680845294825291829020805460ff191686151590811790915591519182527f17307eab39ab6107e8899845ad3d59bd9653f200f220920489ca2b5937696c31910160405180910390a3505050565b610c29848484610933565b610c3584848484610da9565b6106715760405162461bcd60e51b81526004016104359061156e565b60606008805461031790611473565b60606000610c6d83610eaa565b600101905060008167ffffffffffffffff811115610c8d57610c8d6112d6565b6040519080825280601f01601f191660200182016040528015610cb7576020820181803683370190505b5090508181016020015b600019016f181899199a1a9b1b9c1cb0b131b232b360811b600a86061a8153600a8504945084610cc157509392505050565b610cfb610aa4565b600861063b828261160e565b61063b828260405180602001604052806000815250610f82565b6001811115610671576001600160a01b03841615610d67576001600160a01b03841660009081526003602052604081208054839290610d619084906116e4565b90915550505b6001600160a01b03831615610671576001600160a01b03831660009081526003602052604081208054839290610d9e9084906116f7565b909155505050505050565b60006001600160a01b0384163b15610e9f57604051630a85bd0160e11b81526001600160a01b0385169063150b7a0290610ded90339089908890889060040161170a565b6020604051808303816000875af1925050508015610e28575060408051601f3d908101601f19168201909252610e2591810190611747565b60015b610e85573d808015610e56576040519150601f19603f3d011682016040523d82523d6000602084013e610e5b565b606091505b508051600003610e7d5760405162461bcd60e51b81526004016104359061156e565b805181602001fd5b6001600160e01b031916630a85bd0160e11b14905061092b565b506001949350505050565b60008072184f03e93ff9f4daa797ed6e38ed64bf6a1f0160401b8310610ee95772184f03e93ff9f4daa797ed6e38ed64bf6a1f0160401b830492506040015b6d04ee2d6d415b85acef81000000008310610f15576d04ee2d6d415b85acef8100000000830492506020015b662386f26fc100008310610f3357662386f26fc10000830492506010015b6305f5e1008310610f4b576305f5e100830492506008015b6127108310610f5f57612710830492506004015b60648310610f71576064830492506002015b600a83106103025760010192915050565b610f8c8383610fb5565b610f996000848484610da9565b6104d65760405162461bcd60e51b81526004016104359061156e565b6001600160a01b03821661100b5760405162461bcd60e51b815260206004820181905260248201527f4552433732313a206d696e7420746f20746865207a65726f20616464726573736044820152606401610435565b6000818152600260205260409020546001600160a01b0316156110705760405162461bcd60e51b815260206004820152601c60248201527f4552433732313a20746f6b656e20616c7265616479206d696e746564000000006044820152606401610435565b61107e600083836001610d21565b6000818152600260205260409020546001600160a01b0316156110e35760405162461bcd60e51b815260206004820152601c60248201527f4552433732313a20746f6b656e20616c7265616479206d696e746564000000006044820152606401610435565b6001600160a01b038216600081815260036020908152604080832080546001019055848352600290915280822080546001600160a01b0319168417905551839291907fddf252ad1be2c89b69c2b068fc378daa952ba7f163c4a11628f55a4df523b3ef908290a45050565b6001600160e01b0319811681146107e457600080fd5b60006020828403121561117657600080fd5b81356106d78161114e565b60005b8381101561119c578181015183820152602001611184565b50506000910152565b600081518084526111bd816020860160208601611181565b601f01601f19169290920160200192915050565b6020815260006106d760208301846111a5565b6000602082840312156111f657600080fd5b5035919050565b80356001600160a01b038116811461121457600080fd5b919050565b6000806040838503121561122c57600080fd5b611235836111fd565b946020939093013593505050565b60008060006060848603121561125857600080fd5b611261846111fd565b925061126f602085016111fd565b9150604084013590509250925092565b60006020828403121561129157600080fd5b6106d7826111fd565b600080604083850312156112ad57600080fd5b6112b6836111fd565b9150602083013580151581146112cb57600080fd5b809150509250929050565b634e487b7160e01b600052604160045260246000fd5b600067ffffffffffffffff80841115611307576113076112d6565b604051601f8501601f19908116603f0116810190828211818310171561132f5761132f6112d6565b8160405280935085815286868601111561134857600080fd5b858560208301376000602087830101525050509392505050565b6000806000806080858703121561137857600080fd5b611381856111fd565b935061138f602086016111fd565b925060408501359150606085013567ffffffffffffffff8111156113b257600080fd5b8501601f810187136113c357600080fd5b6113d2878235602084016112ec565b91505092959194509250565b600080604083850312156113f157600080fd5b6113fa836111fd565b9150602083013567ffffffffffffffff81111561141657600080fd5b8301601f8101851361142757600080fd5b611436858235602084016112ec565b9150509250929050565b6000806040838503121561145357600080fd5b61145c836111fd565b915061146a602084016111fd565b90509250929050565b600181811c9082168061148757607f821691505b6020821081036114a757634e487b7160e01b600052602260045260246000fd5b50919050565b6020808252602d908201527f4552433732313a2063616c6c6572206973206e6f7420746f6b656e206f776e6560408201526c1c881bdc88185c1c1c9bdd9959609a1b606082015260800190565b6000835161150c818460208801611181565b835190830190611520818360208801611181565b01949350505050565b60208082526025908201527f4552433732313a207472616e736665722066726f6d20696e636f72726563742060408201526437bbb732b960d91b606082015260800190565b60208082526032908201527f4552433732313a207472616e7366657220746f206e6f6e20455243373231526560408201527131b2b4bb32b91034b6b83632b6b2b73a32b960711b606082015260800190565b601f8211156104d657600081815260208120601f850160051c810160208610156115e75750805b601f850160051c820191505b81811015611606578281556001016115f3565b505050505050565b815167ffffffffffffffff811115611628576116286112d6565b61163c816116368454611473565b846115c0565b602080601f83116001811461167157600084156116595750858301515b600019600386901b1c1916600185901b178555611606565b600085815260208120601f198616915b828110156116a057888601518255948401946001909101908401611681565b50858210156116be5787850151600019600388901b60f8161c191681555b5050505050600190811b01905550565b634e487b7160e01b600052601160045260246000fd5b81810381811115610302576103026116ce565b80820180821115610302576103026116ce565b6001600160a01b038581168252841660208201526040810183905260806060820181905260009061173d908301846111a5565b9695505050505050565b60006020828403121561175957600080fd5b81516106d78161114e56fea2646970667358221220de5796d1b70b2d26a16ceeb5f174403cd02a2b5f27364baefb14ded67f69864064736f6c63430008110033",
  "linkReferences": {},
  "deployedLinkReferences": {}
}